{
  "contractName": "creatorToken",
  "abi": [
    {
      "inputs": [
        {
          "internalType": "uint256",
          "name": "_feesNFT",
          "type": "uint256"
        }
      ],
      "stateMutability": "nonpayable",
      "type": "constructor"
    },
    {
      "anonymous": false,
      "inputs": [
        {
          "indexed": true,
          "internalType": "address",
          "name": "user",
          "type": "address"
        },
        {
          "indexed": false,
          "internalType": "address",
          "name": "nft",
          "type": "address"
        }
      ],
      "name": "CreateNewNFT",
      "type": "event"
    },
    {
      "anonymous": false,
      "inputs": [
        {
          "indexed": false,
          "internalType": "uint256",
          "name": "_newFees",
          "type": "uint256"
        }
      ],
      "name": "NewValueFee",
      "type": "event"
    },
    {
      "anonymous": false,
      "inputs": [
        {
          "indexed": true,
          "internalType": "address",
          "name": "previousOwner",
          "type": "address"
        },
        {
          "indexed": true,
          "internalType": "address",
          "name": "newOwner",
          "type": "address"
        }
      ],
      "name": "OwnershipTransferred",
      "type": "event"
    },
    {
      "anonymous": false,
      "inputs": [
        {
          "indexed": false,
          "internalType": "address",
          "name": "account",
          "type": "address"
        }
      ],
      "name": "Paused",
      "type": "event"
    },
    {
      "anonymous": false,
      "inputs": [
        {
          "indexed": false,
          "internalType": "address",
          "name": "account",
          "type": "address"
        }
      ],
      "name": "Unpaused",
      "type": "event"
    },
    {
      "anonymous": false,
      "inputs": [
        {
          "indexed": false,
          "internalType": "uint256",
          "name": "withdraw_",
          "type": "uint256"
        }
      ],
      "name": "WithdrawBalance",
      "type": "event"
    },
    {
      "stateMutability": "payable",
      "type": "fallback"
    },
    {
      "inputs": [],
      "name": "getBalance",
      "outputs": [
        {
          "internalType": "uint256",
          "name": "Balance",
          "type": "uint256"
        }
      ],
      "stateMutability": "view",
      "type": "function"
    },
    {
      "inputs": [],
      "name": "owner",
      "outputs": [
        {
          "internalType": "address",
          "name": "",
          "type": "address"
        }
      ],
      "stateMutability": "view",
      "type": "function"
    },
    {
      "inputs": [],
      "name": "paused",
      "outputs": [
        {
          "internalType": "bool",
          "name": "",
          "type": "bool"
        }
      ],
      "stateMutability": "view",
      "type": "function"
    },
    {
      "inputs": [],
      "name": "renounceOwnership",
      "outputs": [],
      "stateMutability": "nonpayable",
      "type": "function"
    },
    {
      "inputs": [],
      "name": "setPause",
      "outputs": [],
      "stateMutability": "nonpayable",
      "type": "function"
    },
    {
      "inputs": [],
      "name": "setUnpause",
      "outputs": [],
      "stateMutability": "nonpayable",
      "type": "function"
    },
    {
      "inputs": [
        {
          "internalType": "address",
          "name": "newOwner",
          "type": "address"
        }
      ],
      "name": "transferOwnership",
      "outputs": [],
      "stateMutability": "nonpayable",
      "type": "function"
    },
    {
      "inputs": [],
      "name": "withdraw",
      "outputs": [],
      "stateMutability": "nonpayable",
      "type": "function"
    },
    {
      "stateMutability": "payable",
      "type": "receive"
    },
    {
      "inputs": [
        {
          "internalType": "uint256",
          "name": "_newFees",
          "type": "uint256"
        }
      ],
      "name": "setFees",
      "outputs": [],
      "stateMutability": "nonpayable",
      "type": "function"
    },
    {
      "inputs": [],
      "name": "getFees",
      "outputs": [
        {
          "internalType": "uint256",
          "name": "Fees",
          "type": "uint256"
        }
      ],
      "stateMutability": "view",
      "type": "function"
    },
    {
      "inputs": [
        {
          "internalType": "address",
          "name": "_owner",
          "type": "address"
        },
        {
          "internalType": "string",
          "name": "_name",
          "type": "string"
        },
        {
          "internalType": "string",
          "name": "_ticker",
          "type": "string"
        },
        {
          "internalType": "string",
          "name": "_tokenURI",
          "type": "string"
        }
      ],
      "name": "createNFtStandardstring",
      "outputs": [
        {
          "internalType": "address",
          "name": "_NftAddress",
          "type": "address"
        }
      ],
      "stateMutability": "payable",
      "type": "function"
    },
    {
      "inputs": [
        {
          "internalType": "address",
          "name": "_owner",
          "type": "address"
        },
        {
          "internalType": "string",
          "name": "_name",
          "type": "string"
        },
        {
          "internalType": "string",
          "name": "_ticker",
          "type": "string"
        }
      ],
      "name": "createNftProStoURIpausable",
      "outputs": [
        {
          "internalType": "address",
          "name": "_NftAddress",
          "type": "address"
        }
      ],
      "stateMutability": "payable",
      "type": "function"
    },
    {
      "inputs": [
        {
          "internalType": "address",
          "name": "_owner",
          "type": "address"
        },
        {
          "internalType": "string",
          "name": "_name",
          "type": "string"
        },
        {
          "internalType": "string",
          "name": "_ticker",
          "type": "string"
        }
      ],
      "name": "createNftProStoURIburnalblePausable",
      "outputs": [
        {
          "internalType": "address",
          "name": "_NftAddress",
          "type": "address"
        }
      ],
      "stateMutability": "payable",
      "type": "function"
    },
    {
      "inputs": [
        {
          "internalType": "address",
          "name": "_owner",
          "type": "address"
        },
        {
          "internalType": "string",
          "name": "_name",
          "type": "string"
        },
        {
          "internalType": "string",
          "name": "_ticker",
          "type": "string"
        }
      ],
      "name": "createNftProStoURIburnalble",
      "outputs": [
        {
          "internalType": "address",
          "name": "_NftAddress",
          "type": "address"
        }
      ],
      "stateMutability": "payable",
      "type": "function"
    },
    {
      "inputs": [
        {
          "internalType": "address",
          "name": "_owner",
          "type": "address"
        },
        {
          "internalType": "string",
          "name": "_name",
          "type": "string"
        },
        {
          "internalType": "string",
          "name": "_ticker",
          "type": "string"
        }
      ],
      "name": "createNftMintableProURI",
      "outputs": [
        {
          "internalType": "address",
          "name": "_NftAddress",
          "type": "address"
        }
      ],
      "stateMutability": "payable",
      "type": "function"
    }
  ],
  "bytecode": "0x60806040523480156200001157600080fd5b5060405162013ac438038062013ac4833981810160405281019062000037919062000193565b620000576200004b6200008760201b60201c565b6200008f60201b60201c565b600180819055506000600260006101000a81548160ff0219169083151502179055508060058190555050620001c5565b600033905090565b60008060009054906101000a900473ffffffffffffffffffffffffffffffffffffffff169050816000806101000a81548173ffffffffffffffffffffffffffffffffffffffff021916908373ffffffffffffffffffffffffffffffffffffffff1602179055508173ffffffffffffffffffffffffffffffffffffffff168173ffffffffffffffffffffffffffffffffffffffff167f8be0079c531659141344cd1fd0a4f28419497f9722a3daafe3b4186f6b6457e060405160405180910390a35050565b600080fd5b6000819050919050565b6200016d8162000158565b81146200017957600080fd5b50565b6000815190506200018d8162000162565b92915050565b600060208284031215620001ac57620001ab62000153565b5b6000620001bc848285016200017c565b91505092915050565b620138ee80620001d66000396000f3fe608060405260043610620001035760003560e01c8063715018a61162000097578063a8a04bf11162000061578063a8a04bf11462000305578063d431b1ac146200033b578063db8d55f11462000355578063f2fde38b14620003855762000115565b8063715018a6146200026b5780637485aa2b1462000285578063848cb5c614620002bb5780638da5cb5b14620002d55762000115565b80633ccfd60b11620000d95780633ccfd60b14620001bd5780633d18678e14620001d757806346f8656a14620002055780635c975abb146200023b5762000115565b806312065fe014620001215780632e9f22a514620001515780632faaed5714620001875762000115565b36620001155762000113620003b3565b005b6200011f620003b3565b005b3480156200012e57600080fd5b5062000139620003b5565b60405162000148919062000fe4565b60405180910390f35b6200016f6004803603810190620001699190620011dc565b620003bf565b6040516200017e919062001287565b60405180910390f35b620001a560048036038101906200019f9190620012a4565b620004a9565b604051620001b4919062001287565b60405180910390f35b348015620001ca57600080fd5b50620001d562000595565b005b348015620001e457600080fd5b50620002036004803603810190620001fd9190620013a4565b620005ab565b005b6200022360048036038101906200021d9190620011dc565b620005fc565b60405162000232919062001287565b60405180910390f35b3480156200024857600080fd5b5062000253620006e6565b604051620002629190620013f3565b60405180910390f35b3480156200027857600080fd5b5062000283620006fd565b005b620002a360048036038101906200029d9190620011dc565b62000715565b604051620002b2919062001287565b60405180910390f35b348015620002c857600080fd5b50620002d3620007ff565b005b348015620002e257600080fd5b50620002ed62000815565b604051620002fc919062001287565b60405180910390f35b6200032360048036038101906200031d9190620011dc565b6200083e565b60405162000332919062001287565b60405180910390f35b3480156200034857600080fd5b506200035362000928565b005b3480156200036257600080fd5b506200036d6200093e565b6040516200037c919062000fe4565b60405180910390f35b3480156200039257600080fd5b50620003b16004803603810190620003ab919062001410565b62000948565b005b565b6000600354905090565b6000620003cb620009d2565b620003d562000a24565b60055434146200041c576040517f08c379a00000000000000000000000000000000000000000000000000000000081526004016200041390620014a3565b60405180910390fd5b60055460046000828254620004329190620014f4565b925050819055506200044684848462000a73565b90503373ffffffffffffffffffffffffffffffffffffffff167f51da525b775433d0893a3d5d606af47d917ada7da28ad3805fefa3bad42981368260405162000490919062001287565b60405180910390a2620004a262000ac0565b9392505050565b6000620004b5620009d2565b620004bf62000a24565b600554341462000506576040517f08c379a0000000000000000000000000000000000000000000000000000000008152600401620004fd90620014a3565b60405180910390fd5b600554600460008282546200051c9190620014f4565b92505081905550620005318585858562000ac9565b90503373ffffffffffffffffffffffffffffffffffffffff167f51da525b775433d0893a3d5d606af47d917ada7da28ad3805fefa3bad4298136826040516200057b919062001287565b60405180910390a26200058d62000ac0565b949350505050565b6200059f62000b19565b620005a962000b9e565b565b620005b562000b19565b620005c08162000ca6565b7f6143bd3e5a66e3d454b2ac106e61f4ed6994f8ae7831cb517fe4f6c6d89ab93281604051620005f1919062000fe4565b60405180910390a150565b600062000608620009d2565b6200061262000a24565b600554341462000659576040517f08c379a00000000000000000000000000000000000000000000000000000000081526004016200065090620014a3565b60405180910390fd5b600554600460008282546200066f9190620014f4565b925050819055506200068384848462000cb0565b90503373ffffffffffffffffffffffffffffffffffffffff167f51da525b775433d0893a3d5d606af47d917ada7da28ad3805fefa3bad429813682604051620006cd919062001287565b60405180910390a2620006df62000ac0565b9392505050565b6000600260009054906101000a900460ff16905090565b6200070762000b19565b62000713600062000cfd565b565b600062000721620009d2565b6200072b62000a24565b600554341462000772576040517f08c379a00000000000000000000000000000000000000000000000000000000081526004016200076990620014a3565b60405180910390fd5b60055460046000828254620007889190620014f4565b925050819055506200079c84848462000dc1565b90503373ffffffffffffffffffffffffffffffffffffffff167f51da525b775433d0893a3d5d606af47d917ada7da28ad3805fefa3bad429813682604051620007e6919062001287565b60405180910390a2620007f862000ac0565b9392505050565b6200080962000b19565b6200081362000e0e565b565b60008060009054906101000a900473ffffffffffffffffffffffffffffffffffffffff16905090565b60006200084a620009d2565b6200085462000a24565b60055434146200089b576040517f08c379a00000000000000000000000000000000000000000000000000000000081526004016200089290620014a3565b60405180910390fd5b60055460046000828254620008b19190620014f4565b92505081905550620008c584848462000e77565b90503373ffffffffffffffffffffffffffffffffffffffff167f51da525b775433d0893a3d5d606af47d917ada7da28ad3805fefa3bad4298136826040516200090f919062001287565b60405180910390a26200092162000ac0565b9392505050565b6200093262000b19565b6200093c62000ec4565b565b6000600554905090565b6200095262000b19565b600073ffffffffffffffffffffffffffffffffffffffff168173ffffffffffffffffffffffffffffffffffffffff1603620009c4576040517f08c379a0000000000000000000000000000000000000000000000000000000008152600401620009bb90620015a5565b60405180910390fd5b620009cf8162000cfd565b50565b60026001540362000a1a576040517f08c379a000000000000000000000000000000000000000000000000000000000815260040162000a119062001617565b60405180910390fd5b6002600181905550565b62000a2e620006e6565b1562000a71576040517f08c379a000000000000000000000000000000000000000000000000000000000815260040162000a689062001689565b60405180910390fd5b565b60008083838660405162000a879062000f83565b62000a959392919062001723565b604051809103906000f08015801562000ab2573d6000803e3d6000fd5b509050809150509392505050565b60018081905550565b6000808484848860405162000ade9062000f91565b62000aed94939291906200176e565b604051809103906000f08015801562000b0a573d6000803e3d6000fd5b50905080915050949350505050565b62000b2362000f2d565b73ffffffffffffffffffffffffffffffffffffffff1662000b4362000815565b73ffffffffffffffffffffffffffffffffffffffff161462000b9c576040517f08c379a000000000000000000000000000000000000000000000000000000000815260040162000b939062001820565b60405180910390fd5b565b600060035490506000600381905550600062000bb962000815565b73ffffffffffffffffffffffffffffffffffffffff168260405162000bde9062001877565b60006040518083038185875af1925050503d806000811462000c1d576040519150601f19603f3d011682016040523d82523d6000602084013e62000c22565b606091505b505090508062000c69576040517f08c379a000000000000000000000000000000000000000000000000000000000815260040162000c6090620018de565b60405180910390fd5b7f5f5cb80d5302aa1a394a4eaaf93ab1082109e671bee9d6889f9d6f60decb68cd8260405162000c9a919062000fe4565b60405180910390a15050565b8060058190555050565b60008083838660405162000cc49062000f9f565b62000cd29392919062001723565b604051809103906000f08015801562000cef573d6000803e3d6000fd5b509050809150509392505050565b60008060009054906101000a900473ffffffffffffffffffffffffffffffffffffffff169050816000806101000a81548173ffffffffffffffffffffffffffffffffffffffff021916908373ffffffffffffffffffffffffffffffffffffffff1602179055508173ffffffffffffffffffffffffffffffffffffffff168173ffffffffffffffffffffffffffffffffffffffff167f8be0079c531659141344cd1fd0a4f28419497f9722a3daafe3b4186f6b6457e060405160405180910390a35050565b60008083838660405162000dd59062000fad565b62000de39392919062001723565b604051809103906000f08015801562000e00573d6000803e3d6000fd5b509050809150509392505050565b62000e1862000f35565b6000600260006101000a81548160ff0219169083151502179055507f5db9ee0a495bf2e6ff9c91a7834c1ba4fdd244a5e8aa4e537bd38aeae4b073aa62000e5e62000f2d565b60405162000e6d919062001287565b60405180910390a1565b60008083838660405162000e8b9062000fbb565b62000e999392919062001723565b604051809103906000f08015801562000eb6573d6000803e3d6000fd5b509050809150509392505050565b62000ece62000a24565b6001600260006101000a81548160ff0219169083151502179055507f62e78cea01bee320cd4e420270b5ea74000d11b0c9f74754ebdbfc544b05a25862000f1462000f2d565b60405162000f23919062001287565b60405180910390a1565b600033905090565b62000f3f620006e6565b62000f81576040517f08c379a000000000000000000000000000000000000000000000000000000000815260040162000f789062001950565b60405180910390fd5b565b613986806200197383390190565b6130b980620052f983390190565b61398680620083b283390190565b613f07806200bd3883390190565b613c7a806200fc3f83390190565b6000819050919050565b62000fde8162000fc9565b82525050565b600060208201905062000ffb600083018462000fd3565b92915050565b6000604051905090565b600080fd5b600080fd5b600073ffffffffffffffffffffffffffffffffffffffff82169050919050565b6000620010428262001015565b9050919050565b620010548162001035565b81146200106057600080fd5b50565b600081359050620010748162001049565b92915050565b600080fd5b600080fd5b6000601f19601f8301169050919050565b7f4e487b7100000000000000000000000000000000000000000000000000000000600052604160045260246000fd5b620010cf8262001084565b810181811067ffffffffffffffff82111715620010f157620010f062001095565b5b80604052505050565b60006200110662001001565b9050620011148282620010c4565b919050565b600067ffffffffffffffff82111562001137576200113662001095565b5b620011428262001084565b9050602081019050919050565b82818337600083830152505050565b6000620011756200116f8462001119565b620010fa565b9050828152602081018484840111156200119457620011936200107f565b5b620011a18482856200114f565b509392505050565b600082601f830112620011c157620011c06200107a565b5b8135620011d38482602086016200115e565b91505092915050565b600080600060608486031215620011f857620011f76200100b565b5b6000620012088682870162001063565b935050602084013567ffffffffffffffff8111156200122c576200122b62001010565b5b6200123a86828701620011a9565b925050604084013567ffffffffffffffff8111156200125e576200125d62001010565b5b6200126c86828701620011a9565b9150509250925092565b620012818162001035565b82525050565b60006020820190506200129e600083018462001276565b92915050565b60008060008060808587031215620012c157620012c06200100b565b5b6000620012d18782880162001063565b945050602085013567ffffffffffffffff811115620012f557620012f462001010565b5b6200130387828801620011a9565b935050604085013567ffffffffffffffff81111562001327576200132662001010565b5b6200133587828801620011a9565b925050606085013567ffffffffffffffff81111562001359576200135862001010565b5b6200136787828801620011a9565b91505092959194509250565b6200137e8162000fc9565b81146200138a57600080fd5b50565b6000813590506200139e8162001373565b92915050565b600060208284031215620013bd57620013bc6200100b565b5b6000620013cd848285016200138d565b91505092915050565b60008115159050919050565b620013ed81620013d6565b82525050565b60006020820190506200140a6000830184620013e2565b92915050565b6000602082840312156200142957620014286200100b565b5b6000620014398482850162001063565b91505092915050565b600082825260208201905092915050565b7f506179616d656e742066656573206973206661696c6c00000000000000000000600082015250565b60006200148b60168362001442565b9150620014988262001453565b602082019050919050565b60006020820190508181036000830152620014be816200147c565b9050919050565b7f4e487b7100000000000000000000000000000000000000000000000000000000600052601160045260246000fd5b6000620015018262000fc9565b91506200150e8362000fc9565b9250828201905080821115620015295762001528620014c5565b5b92915050565b7f4f776e61626c653a206e6577206f776e657220697320746865207a65726f206160008201527f6464726573730000000000000000000000000000000000000000000000000000602082015250565b60006200158d60268362001442565b91506200159a826200152f565b604082019050919050565b60006020820190508181036000830152620015c0816200157e565b9050919050565b7f5265656e7472616e637947756172643a207265656e7472616e742063616c6c00600082015250565b6000620015ff601f8362001442565b91506200160c82620015c7565b602082019050919050565b600060208201905081810360008301526200163281620015f0565b9050919050565b7f5061757361626c653a2070617573656400000000000000000000000000000000600082015250565b60006200167160108362001442565b91506200167e8262001639565b602082019050919050565b60006020820190508181036000830152620016a48162001662565b9050919050565b600081519050919050565b60005b83811015620016d6578082015181840152602081019050620016b9565b60008484015250505050565b6000620016ef82620016ab565b620016fb818562001442565b93506200170d818560208601620016b6565b620017188162001084565b840191505092915050565b600060608201905081810360008301526200173f8186620016e2565b90508181036020830152620017558185620016e2565b905062001766604083018462001276565b949350505050565b600060808201905081810360008301526200178a8187620016e2565b90508181036020830152620017a08186620016e2565b90508181036040830152620017b68185620016e2565b9050620017c7606083018462001276565b95945050505050565b7f4f776e61626c653a2063616c6c6572206973206e6f7420746865206f776e6572600082015250565b60006200180860208362001442565b91506200181582620017d0565b602082019050919050565b600060208201905081810360008301526200183b81620017f9565b9050919050565b600081905092915050565b50565b60006200185f60008362001842565b91506200186c826200184d565b600082019050919050565b6000620018848262001850565b9150819050919050565b7f5769746864726177206661696c6c000000000000000000000000000000000000600082015250565b6000620018c6600e8362001442565b9150620018d3826200188e565b602082019050919050565b60006020820190508181036000830152620018f981620018b7565b9050919050565b7f5061757361626c653a206e6f7420706175736564000000000000000000000000600082015250565b60006200193860148362001442565b9150620019458262001900565b602082019050919050565b600060208201905081810360008301526200196b8162001929565b905091905056fe60806040523480156200001157600080fd5b5060405162003986380380620039868339818101604052810190620000379190620004b0565b828281600090816200004a919062000795565b5080600190816200005c919062000795565b5050506200007f620000736200009960201b60201c565b620000a160201b60201c565b62000090816200016760201b60201c565b50505062000997565b600033905090565b6000600760009054906101000a900473ffffffffffffffffffffffffffffffffffffffff16905081600760006101000a81548173ffffffffffffffffffffffffffffffffffffffff021916908373ffffffffffffffffffffffffffffffffffffffff1602179055508173ffffffffffffffffffffffffffffffffffffffff168173ffffffffffffffffffffffffffffffffffffffff167f8be0079c531659141344cd1fd0a4f28419497f9722a3daafe3b4186f6b6457e060405160405180910390a35050565b62000177620001fd60201b60201c565b600073ffffffffffffffffffffffffffffffffffffffff168173ffffffffffffffffffffffffffffffffffffffff1603620001e9576040517f08c379a0000000000000000000000000000000000000000000000000000000008152600401620001e09062000903565b60405180910390fd5b620001fa81620000a160201b60201c565b50565b6200020d6200009960201b60201c565b73ffffffffffffffffffffffffffffffffffffffff16620002336200028e60201b60201c565b73ffffffffffffffffffffffffffffffffffffffff16146200028c576040517f08c379a0000000000000000000000000000000000000000000000000000000008152600401620002839062000975565b60405180910390fd5b565b6000600760009054906101000a900473ffffffffffffffffffffffffffffffffffffffff16905090565b6000604051905090565b600080fd5b600080fd5b600080fd5b600080fd5b6000601f19601f8301169050919050565b7f4e487b7100000000000000000000000000000000000000000000000000000000600052604160045260246000fd5b6200032182620002d6565b810181811067ffffffffffffffff82111715620003435762000342620002e7565b5b80604052505050565b600062000358620002b8565b905062000366828262000316565b919050565b600067ffffffffffffffff821115620003895762000388620002e7565b5b6200039482620002d6565b9050602081019050919050565b60005b83811015620003c1578082015181840152602081019050620003a4565b60008484015250505050565b6000620003e4620003de846200036b565b6200034c565b905082815260208101848484011115620004035762000402620002d1565b5b62000410848285620003a1565b509392505050565b600082601f83011262000430576200042f620002cc565b5b815162000442848260208601620003cd565b91505092915050565b600073ffffffffffffffffffffffffffffffffffffffff82169050919050565b600062000478826200044b565b9050919050565b6200048a816200046b565b81146200049657600080fd5b50565b600081519050620004aa816200047f565b92915050565b600080600060608486031215620004cc57620004cb620002c2565b5b600084015167ffffffffffffffff811115620004ed57620004ec620002c7565b5b620004fb8682870162000418565b935050602084015167ffffffffffffffff8111156200051f576200051e620002c7565b5b6200052d8682870162000418565b9250506040620005408682870162000499565b9150509250925092565b600081519050919050565b7f4e487b7100000000000000000000000000000000000000000000000000000000600052602260045260246000fd5b600060028204905060018216806200059d57607f821691505b602082108103620005b357620005b262000555565b5b50919050565b60008190508160005260206000209050919050565b60006020601f8301049050919050565b600082821b905092915050565b6000600883026200061d7fffffffffffffffffffffffffffffffffffffffffffffffffffffffffffffffff82620005de565b620006298683620005de565b95508019841693508086168417925050509392505050565b6000819050919050565b6000819050919050565b600062000676620006706200066a8462000641565b6200064b565b62000641565b9050919050565b6000819050919050565b620006928362000655565b620006aa620006a1826200067d565b848454620005eb565b825550505050565b600090565b620006c1620006b2565b620006ce81848462000687565b505050565b5b81811015620006f657620006ea600082620006b7565b600181019050620006d4565b5050565b601f82111562000745576200070f81620005b9565b6200071a84620005ce565b810160208510156200072a578190505b620007426200073985620005ce565b830182620006d3565b50505b505050565b600082821c905092915050565b60006200076a600019846008026200074a565b1980831691505092915050565b600062000785838362000757565b9150826002028217905092915050565b620007a0826200054a565b67ffffffffffffffff811115620007bc57620007bb620002e7565b5b620007c8825462000584565b620007d5828285620006fa565b600060209050601f8311600181146200080d5760008415620007f8578287015190505b62000804858262000777565b86555062000874565b601f1984166200081d86620005b9565b60005b82811015620008475784890151825560018201915060208501945060208101905062000820565b8683101562000867578489015162000863601f89168262000757565b8355505b6001600288020188555050505b505050505050565b600082825260208201905092915050565b7f4f776e61626c653a206e6577206f776e657220697320746865207a65726f206160008201527f6464726573730000000000000000000000000000000000000000000000000000602082015250565b6000620008eb6026836200087c565b9150620008f8826200088d565b604082019050919050565b600060208201905081810360008301526200091e81620008dc565b9050919050565b7f4f776e61626c653a2063616c6c6572206973206e6f7420746865206f776e6572600082015250565b60006200095d6020836200087c565b91506200096a8262000925565b602082019050919050565b6000602082019050818103600083015262000990816200094e565b9050919050565b612fdf80620009a76000396000f3fe608060405234801561001057600080fd5b506004361061010b5760003560e01c8063715018a6116100a2578063b88d4fde11610071578063b88d4fde146102a4578063c87b56dd146102c0578063d204c45e146102f0578063e985e9c51461030c578063f2fde38b1461033c5761010b565b8063715018a6146102425780638da5cb5b1461024c57806395d89b411461026a578063a22cb465146102885761010b565b806323b872dd116100de57806323b872dd146101aa57806342842e0e146101c65780636352211e146101e257806370a08231146102125761010b565b806301ffc9a71461011057806306fdde0314610140578063081812fc1461015e578063095ea7b31461018e575b600080fd5b61012a60048036038101906101259190611d39565b610358565b6040516101379190611d81565b60405180910390f35b61014861043a565b6040516101559190611e2c565b60405180910390f35b61017860048036038101906101739190611e84565b6104cc565b6040516101859190611ef2565b60405180910390f35b6101a860048036038101906101a39190611f39565b610512565b005b6101c460048036038101906101bf9190611f79565b610629565b005b6101e060048036038101906101db9190611f79565b610689565b005b6101fc60048036038101906101f79190611e84565b6106a9565b6040516102099190611ef2565b60405180910390f35b61022c60048036038101906102279190611fcc565b61072f565b6040516102399190612008565b60405180910390f35b61024a6107e6565b005b6102546107fa565b6040516102619190611ef2565b60405180910390f35b610272610824565b60405161027f9190611e2c565b60405180910390f35b6102a2600480360381019061029d919061204f565b6108b6565b005b6102be60048036038101906102b991906121c4565b6108cc565b005b6102da60048036038101906102d59190611e84565b61092e565b6040516102e79190611e2c565b60405180910390f35b61030a600480360381019061030591906122e8565b610940565b005b61032660048036038101906103219190612344565b610979565b6040516103339190611d81565b60405180910390f35b61035660048036038101906103519190611fcc565b610a0d565b005b60007f80ac58cd000000000000000000000000000000000000000000000000000000007bffffffffffffffffffffffffffffffffffffffffffffffffffffffff1916827bffffffffffffffffffffffffffffffffffffffffffffffffffffffff1916148061042357507f5b5e139f000000000000000000000000000000000000000000000000000000007bffffffffffffffffffffffffffffffffffffffffffffffffffffffff1916827bffffffffffffffffffffffffffffffffffffffffffffffffffffffff1916145b80610433575061043282610a90565b5b9050919050565b606060008054610449906123b3565b80601f0160208091040260200160405190810160405280929190818152602001828054610475906123b3565b80156104c25780601f10610497576101008083540402835291602001916104c2565b820191906000526020600020905b8154815290600101906020018083116104a557829003601f168201915b5050505050905090565b60006104d782610afa565b6004600083815260200190815260200160002060009054906101000a900473ffffffffffffffffffffffffffffffffffffffff169050919050565b600061051d826106a9565b90508073ffffffffffffffffffffffffffffffffffffffff168373ffffffffffffffffffffffffffffffffffffffff160361058d576040517f08c379a000000000000000000000000000000000000000000000000000000000815260040161058490612456565b60405180910390fd5b8073ffffffffffffffffffffffffffffffffffffffff166105ac610b45565b73ffffffffffffffffffffffffffffffffffffffff1614806105db57506105da816105d5610b45565b610979565b5b61061a576040517f08c379a0000000000000000000000000000000000000000000000000000000008152600401610611906124e8565b60405180910390fd5b6106248383610b4d565b505050565b61063a610634610b45565b82610c06565b610679576040517f08c379a00000000000000000000000000000000000000000000000000000000081526004016106709061257a565b60405180910390fd5b610684838383610c9b565b505050565b6106a4838383604051806020016040528060008152506108cc565b505050565b6000806106b583610f94565b9050600073ffffffffffffffffffffffffffffffffffffffff168173ffffffffffffffffffffffffffffffffffffffff1603610726576040517f08c379a000000000000000000000000000000000000000000000000000000000815260040161071d906125e6565b60405180910390fd5b80915050919050565b60008073ffffffffffffffffffffffffffffffffffffffff168273ffffffffffffffffffffffffffffffffffffffff160361079f576040517f08c379a000000000000000000000000000000000000000000000000000000000815260040161079690612678565b60405180910390fd5b600360008373ffffffffffffffffffffffffffffffffffffffff1673ffffffffffffffffffffffffffffffffffffffff168152602001908152602001600020549050919050565b6107ee610fd1565b6107f8600061104f565b565b6000600760009054906101000a900473ffffffffffffffffffffffffffffffffffffffff16905090565b606060018054610833906123b3565b80601f016020809104026020016040519081016040528092919081815260200182805461085f906123b3565b80156108ac5780601f10610881576101008083540402835291602001916108ac565b820191906000526020600020905b81548152906001019060200180831161088f57829003601f168201915b5050505050905090565b6108c86108c1610b45565b8383611115565b5050565b6108dd6108d7610b45565b83610c06565b61091c576040517f08c379a00000000000000000000000000000000000000000000000000000000081526004016109139061257a565b60405180910390fd5b61092884848484611281565b50505050565b6060610939826112dd565b9050919050565b610948610fd1565b600061095460086113ef565b905061096060086113fd565b61096a8382611413565b6109748183611431565b505050565b6000600560008473ffffffffffffffffffffffffffffffffffffffff1673ffffffffffffffffffffffffffffffffffffffff16815260200190815260200160002060008373ffffffffffffffffffffffffffffffffffffffff1673ffffffffffffffffffffffffffffffffffffffff16815260200190815260200160002060009054906101000a900460ff16905092915050565b610a15610fd1565b600073ffffffffffffffffffffffffffffffffffffffff168173ffffffffffffffffffffffffffffffffffffffff1603610a84576040517f08c379a0000000000000000000000000000000000000000000000000000000008152600401610a7b9061270a565b60405180910390fd5b610a8d8161104f565b50565b60007f01ffc9a7000000000000000000000000000000000000000000000000000000007bffffffffffffffffffffffffffffffffffffffffffffffffffffffff1916827bffffffffffffffffffffffffffffffffffffffffffffffffffffffff1916149050919050565b610b038161149e565b610b42576040517f08c379a0000000000000000000000000000000000000000000000000000000008152600401610b39906125e6565b60405180910390fd5b50565b600033905090565b816004600083815260200190815260200160002060006101000a81548173ffffffffffffffffffffffffffffffffffffffff021916908373ffffffffffffffffffffffffffffffffffffffff160217905550808273ffffffffffffffffffffffffffffffffffffffff16610bc0836106a9565b73ffffffffffffffffffffffffffffffffffffffff167f8c5be1e5ebec7d5bd14f71427d1e84f3dd0314c0f7b2291e5b200ac8c7c3b92560405160405180910390a45050565b600080610c12836106a9565b90508073ffffffffffffffffffffffffffffffffffffffff168473ffffffffffffffffffffffffffffffffffffffff161480610c545750610c538185610979565b5b80610c9257508373ffffffffffffffffffffffffffffffffffffffff16610c7a846104cc565b73ffffffffffffffffffffffffffffffffffffffff16145b91505092915050565b8273ffffffffffffffffffffffffffffffffffffffff16610cbb826106a9565b73ffffffffffffffffffffffffffffffffffffffff1614610d11576040517f08c379a0000000000000000000000000000000000000000000000000000000008152600401610d089061279c565b60405180910390fd5b600073ffffffffffffffffffffffffffffffffffffffff168273ffffffffffffffffffffffffffffffffffffffff1603610d80576040517f08c379a0000000000000000000000000000000000000000000000000000000008152600401610d779061282e565b60405180910390fd5b610d8d83838360016114df565b8273ffffffffffffffffffffffffffffffffffffffff16610dad826106a9565b73ffffffffffffffffffffffffffffffffffffffff1614610e03576040517f08c379a0000000000000000000000000000000000000000000000000000000008152600401610dfa9061279c565b60405180910390fd5b6004600082815260200190815260200160002060006101000a81549073ffffffffffffffffffffffffffffffffffffffff02191690556001600360008573ffffffffffffffffffffffffffffffffffffffff1673ffffffffffffffffffffffffffffffffffffffff168152602001908152602001600020600082825403925050819055506001600360008473ffffffffffffffffffffffffffffffffffffffff1673ffffffffffffffffffffffffffffffffffffffff16815260200190815260200160002060008282540192505081905550816002600083815260200190815260200160002060006101000a81548173ffffffffffffffffffffffffffffffffffffffff021916908373ffffffffffffffffffffffffffffffffffffffff160217905550808273ffffffffffffffffffffffffffffffffffffffff168473ffffffffffffffffffffffffffffffffffffffff167fddf252ad1be2c89b69c2b068fc378daa952ba7f163c4a11628f55a4df523b3ef60405160405180910390a4610f8f8383836001611605565b505050565b60006002600083815260200190815260200160002060009054906101000a900473ffffffffffffffffffffffffffffffffffffffff169050919050565b610fd9610b45565b73ffffffffffffffffffffffffffffffffffffffff16610ff76107fa565b73ffffffffffffffffffffffffffffffffffffffff161461104d576040517f08c379a00000000000000000000000000000000000000000000000000000000081526004016110449061289a565b60405180910390fd5b565b6000600760009054906101000a900473ffffffffffffffffffffffffffffffffffffffff16905081600760006101000a81548173ffffffffffffffffffffffffffffffffffffffff021916908373ffffffffffffffffffffffffffffffffffffffff1602179055508173ffffffffffffffffffffffffffffffffffffffff168173ffffffffffffffffffffffffffffffffffffffff167f8be0079c531659141344cd1fd0a4f28419497f9722a3daafe3b4186f6b6457e060405160405180910390a35050565b8173ffffffffffffffffffffffffffffffffffffffff168373ffffffffffffffffffffffffffffffffffffffff1603611183576040517f08c379a000000000000000000000000000000000000000000000000000000000815260040161117a90612906565b60405180910390fd5b80600560008573ffffffffffffffffffffffffffffffffffffffff1673ffffffffffffffffffffffffffffffffffffffff16815260200190815260200160002060008473ffffffffffffffffffffffffffffffffffffffff1673ffffffffffffffffffffffffffffffffffffffff16815260200190815260200160002060006101000a81548160ff0219169083151502179055508173ffffffffffffffffffffffffffffffffffffffff168373ffffffffffffffffffffffffffffffffffffffff167f17307eab39ab6107e8899845ad3d59bd9653f200f220920489ca2b5937696c31836040516112749190611d81565b60405180910390a3505050565b61128c848484610c9b565b6112988484848461160b565b6112d7576040517f08c379a00000000000000000000000000000000000000000000000000000000081526004016112ce90612998565b60405180910390fd5b50505050565b60606112e882610afa565b6000600660008481526020019081526020016000208054611308906123b3565b80601f0160208091040260200160405190810160405280929190818152602001828054611334906123b3565b80156113815780601f1061135657610100808354040283529160200191611381565b820191906000526020600020905b81548152906001019060200180831161136457829003601f168201915b505050505090506000611392611792565b905060008151036113a75781925050506113ea565b6000825111156113dc5780826040516020016113c49291906129f4565b604051602081830303815290604052925050506113ea565b6113e5846117a9565b925050505b919050565b600081600001549050919050565b6001816000016000828254019250508190555050565b61142d828260405180602001604052806000815250611811565b5050565b61143a8261149e565b611479576040517f08c379a000000000000000000000000000000000000000000000000000000000815260040161147090612a8a565b60405180910390fd5b806006600084815260200190815260200160002090816114999190612c56565b505050565b60008073ffffffffffffffffffffffffffffffffffffffff166114c083610f94565b73ffffffffffffffffffffffffffffffffffffffff1614159050919050565b60018111156115ff57600073ffffffffffffffffffffffffffffffffffffffff168473ffffffffffffffffffffffffffffffffffffffff16146115735780600360008673ffffffffffffffffffffffffffffffffffffffff1673ffffffffffffffffffffffffffffffffffffffff168152602001908152602001600020600082825461156b9190612d57565b925050819055505b600073ffffffffffffffffffffffffffffffffffffffff168373ffffffffffffffffffffffffffffffffffffffff16146115fe5780600360008573ffffffffffffffffffffffffffffffffffffffff1673ffffffffffffffffffffffffffffffffffffffff16815260200190815260200160002060008282546115f69190612d8b565b925050819055505b5b50505050565b50505050565b600061162c8473ffffffffffffffffffffffffffffffffffffffff1661186c565b15611785578373ffffffffffffffffffffffffffffffffffffffff1663150b7a02611655610b45565b8786866040518563ffffffff1660e01b81526004016116779493929190612e14565b6020604051808303816000875af19250505080156116b357506040513d601f19601f820116820180604052508101906116b09190612e75565b60015b611735573d80600081146116e3576040519150601f19603f3d011682016040523d82523d6000602084013e6116e8565b606091505b50600081510361172d576040517f08c379a000000000000000000000000000000000000000000000000000000000815260040161172490612998565b60405180910390fd5b805181602001fd5b63150b7a0260e01b7bffffffffffffffffffffffffffffffffffffffffffffffffffffffff1916817bffffffffffffffffffffffffffffffffffffffffffffffffffffffff19161491505061178a565b600190505b949350505050565b606060405180602001604052806000815250905090565b60606117b482610afa565b60006117be611792565b905060008151116117de5760405180602001604052806000815250611809565b806117e88461188f565b6040516020016117f99291906129f4565b6040516020818303038152906040525b915050919050565b61181b838361195d565b611828600084848461160b565b611867576040517f08c379a000000000000000000000000000000000000000000000000000000000815260040161185e90612998565b60405180910390fd5b505050565b6000808273ffffffffffffffffffffffffffffffffffffffff163b119050919050565b60606000600161189e84611b7a565b01905060008167ffffffffffffffff8111156118bd576118bc612099565b5b6040519080825280601f01601f1916602001820160405280156118ef5781602001600182028036833780820191505090505b509050600082602001820190505b600115611952578080600190039150507f3031323334353637383961626364656600000000000000000000000000000000600a86061a8153600a858161194657611945612ea2565b5b049450600085036118fd575b819350505050919050565b600073ffffffffffffffffffffffffffffffffffffffff168273ffffffffffffffffffffffffffffffffffffffff16036119cc576040517f08c379a00000000000000000000000000000000000000000000000000000000081526004016119c390612f1d565b60405180910390fd5b6119d58161149e565b15611a15576040517f08c379a0000000000000000000000000000000000000000000000000000000008152600401611a0c90612f89565b60405180910390fd5b611a236000838360016114df565b611a2c8161149e565b15611a6c576040517f08c379a0000000000000000000000000000000000000000000000000000000008152600401611a6390612f89565b60405180910390fd5b6001600360008473ffffffffffffffffffffffffffffffffffffffff1673ffffffffffffffffffffffffffffffffffffffff16815260200190815260200160002060008282540192505081905550816002600083815260200190815260200160002060006101000a81548173ffffffffffffffffffffffffffffffffffffffff021916908373ffffffffffffffffffffffffffffffffffffffff160217905550808273ffffffffffffffffffffffffffffffffffffffff16600073ffffffffffffffffffffffffffffffffffffffff167fddf252ad1be2c89b69c2b068fc378daa952ba7f163c4a11628f55a4df523b3ef60405160405180910390a4611b76600083836001611605565b5050565b600080600090507a184f03e93ff9f4daa797ed6e38ed64bf6a1f0100000000000000008310611bd8577a184f03e93ff9f4daa797ed6e38ed64bf6a1f0100000000000000008381611bce57611bcd612ea2565b5b0492506040810190505b6d04ee2d6d415b85acef81000000008310611c15576d04ee2d6d415b85acef81000000008381611c0b57611c0a612ea2565b5b0492506020810190505b662386f26fc100008310611c4457662386f26fc100008381611c3a57611c39612ea2565b5b0492506010810190505b6305f5e1008310611c6d576305f5e1008381611c6357611c62612ea2565b5b0492506008810190505b6127108310611c92576127108381611c8857611c87612ea2565b5b0492506004810190505b60648310611cb55760648381611cab57611caa612ea2565b5b0492506002810190505b600a8310611cc4576001810190505b80915050919050565b6000604051905090565b600080fd5b600080fd5b60007fffffffff0000000000000000000000000000000000000000000000000000000082169050919050565b611d1681611ce1565b8114611d2157600080fd5b50565b600081359050611d3381611d0d565b92915050565b600060208284031215611d4f57611d4e611cd7565b5b6000611d5d84828501611d24565b91505092915050565b60008115159050919050565b611d7b81611d66565b82525050565b6000602082019050611d966000830184611d72565b92915050565b600081519050919050565b600082825260208201905092915050565b60005b83811015611dd6578082015181840152602081019050611dbb565b60008484015250505050565b6000601f19601f8301169050919050565b6000611dfe82611d9c565b611e088185611da7565b9350611e18818560208601611db8565b611e2181611de2565b840191505092915050565b60006020820190508181036000830152611e468184611df3565b905092915050565b6000819050919050565b611e6181611e4e565b8114611e6c57600080fd5b50565b600081359050611e7e81611e58565b92915050565b600060208284031215611e9a57611e99611cd7565b5b6000611ea884828501611e6f565b91505092915050565b600073ffffffffffffffffffffffffffffffffffffffff82169050919050565b6000611edc82611eb1565b9050919050565b611eec81611ed1565b82525050565b6000602082019050611f076000830184611ee3565b92915050565b611f1681611ed1565b8114611f2157600080fd5b50565b600081359050611f3381611f0d565b92915050565b60008060408385031215611f5057611f4f611cd7565b5b6000611f5e85828601611f24565b9250506020611f6f85828601611e6f565b9150509250929050565b600080600060608486031215611f9257611f91611cd7565b5b6000611fa086828701611f24565b9350506020611fb186828701611f24565b9250506040611fc286828701611e6f565b9150509250925092565b600060208284031215611fe257611fe1611cd7565b5b6000611ff084828501611f24565b91505092915050565b61200281611e4e565b82525050565b600060208201905061201d6000830184611ff9565b92915050565b61202c81611d66565b811461203757600080fd5b50565b60008135905061204981612023565b92915050565b6000806040838503121561206657612065611cd7565b5b600061207485828601611f24565b92505060206120858582860161203a565b9150509250929050565b600080fd5b600080fd5b7f4e487b7100000000000000000000000000000000000000000000000000000000600052604160045260246000fd5b6120d182611de2565b810181811067ffffffffffffffff821117156120f0576120ef612099565b5b80604052505050565b6000612103611ccd565b905061210f82826120c8565b919050565b600067ffffffffffffffff82111561212f5761212e612099565b5b61213882611de2565b9050602081019050919050565b82818337600083830152505050565b600061216761216284612114565b6120f9565b90508281526020810184848401111561218357612182612094565b5b61218e848285612145565b509392505050565b600082601f8301126121ab576121aa61208f565b5b81356121bb848260208601612154565b91505092915050565b600080600080608085870312156121de576121dd611cd7565b5b60006121ec87828801611f24565b94505060206121fd87828801611f24565b935050604061220e87828801611e6f565b925050606085013567ffffffffffffffff81111561222f5761222e611cdc565b5b61223b87828801612196565b91505092959194509250565b600067ffffffffffffffff82111561226257612261612099565b5b61226b82611de2565b9050602081019050919050565b600061228b61228684612247565b6120f9565b9050828152602081018484840111156122a7576122a6612094565b5b6122b2848285612145565b509392505050565b600082601f8301126122cf576122ce61208f565b5b81356122df848260208601612278565b91505092915050565b600080604083850312156122ff576122fe611cd7565b5b600061230d85828601611f24565b925050602083013567ffffffffffffffff81111561232e5761232d611cdc565b5b61233a858286016122ba565b9150509250929050565b6000806040838503121561235b5761235a611cd7565b5b600061236985828601611f24565b925050602061237a85828601611f24565b9150509250929050565b7f4e487b7100000000000000000000000000000000000000000000000000000000600052602260045260246000fd5b600060028204905060018216806123cb57607f821691505b6020821081036123de576123dd612384565b5b50919050565b7f4552433732313a20617070726f76616c20746f2063757272656e74206f776e6560008201527f7200000000000000000000000000000000000000000000000000000000000000602082015250565b6000612440602183611da7565b915061244b826123e4565b604082019050919050565b6000602082019050818103600083015261246f81612433565b9050919050565b7f4552433732313a20617070726f76652063616c6c6572206973206e6f7420746f60008201527f6b656e206f776e6572206f7220617070726f76656420666f7220616c6c000000602082015250565b60006124d2603d83611da7565b91506124dd82612476565b604082019050919050565b60006020820190508181036000830152612501816124c5565b9050919050565b7f4552433732313a2063616c6c6572206973206e6f7420746f6b656e206f776e6560008201527f72206f7220617070726f76656400000000000000000000000000000000000000602082015250565b6000612564602d83611da7565b915061256f82612508565b604082019050919050565b6000602082019050818103600083015261259381612557565b9050919050565b7f4552433732313a20696e76616c696420746f6b656e2049440000000000000000600082015250565b60006125d0601883611da7565b91506125db8261259a565b602082019050919050565b600060208201905081810360008301526125ff816125c3565b9050919050565b7f4552433732313a2061646472657373207a65726f206973206e6f74206120766160008201527f6c6964206f776e65720000000000000000000000000000000000000000000000602082015250565b6000612662602983611da7565b915061266d82612606565b604082019050919050565b6000602082019050818103600083015261269181612655565b9050919050565b7f4f776e61626c653a206e6577206f776e657220697320746865207a65726f206160008201527f6464726573730000000000000000000000000000000000000000000000000000602082015250565b60006126f4602683611da7565b91506126ff82612698565b604082019050919050565b60006020820190508181036000830152612723816126e7565b9050919050565b7f4552433732313a207472616e736665722066726f6d20696e636f72726563742060008201527f6f776e6572000000000000000000000000000000000000000000000000000000602082015250565b6000612786602583611da7565b91506127918261272a565b604082019050919050565b600060208201905081810360008301526127b581612779565b9050919050565b7f4552433732313a207472616e7366657220746f20746865207a65726f2061646460008201527f7265737300000000000000000000000000000000000000000000000000000000602082015250565b6000612818602483611da7565b9150612823826127bc565b604082019050919050565b600060208201905081810360008301526128478161280b565b9050919050565b7f4f776e61626c653a2063616c6c6572206973206e6f7420746865206f776e6572600082015250565b6000612884602083611da7565b915061288f8261284e565b602082019050919050565b600060208201905081810360008301526128b381612877565b9050919050565b7f4552433732313a20617070726f766520746f2063616c6c657200000000000000600082015250565b60006128f0601983611da7565b91506128fb826128ba565b602082019050919050565b6000602082019050818103600083015261291f816128e3565b9050919050565b7f4552433732313a207472616e7366657220746f206e6f6e20455243373231526560008201527f63656976657220696d706c656d656e7465720000000000000000000000000000602082015250565b6000612982603283611da7565b915061298d82612926565b604082019050919050565b600060208201905081810360008301526129b181612975565b9050919050565b600081905092915050565b60006129ce82611d9c565b6129d881856129b8565b93506129e8818560208601611db8565b80840191505092915050565b6000612a0082856129c3565b9150612a0c82846129c3565b91508190509392505050565b7f45524337323155524953746f726167653a2055524920736574206f66206e6f6e60008201527f6578697374656e7420746f6b656e000000000000000000000000000000000000602082015250565b6000612a74602e83611da7565b9150612a7f82612a18565b604082019050919050565b60006020820190508181036000830152612aa381612a67565b9050919050565b60008190508160005260206000209050919050565b60006020601f8301049050919050565b600082821b905092915050565b600060088302612b0c7fffffffffffffffffffffffffffffffffffffffffffffffffffffffffffffffff82612acf565b612b168683612acf565b95508019841693508086168417925050509392505050565b6000819050919050565b6000612b53612b4e612b4984611e4e565b612b2e565b611e4e565b9050919050565b6000819050919050565b612b6d83612b38565b612b81612b7982612b5a565b848454612adc565b825550505050565b600090565b612b96612b89565b612ba1818484612b64565b505050565b5b81811015612bc557612bba600082612b8e565b600181019050612ba7565b5050565b601f821115612c0a57612bdb81612aaa565b612be484612abf565b81016020851015612bf3578190505b612c07612bff85612abf565b830182612ba6565b50505b505050565b600082821c905092915050565b6000612c2d60001984600802612c0f565b1980831691505092915050565b6000612c468383612c1c565b9150826002028217905092915050565b612c5f82611d9c565b67ffffffffffffffff811115612c7857612c77612099565b5b612c8282546123b3565b612c8d828285612bc9565b600060209050601f831160018114612cc05760008415612cae578287015190505b612cb88582612c3a565b865550612d20565b601f198416612cce86612aaa565b60005b82811015612cf657848901518255600182019150602085019450602081019050612cd1565b86831015612d135784890151612d0f601f891682612c1c565b8355505b6001600288020188555050505b505050505050565b7f4e487b7100000000000000000000000000000000000000000000000000000000600052601160045260246000fd5b6000612d6282611e4e565b9150612d6d83611e4e565b9250828203905081811115612d8557612d84612d28565b5b92915050565b6000612d9682611e4e565b9150612da183611e4e565b9250828201905080821115612db957612db8612d28565b5b92915050565b600081519050919050565b600082825260208201905092915050565b6000612de682612dbf565b612df08185612dca565b9350612e00818560208601611db8565b612e0981611de2565b840191505092915050565b6000608082019050612e296000830187611ee3565b612e366020830186611ee3565b612e436040830185611ff9565b8181036060830152612e558184612ddb565b905095945050505050565b600081519050612e6f81611d0d565b92915050565b600060208284031215612e8b57612e8a611cd7565b5b6000612e9984828501612e60565b91505092915050565b7f4e487b7100000000000000000000000000000000000000000000000000000000600052601260045260246000fd5b7f4552433732313a206d696e7420746f20746865207a65726f2061646472657373600082015250565b6000612f07602083611da7565b9150612f1282612ed1565b602082019050919050565b60006020820190508181036000830152612f3681612efa565b9050919050565b7f4552433732313a20746f6b656e20616c7265616479206d696e74656400000000600082015250565b6000612f73601c83611da7565b9150612f7e82612f3d565b602082019050919050565b60006020820190508181036000830152612fa281612f66565b905091905056fea26469706673582212204fa8e63e60996167b570a29bf7157f27a4872cba21c0290c019dcd2ebd83540c64736f6c6343000810003360806040523480156200001157600080fd5b50604051620030b9380380620030b98339818101604052810190620000379190620004c3565b838381600090816200004a9190620007dd565b5080600190816200005c9190620007dd565b5050506200007f62000073620000ac60201b60201c565b620000b460201b60201c565b8160079081620000909190620007dd565b50620000a2816200017a60201b60201c565b50505050620009df565b600033905090565b6000600660009054906101000a900473ffffffffffffffffffffffffffffffffffffffff16905081600660006101000a81548173ffffffffffffffffffffffffffffffffffffffff021916908373ffffffffffffffffffffffffffffffffffffffff1602179055508173ffffffffffffffffffffffffffffffffffffffff168173ffffffffffffffffffffffffffffffffffffffff167f8be0079c531659141344cd1fd0a4f28419497f9722a3daafe3b4186f6b6457e060405160405180910390a35050565b6200018a6200021060201b60201c565b600073ffffffffffffffffffffffffffffffffffffffff168173ffffffffffffffffffffffffffffffffffffffff1603620001fc576040517f08c379a0000000000000000000000000000000000000000000000000000000008152600401620001f3906200094b565b60405180910390fd5b6200020d81620000b460201b60201c565b50565b62000220620000ac60201b60201c565b73ffffffffffffffffffffffffffffffffffffffff1662000246620002a160201b60201c565b73ffffffffffffffffffffffffffffffffffffffff16146200029f576040517f08c379a00000000000000000000000000000000000000000000000000000000081526004016200029690620009bd565b60405180910390fd5b565b6000600660009054906101000a900473ffffffffffffffffffffffffffffffffffffffff16905090565b6000604051905090565b600080fd5b600080fd5b600080fd5b600080fd5b6000601f19601f8301169050919050565b7f4e487b7100000000000000000000000000000000000000000000000000000000600052604160045260246000fd5b6200033482620002e9565b810181811067ffffffffffffffff82111715620003565762000355620002fa565b5b80604052505050565b60006200036b620002cb565b905062000379828262000329565b919050565b600067ffffffffffffffff8211156200039c576200039b620002fa565b5b620003a782620002e9565b9050602081019050919050565b60005b83811015620003d4578082015181840152602081019050620003b7565b60008484015250505050565b6000620003f7620003f1846200037e565b6200035f565b905082815260208101848484011115620004165762000415620002e4565b5b62000423848285620003b4565b509392505050565b600082601f830112620004435762000442620002df565b5b815162000455848260208601620003e0565b91505092915050565b600073ffffffffffffffffffffffffffffffffffffffff82169050919050565b60006200048b826200045e565b9050919050565b6200049d816200047e565b8114620004a957600080fd5b50565b600081519050620004bd8162000492565b92915050565b60008060008060808587031215620004e057620004df620002d5565b5b600085015167ffffffffffffffff811115620005015762000500620002da565b5b6200050f878288016200042b565b945050602085015167ffffffffffffffff811115620005335762000532620002da565b5b62000541878288016200042b565b935050604085015167ffffffffffffffff811115620005655762000564620002da565b5b62000573878288016200042b565b92505060606200058687828801620004ac565b91505092959194509250565b600081519050919050565b7f4e487b7100000000000000000000000000000000000000000000000000000000600052602260045260246000fd5b60006002820490506001821680620005e557607f821691505b602082108103620005fb57620005fa6200059d565b5b50919050565b60008190508160005260206000209050919050565b60006020601f8301049050919050565b600082821b905092915050565b600060088302620006657fffffffffffffffffffffffffffffffffffffffffffffffffffffffffffffffff8262000626565b62000671868362000626565b95508019841693508086168417925050509392505050565b6000819050919050565b6000819050919050565b6000620006be620006b8620006b28462000689565b62000693565b62000689565b9050919050565b6000819050919050565b620006da836200069d565b620006f2620006e982620006c5565b84845462000633565b825550505050565b600090565b62000709620006fa565b62000716818484620006cf565b505050565b5b818110156200073e5762000732600082620006ff565b6001810190506200071c565b5050565b601f8211156200078d57620007578162000601565b620007628462000616565b8101602085101562000772578190505b6200078a620007818562000616565b8301826200071b565b50505b505050565b600082821c905092915050565b6000620007b26000198460080262000792565b1980831691505092915050565b6000620007cd83836200079f565b9150826002028217905092915050565b620007e88262000592565b67ffffffffffffffff811115620008045762000803620002fa565b5b620008108254620005cc565b6200081d82828562000742565b600060209050601f83116001811462000855576000841562000840578287015190505b6200084c8582620007bf565b865550620008bc565b601f198416620008658662000601565b60005b828110156200088f5784890151825560018201915060208501945060208101905062000868565b86831015620008af5784890151620008ab601f8916826200079f565b8355505b6001600288020188555050505b505050505050565b600082825260208201905092915050565b7f4f776e61626c653a206e6577206f776e657220697320746865207a65726f206160008201527f6464726573730000000000000000000000000000000000000000000000000000602082015250565b600062000933602683620008c4565b91506200094082620008d5565b604082019050919050565b60006020820190508181036000830152620009668162000924565b9050919050565b7f4f776e61626c653a2063616c6c6572206973206e6f7420746865206f776e6572600082015250565b6000620009a5602083620008c4565b9150620009b2826200096d565b602082019050919050565b60006020820190508181036000830152620009d88162000996565b9050919050565b6126ca80620009ef6000396000f3fe608060405234801561001057600080fd5b50600436106101005760003560e01c8063715018a611610097578063b88d4fde11610066578063b88d4fde14610299578063c87b56dd146102b5578063e985e9c5146102e5578063f2fde38b1461031557610100565b8063715018a6146102375780638da5cb5b1461024157806395d89b411461025f578063a22cb4651461027d57610100565b806323b872dd116100d357806323b872dd1461019f57806342842e0e146101bb5780636352211e146101d757806370a082311461020757610100565b806301ffc9a71461010557806306fdde0314610135578063081812fc14610153578063095ea7b314610183575b600080fd5b61011f600480360381019061011a9190611909565b610331565b60405161012c9190611951565b60405180910390f35b61013d610413565b60405161014a91906119fc565b60405180910390f35b61016d60048036038101906101689190611a54565b6104a5565b60405161017a9190611ac2565b60405180910390f35b61019d60048036038101906101989190611b09565b6104eb565b005b6101b960048036038101906101b49190611b49565b610602565b005b6101d560048036038101906101d09190611b49565b610662565b005b6101f160048036038101906101ec9190611a54565b610682565b6040516101fe9190611ac2565b60405180910390f35b610221600480360381019061021c9190611b9c565b610708565b60405161022e9190611bd8565b60405180910390f35b61023f6107bf565b005b6102496107d3565b6040516102569190611ac2565b60405180910390f35b6102676107fd565b60405161027491906119fc565b60405180910390f35b61029760048036038101906102929190611c1f565b61088f565b005b6102b360048036038101906102ae9190611d94565b6108a5565b005b6102cf60048036038101906102ca9190611a54565b610907565b6040516102dc91906119fc565b60405180910390f35b6102ff60048036038101906102fa9190611e17565b61096f565b60405161030c9190611951565b60405180910390f35b61032f600480360381019061032a9190611b9c565b610a03565b005b60007f80ac58cd000000000000000000000000000000000000000000000000000000007bffffffffffffffffffffffffffffffffffffffffffffffffffffffff1916827bffffffffffffffffffffffffffffffffffffffffffffffffffffffff191614806103fc57507f5b5e139f000000000000000000000000000000000000000000000000000000007bffffffffffffffffffffffffffffffffffffffffffffffffffffffff1916827bffffffffffffffffffffffffffffffffffffffffffffffffffffffff1916145b8061040c575061040b82610a86565b5b9050919050565b60606000805461042290611e86565b80601f016020809104026020016040519081016040528092919081815260200182805461044e90611e86565b801561049b5780601f106104705761010080835404028352916020019161049b565b820191906000526020600020905b81548152906001019060200180831161047e57829003601f168201915b5050505050905090565b60006104b082610af0565b6004600083815260200190815260200160002060009054906101000a900473ffffffffffffffffffffffffffffffffffffffff169050919050565b60006104f682610682565b90508073ffffffffffffffffffffffffffffffffffffffff168373ffffffffffffffffffffffffffffffffffffffff1603610566576040517f08c379a000000000000000000000000000000000000000000000000000000000815260040161055d90611f29565b60405180910390fd5b8073ffffffffffffffffffffffffffffffffffffffff16610585610b3b565b73ffffffffffffffffffffffffffffffffffffffff1614806105b457506105b3816105ae610b3b565b61096f565b5b6105f3576040517f08c379a00000000000000000000000000000000000000000000000000000000081526004016105ea90611fbb565b60405180910390fd5b6105fd8383610b43565b505050565b61061361060d610b3b565b82610bfc565b610652576040517f08c379a00000000000000000000000000000000000000000000000000000000081526004016106499061204d565b60405180910390fd5b61065d838383610c91565b505050565b61067d838383604051806020016040528060008152506108a5565b505050565b60008061068e83610f8a565b9050600073ffffffffffffffffffffffffffffffffffffffff168173ffffffffffffffffffffffffffffffffffffffff16036106ff576040517f08c379a00000000000000000000000000000000000000000000000000000000081526004016106f6906120b9565b60405180910390fd5b80915050919050565b60008073ffffffffffffffffffffffffffffffffffffffff168273ffffffffffffffffffffffffffffffffffffffff1603610778576040517f08c379a000000000000000000000000000000000000000000000000000000000815260040161076f9061214b565b60405180910390fd5b600360008373ffffffffffffffffffffffffffffffffffffffff1673ffffffffffffffffffffffffffffffffffffffff168152602001908152602001600020549050919050565b6107c7610fc7565b6107d16000611045565b565b6000600660009054906101000a900473ffffffffffffffffffffffffffffffffffffffff16905090565b60606001805461080c90611e86565b80601f016020809104026020016040519081016040528092919081815260200182805461083890611e86565b80156108855780601f1061085a57610100808354040283529160200191610885565b820191906000526020600020905b81548152906001019060200180831161086857829003601f168201915b5050505050905090565b6108a161089a610b3b565b838361110b565b5050565b6108b66108b0610b3b565b83610bfc565b6108f5576040517f08c379a00000000000000000000000000000000000000000000000000000000081526004016108ec9061204d565b60405180910390fd5b61090184848484611277565b50505050565b606061091282610af0565b600061091c6112d3565b9050600081511161093c5760405180602001604052806000815250610967565b8061094684611365565b6040516020016109579291906121a7565b6040516020818303038152906040525b915050919050565b6000600560008473ffffffffffffffffffffffffffffffffffffffff1673ffffffffffffffffffffffffffffffffffffffff16815260200190815260200160002060008373ffffffffffffffffffffffffffffffffffffffff1673ffffffffffffffffffffffffffffffffffffffff16815260200190815260200160002060009054906101000a900460ff16905092915050565b610a0b610fc7565b600073ffffffffffffffffffffffffffffffffffffffff168173ffffffffffffffffffffffffffffffffffffffff1603610a7a576040517f08c379a0000000000000000000000000000000000000000000000000000000008152600401610a719061223d565b60405180910390fd5b610a8381611045565b50565b60007f01ffc9a7000000000000000000000000000000000000000000000000000000007bffffffffffffffffffffffffffffffffffffffffffffffffffffffff1916827bffffffffffffffffffffffffffffffffffffffffffffffffffffffff1916149050919050565b610af981611433565b610b38576040517f08c379a0000000000000000000000000000000000000000000000000000000008152600401610b2f906120b9565b60405180910390fd5b50565b600033905090565b816004600083815260200190815260200160002060006101000a81548173ffffffffffffffffffffffffffffffffffffffff021916908373ffffffffffffffffffffffffffffffffffffffff160217905550808273ffffffffffffffffffffffffffffffffffffffff16610bb683610682565b73ffffffffffffffffffffffffffffffffffffffff167f8c5be1e5ebec7d5bd14f71427d1e84f3dd0314c0f7b2291e5b200ac8c7c3b92560405160405180910390a45050565b600080610c0883610682565b90508073ffffffffffffffffffffffffffffffffffffffff168473ffffffffffffffffffffffffffffffffffffffff161480610c4a5750610c49818561096f565b5b80610c8857508373ffffffffffffffffffffffffffffffffffffffff16610c70846104a5565b73ffffffffffffffffffffffffffffffffffffffff16145b91505092915050565b8273ffffffffffffffffffffffffffffffffffffffff16610cb182610682565b73ffffffffffffffffffffffffffffffffffffffff1614610d07576040517f08c379a0000000000000000000000000000000000000000000000000000000008152600401610cfe906122cf565b60405180910390fd5b600073ffffffffffffffffffffffffffffffffffffffff168273ffffffffffffffffffffffffffffffffffffffff1603610d76576040517f08c379a0000000000000000000000000000000000000000000000000000000008152600401610d6d90612361565b60405180910390fd5b610d838383836001611474565b8273ffffffffffffffffffffffffffffffffffffffff16610da382610682565b73ffffffffffffffffffffffffffffffffffffffff1614610df9576040517f08c379a0000000000000000000000000000000000000000000000000000000008152600401610df0906122cf565b60405180910390fd5b6004600082815260200190815260200160002060006101000a81549073ffffffffffffffffffffffffffffffffffffffff02191690556001600360008573ffffffffffffffffffffffffffffffffffffffff1673ffffffffffffffffffffffffffffffffffffffff168152602001908152602001600020600082825403925050819055506001600360008473ffffffffffffffffffffffffffffffffffffffff1673ffffffffffffffffffffffffffffffffffffffff16815260200190815260200160002060008282540192505081905550816002600083815260200190815260200160002060006101000a81548173ffffffffffffffffffffffffffffffffffffffff021916908373ffffffffffffffffffffffffffffffffffffffff160217905550808273ffffffffffffffffffffffffffffffffffffffff168473ffffffffffffffffffffffffffffffffffffffff167fddf252ad1be2c89b69c2b068fc378daa952ba7f163c4a11628f55a4df523b3ef60405160405180910390a4610f85838383600161159a565b505050565b60006002600083815260200190815260200160002060009054906101000a900473ffffffffffffffffffffffffffffffffffffffff169050919050565b610fcf610b3b565b73ffffffffffffffffffffffffffffffffffffffff16610fed6107d3565b73ffffffffffffffffffffffffffffffffffffffff1614611043576040517f08c379a000000000000000000000000000000000000000000000000000000000815260040161103a906123cd565b60405180910390fd5b565b6000600660009054906101000a900473ffffffffffffffffffffffffffffffffffffffff16905081600660006101000a81548173ffffffffffffffffffffffffffffffffffffffff021916908373ffffffffffffffffffffffffffffffffffffffff1602179055508173ffffffffffffffffffffffffffffffffffffffff168173ffffffffffffffffffffffffffffffffffffffff167f8be0079c531659141344cd1fd0a4f28419497f9722a3daafe3b4186f6b6457e060405160405180910390a35050565b8173ffffffffffffffffffffffffffffffffffffffff168373ffffffffffffffffffffffffffffffffffffffff1603611179576040517f08c379a000000000000000000000000000000000000000000000000000000000815260040161117090612439565b60405180910390fd5b80600560008573ffffffffffffffffffffffffffffffffffffffff1673ffffffffffffffffffffffffffffffffffffffff16815260200190815260200160002060008473ffffffffffffffffffffffffffffffffffffffff1673ffffffffffffffffffffffffffffffffffffffff16815260200190815260200160002060006101000a81548160ff0219169083151502179055508173ffffffffffffffffffffffffffffffffffffffff168373ffffffffffffffffffffffffffffffffffffffff167f17307eab39ab6107e8899845ad3d59bd9653f200f220920489ca2b5937696c318360405161126a9190611951565b60405180910390a3505050565b611282848484610c91565b61128e848484846115a0565b6112cd576040517f08c379a00000000000000000000000000000000000000000000000000000000081526004016112c4906124cb565b60405180910390fd5b50505050565b6060600780546112e290611e86565b80601f016020809104026020016040519081016040528092919081815260200182805461130e90611e86565b801561135b5780601f106113305761010080835404028352916020019161135b565b820191906000526020600020905b81548152906001019060200180831161133e57829003601f168201915b5050505050905090565b60606000600161137484611727565b01905060008167ffffffffffffffff81111561139357611392611c69565b5b6040519080825280601f01601f1916602001820160405280156113c55781602001600182028036833780820191505090505b509050600082602001820190505b600115611428578080600190039150507f3031323334353637383961626364656600000000000000000000000000000000600a86061a8153600a858161141c5761141b6124eb565b5b049450600085036113d3575b819350505050919050565b60008073ffffffffffffffffffffffffffffffffffffffff1661145583610f8a565b73ffffffffffffffffffffffffffffffffffffffff1614159050919050565b600181111561159457600073ffffffffffffffffffffffffffffffffffffffff168473ffffffffffffffffffffffffffffffffffffffff16146115085780600360008673ffffffffffffffffffffffffffffffffffffffff1673ffffffffffffffffffffffffffffffffffffffff16815260200190815260200160002060008282546115009190612549565b925050819055505b600073ffffffffffffffffffffffffffffffffffffffff168373ffffffffffffffffffffffffffffffffffffffff16146115935780600360008573ffffffffffffffffffffffffffffffffffffffff1673ffffffffffffffffffffffffffffffffffffffff168152602001908152602001600020600082825461158b919061257d565b925050819055505b5b50505050565b50505050565b60006115c18473ffffffffffffffffffffffffffffffffffffffff1661187a565b1561171a578373ffffffffffffffffffffffffffffffffffffffff1663150b7a026115ea610b3b565b8786866040518563ffffffff1660e01b815260040161160c9493929190612606565b6020604051808303816000875af192505050801561164857506040513d601f19601f820116820180604052508101906116459190612667565b60015b6116ca573d8060008114611678576040519150601f19603f3d011682016040523d82523d6000602084013e61167d565b606091505b5060008151036116c2576040517f08c379a00000000000000000000000000000000000000000000000000000000081526004016116b9906124cb565b60405180910390fd5b805181602001fd5b63150b7a0260e01b7bffffffffffffffffffffffffffffffffffffffffffffffffffffffff1916817bffffffffffffffffffffffffffffffffffffffffffffffffffffffff19161491505061171f565b600190505b949350505050565b600080600090507a184f03e93ff9f4daa797ed6e38ed64bf6a1f0100000000000000008310611785577a184f03e93ff9f4daa797ed6e38ed64bf6a1f010000000000000000838161177b5761177a6124eb565b5b0492506040810190505b6d04ee2d6d415b85acef810000000083106117c2576d04ee2d6d415b85acef810000000083816117b8576117b76124eb565b5b0492506020810190505b662386f26fc1000083106117f157662386f26fc1000083816117e7576117e66124eb565b5b0492506010810190505b6305f5e100831061181a576305f5e10083816118105761180f6124eb565b5b0492506008810190505b612710831061183f576127108381611835576118346124eb565b5b0492506004810190505b606483106118625760648381611858576118576124eb565b5b0492506002810190505b600a8310611871576001810190505b80915050919050565b6000808273ffffffffffffffffffffffffffffffffffffffff163b119050919050565b6000604051905090565b600080fd5b600080fd5b60007fffffffff0000000000000000000000000000000000000000000000000000000082169050919050565b6118e6816118b1565b81146118f157600080fd5b50565b600081359050611903816118dd565b92915050565b60006020828403121561191f5761191e6118a7565b5b600061192d848285016118f4565b91505092915050565b60008115159050919050565b61194b81611936565b82525050565b60006020820190506119666000830184611942565b92915050565b600081519050919050565b600082825260208201905092915050565b60005b838110156119a657808201518184015260208101905061198b565b60008484015250505050565b6000601f19601f8301169050919050565b60006119ce8261196c565b6119d88185611977565b93506119e8818560208601611988565b6119f1816119b2565b840191505092915050565b60006020820190508181036000830152611a1681846119c3565b905092915050565b6000819050919050565b611a3181611a1e565b8114611a3c57600080fd5b50565b600081359050611a4e81611a28565b92915050565b600060208284031215611a6a57611a696118a7565b5b6000611a7884828501611a3f565b91505092915050565b600073ffffffffffffffffffffffffffffffffffffffff82169050919050565b6000611aac82611a81565b9050919050565b611abc81611aa1565b82525050565b6000602082019050611ad76000830184611ab3565b92915050565b611ae681611aa1565b8114611af157600080fd5b50565b600081359050611b0381611add565b92915050565b60008060408385031215611b2057611b1f6118a7565b5b6000611b2e85828601611af4565b9250506020611b3f85828601611a3f565b9150509250929050565b600080600060608486031215611b6257611b616118a7565b5b6000611b7086828701611af4565b9350506020611b8186828701611af4565b9250506040611b9286828701611a3f565b9150509250925092565b600060208284031215611bb257611bb16118a7565b5b6000611bc084828501611af4565b91505092915050565b611bd281611a1e565b82525050565b6000602082019050611bed6000830184611bc9565b92915050565b611bfc81611936565b8114611c0757600080fd5b50565b600081359050611c1981611bf3565b92915050565b60008060408385031215611c3657611c356118a7565b5b6000611c4485828601611af4565b9250506020611c5585828601611c0a565b9150509250929050565b600080fd5b600080fd5b7f4e487b7100000000000000000000000000000000000000000000000000000000600052604160045260246000fd5b611ca1826119b2565b810181811067ffffffffffffffff82111715611cc057611cbf611c69565b5b80604052505050565b6000611cd361189d565b9050611cdf8282611c98565b919050565b600067ffffffffffffffff821115611cff57611cfe611c69565b5b611d08826119b2565b9050602081019050919050565b82818337600083830152505050565b6000611d37611d3284611ce4565b611cc9565b905082815260208101848484011115611d5357611d52611c64565b5b611d5e848285611d15565b509392505050565b600082601f830112611d7b57611d7a611c5f565b5b8135611d8b848260208601611d24565b91505092915050565b60008060008060808587031215611dae57611dad6118a7565b5b6000611dbc87828801611af4565b9450506020611dcd87828801611af4565b9350506040611dde87828801611a3f565b925050606085013567ffffffffffffffff811115611dff57611dfe6118ac565b5b611e0b87828801611d66565b91505092959194509250565b60008060408385031215611e2e57611e2d6118a7565b5b6000611e3c85828601611af4565b9250506020611e4d85828601611af4565b9150509250929050565b7f4e487b7100000000000000000000000000000000000000000000000000000000600052602260045260246000fd5b60006002820490506001821680611e9e57607f821691505b602082108103611eb157611eb0611e57565b5b50919050565b7f4552433732313a20617070726f76616c20746f2063757272656e74206f776e6560008201527f7200000000000000000000000000000000000000000000000000000000000000602082015250565b6000611f13602183611977565b9150611f1e82611eb7565b604082019050919050565b60006020820190508181036000830152611f4281611f06565b9050919050565b7f4552433732313a20617070726f76652063616c6c6572206973206e6f7420746f60008201527f6b656e206f776e6572206f7220617070726f76656420666f7220616c6c000000602082015250565b6000611fa5603d83611977565b9150611fb082611f49565b604082019050919050565b60006020820190508181036000830152611fd481611f98565b9050919050565b7f4552433732313a2063616c6c6572206973206e6f7420746f6b656e206f776e6560008201527f72206f7220617070726f76656400000000000000000000000000000000000000602082015250565b6000612037602d83611977565b915061204282611fdb565b604082019050919050565b600060208201905081810360008301526120668161202a565b9050919050565b7f4552433732313a20696e76616c696420746f6b656e2049440000000000000000600082015250565b60006120a3601883611977565b91506120ae8261206d565b602082019050919050565b600060208201905081810360008301526120d281612096565b9050919050565b7f4552433732313a2061646472657373207a65726f206973206e6f74206120766160008201527f6c6964206f776e65720000000000000000000000000000000000000000000000602082015250565b6000612135602983611977565b9150612140826120d9565b604082019050919050565b6000602082019050818103600083015261216481612128565b9050919050565b600081905092915050565b60006121818261196c565b61218b818561216b565b935061219b818560208601611988565b80840191505092915050565b60006121b38285612176565b91506121bf8284612176565b91508190509392505050565b7f4f776e61626c653a206e6577206f776e657220697320746865207a65726f206160008201527f6464726573730000000000000000000000000000000000000000000000000000602082015250565b6000612227602683611977565b9150612232826121cb565b604082019050919050565b600060208201905081810360008301526122568161221a565b9050919050565b7f4552433732313a207472616e736665722066726f6d20696e636f72726563742060008201527f6f776e6572000000000000000000000000000000000000000000000000000000602082015250565b60006122b9602583611977565b91506122c48261225d565b604082019050919050565b600060208201905081810360008301526122e8816122ac565b9050919050565b7f4552433732313a207472616e7366657220746f20746865207a65726f2061646460008201527f7265737300000000000000000000000000000000000000000000000000000000602082015250565b600061234b602483611977565b9150612356826122ef565b604082019050919050565b6000602082019050818103600083015261237a8161233e565b9050919050565b7f4f776e61626c653a2063616c6c6572206973206e6f7420746865206f776e6572600082015250565b60006123b7602083611977565b91506123c282612381565b602082019050919050565b600060208201905081810360008301526123e6816123aa565b9050919050565b7f4552433732313a20617070726f766520746f2063616c6c657200000000000000600082015250565b6000612423601983611977565b915061242e826123ed565b602082019050919050565b6000602082019050818103600083015261245281612416565b9050919050565b7f4552433732313a207472616e7366657220746f206e6f6e20455243373231526560008201527f63656976657220696d706c656d656e7465720000000000000000000000000000602082015250565b60006124b5603283611977565b91506124c082612459565b604082019050919050565b600060208201905081810360008301526124e4816124a8565b9050919050565b7f4e487b7100000000000000000000000000000000000000000000000000000000600052601260045260246000fd5b7f4e487b7100000000000000000000000000000000000000000000000000000000600052601160045260246000fd5b600061255482611a1e565b915061255f83611a1e565b92508282039050818111156125775761257661251a565b5b92915050565b600061258882611a1e565b915061259383611a1e565b92508282019050808211156125ab576125aa61251a565b5b92915050565b600081519050919050565b600082825260208201905092915050565b60006125d8826125b1565b6125e281856125bc565b93506125f2818560208601611988565b6125fb816119b2565b840191505092915050565b600060808201905061261b6000830187611ab3565b6126286020830186611ab3565b6126356040830185611bc9565b818103606083015261264781846125cd565b905095945050505050565b600081519050612661816118dd565b92915050565b60006020828403121561267d5761267c6118a7565b5b600061268b84828501612652565b9150509291505056fea26469706673582212202cb75ce0d27745b9a6a2ca6f36c40517e1a6ad24ef4f01208e5da4be5d1a930b64736f6c6343000810003360806040523480156200001157600080fd5b5060405162003986380380620039868339818101604052810190620000379190620004b0565b828281600090816200004a919062000795565b5080600190816200005c919062000795565b5050506200007f620000736200009960201b60201c565b620000a160201b60201c565b62000090816200016760201b60201c565b50505062000997565b600033905090565b6000600760009054906101000a900473ffffffffffffffffffffffffffffffffffffffff16905081600760006101000a81548173ffffffffffffffffffffffffffffffffffffffff021916908373ffffffffffffffffffffffffffffffffffffffff1602179055508173ffffffffffffffffffffffffffffffffffffffff168173ffffffffffffffffffffffffffffffffffffffff167f8be0079c531659141344cd1fd0a4f28419497f9722a3daafe3b4186f6b6457e060405160405180910390a35050565b62000177620001fd60201b60201c565b600073ffffffffffffffffffffffffffffffffffffffff168173ffffffffffffffffffffffffffffffffffffffff1603620001e9576040517f08c379a0000000000000000000000000000000000000000000000000000000008152600401620001e09062000903565b60405180910390fd5b620001fa81620000a160201b60201c565b50565b6200020d6200009960201b60201c565b73ffffffffffffffffffffffffffffffffffffffff16620002336200028e60201b60201c565b73ffffffffffffffffffffffffffffffffffffffff16146200028c576040517f08c379a0000000000000000000000000000000000000000000000000000000008152600401620002839062000975565b60405180910390fd5b565b6000600760009054906101000a900473ffffffffffffffffffffffffffffffffffffffff16905090565b6000604051905090565b600080fd5b600080fd5b600080fd5b600080fd5b6000601f19601f8301169050919050565b7f4e487b7100000000000000000000000000000000000000000000000000000000600052604160045260246000fd5b6200032182620002d6565b810181811067ffffffffffffffff82111715620003435762000342620002e7565b5b80604052505050565b600062000358620002b8565b905062000366828262000316565b919050565b600067ffffffffffffffff821115620003895762000388620002e7565b5b6200039482620002d6565b9050602081019050919050565b60005b83811015620003c1578082015181840152602081019050620003a4565b60008484015250505050565b6000620003e4620003de846200036b565b6200034c565b905082815260208101848484011115620004035762000402620002d1565b5b62000410848285620003a1565b509392505050565b600082601f83011262000430576200042f620002cc565b5b815162000442848260208601620003cd565b91505092915050565b600073ffffffffffffffffffffffffffffffffffffffff82169050919050565b600062000478826200044b565b9050919050565b6200048a816200046b565b81146200049657600080fd5b50565b600081519050620004aa816200047f565b92915050565b600080600060608486031215620004cc57620004cb620002c2565b5b600084015167ffffffffffffffff811115620004ed57620004ec620002c7565b5b620004fb8682870162000418565b935050602084015167ffffffffffffffff8111156200051f576200051e620002c7565b5b6200052d8682870162000418565b9250506040620005408682870162000499565b9150509250925092565b600081519050919050565b7f4e487b7100000000000000000000000000000000000000000000000000000000600052602260045260246000fd5b600060028204905060018216806200059d57607f821691505b602082108103620005b357620005b262000555565b5b50919050565b60008190508160005260206000209050919050565b60006020601f8301049050919050565b600082821b905092915050565b6000600883026200061d7fffffffffffffffffffffffffffffffffffffffffffffffffffffffffffffffff82620005de565b620006298683620005de565b95508019841693508086168417925050509392505050565b6000819050919050565b6000819050919050565b600062000676620006706200066a8462000641565b6200064b565b62000641565b9050919050565b6000819050919050565b620006928362000655565b620006aa620006a1826200067d565b848454620005eb565b825550505050565b600090565b620006c1620006b2565b620006ce81848462000687565b505050565b5b81811015620006f657620006ea600082620006b7565b600181019050620006d4565b5050565b601f82111562000745576200070f81620005b9565b6200071a84620005ce565b810160208510156200072a578190505b620007426200073985620005ce565b830182620006d3565b50505b505050565b600082821c905092915050565b60006200076a600019846008026200074a565b1980831691505092915050565b600062000785838362000757565b9150826002028217905092915050565b620007a0826200054a565b67ffffffffffffffff811115620007bc57620007bb620002e7565b5b620007c8825462000584565b620007d5828285620006fa565b600060209050601f8311600181146200080d5760008415620007f8578287015190505b62000804858262000777565b86555062000874565b601f1984166200081d86620005b9565b60005b82811015620008475784890151825560018201915060208501945060208101905062000820565b8683101562000867578489015162000863601f89168262000757565b8355505b6001600288020188555050505b505050505050565b600082825260208201905092915050565b7f4f776e61626c653a206e6577206f776e657220697320746865207a65726f206160008201527f6464726573730000000000000000000000000000000000000000000000000000602082015250565b6000620008eb6026836200087c565b9150620008f8826200088d565b604082019050919050565b600060208201905081810360008301526200091e81620008dc565b9050919050565b7f4f776e61626c653a2063616c6c6572206973206e6f7420746865206f776e6572600082015250565b60006200095d6020836200087c565b91506200096a8262000925565b602082019050919050565b6000602082019050818103600083015262000990816200094e565b9050919050565b612fdf80620009a76000396000f3fe608060405234801561001057600080fd5b506004361061010b5760003560e01c8063715018a6116100a2578063b88d4fde11610071578063b88d4fde146102a4578063c87b56dd146102c0578063d204c45e146102f0578063e985e9c51461030c578063f2fde38b1461033c5761010b565b8063715018a6146102425780638da5cb5b1461024c57806395d89b411461026a578063a22cb465146102885761010b565b806323b872dd116100de57806323b872dd146101aa57806342842e0e146101c65780636352211e146101e257806370a08231146102125761010b565b806301ffc9a71461011057806306fdde0314610140578063081812fc1461015e578063095ea7b31461018e575b600080fd5b61012a60048036038101906101259190611d39565b610358565b6040516101379190611d81565b60405180910390f35b61014861043a565b6040516101559190611e2c565b60405180910390f35b61017860048036038101906101739190611e84565b6104cc565b6040516101859190611ef2565b60405180910390f35b6101a860048036038101906101a39190611f39565b610512565b005b6101c460048036038101906101bf9190611f79565b610629565b005b6101e060048036038101906101db9190611f79565b610689565b005b6101fc60048036038101906101f79190611e84565b6106a9565b6040516102099190611ef2565b60405180910390f35b61022c60048036038101906102279190611fcc565b61072f565b6040516102399190612008565b60405180910390f35b61024a6107e6565b005b6102546107fa565b6040516102619190611ef2565b60405180910390f35b610272610824565b60405161027f9190611e2c565b60405180910390f35b6102a2600480360381019061029d919061204f565b6108b6565b005b6102be60048036038101906102b991906121c4565b6108cc565b005b6102da60048036038101906102d59190611e84565b61092e565b6040516102e79190611e2c565b60405180910390f35b61030a600480360381019061030591906122e8565b610940565b005b61032660048036038101906103219190612344565b610979565b6040516103339190611d81565b60405180910390f35b61035660048036038101906103519190611fcc565b610a0d565b005b60007f80ac58cd000000000000000000000000000000000000000000000000000000007bffffffffffffffffffffffffffffffffffffffffffffffffffffffff1916827bffffffffffffffffffffffffffffffffffffffffffffffffffffffff1916148061042357507f5b5e139f000000000000000000000000000000000000000000000000000000007bffffffffffffffffffffffffffffffffffffffffffffffffffffffff1916827bffffffffffffffffffffffffffffffffffffffffffffffffffffffff1916145b80610433575061043282610a90565b5b9050919050565b606060008054610449906123b3565b80601f0160208091040260200160405190810160405280929190818152602001828054610475906123b3565b80156104c25780601f10610497576101008083540402835291602001916104c2565b820191906000526020600020905b8154815290600101906020018083116104a557829003601f168201915b5050505050905090565b60006104d782610afa565b6004600083815260200190815260200160002060009054906101000a900473ffffffffffffffffffffffffffffffffffffffff169050919050565b600061051d826106a9565b90508073ffffffffffffffffffffffffffffffffffffffff168373ffffffffffffffffffffffffffffffffffffffff160361058d576040517f08c379a000000000000000000000000000000000000000000000000000000000815260040161058490612456565b60405180910390fd5b8073ffffffffffffffffffffffffffffffffffffffff166105ac610b45565b73ffffffffffffffffffffffffffffffffffffffff1614806105db57506105da816105d5610b45565b610979565b5b61061a576040517f08c379a0000000000000000000000000000000000000000000000000000000008152600401610611906124e8565b60405180910390fd5b6106248383610b4d565b505050565b61063a610634610b45565b82610c06565b610679576040517f08c379a00000000000000000000000000000000000000000000000000000000081526004016106709061257a565b60405180910390fd5b610684838383610c9b565b505050565b6106a4838383604051806020016040528060008152506108cc565b505050565b6000806106b583610f94565b9050600073ffffffffffffffffffffffffffffffffffffffff168173ffffffffffffffffffffffffffffffffffffffff1603610726576040517f08c379a000000000000000000000000000000000000000000000000000000000815260040161071d906125e6565b60405180910390fd5b80915050919050565b60008073ffffffffffffffffffffffffffffffffffffffff168273ffffffffffffffffffffffffffffffffffffffff160361079f576040517f08c379a000000000000000000000000000000000000000000000000000000000815260040161079690612678565b60405180910390fd5b600360008373ffffffffffffffffffffffffffffffffffffffff1673ffffffffffffffffffffffffffffffffffffffff168152602001908152602001600020549050919050565b6107ee610fd1565b6107f8600061104f565b565b6000600760009054906101000a900473ffffffffffffffffffffffffffffffffffffffff16905090565b606060018054610833906123b3565b80601f016020809104026020016040519081016040528092919081815260200182805461085f906123b3565b80156108ac5780601f10610881576101008083540402835291602001916108ac565b820191906000526020600020905b81548152906001019060200180831161088f57829003601f168201915b5050505050905090565b6108c86108c1610b45565b8383611115565b5050565b6108dd6108d7610b45565b83610c06565b61091c576040517f08c379a00000000000000000000000000000000000000000000000000000000081526004016109139061257a565b60405180910390fd5b61092884848484611281565b50505050565b6060610939826112dd565b9050919050565b610948610fd1565b600061095460086113ef565b905061096060086113fd565b61096a8382611413565b6109748183611431565b505050565b6000600560008473ffffffffffffffffffffffffffffffffffffffff1673ffffffffffffffffffffffffffffffffffffffff16815260200190815260200160002060008373ffffffffffffffffffffffffffffffffffffffff1673ffffffffffffffffffffffffffffffffffffffff16815260200190815260200160002060009054906101000a900460ff16905092915050565b610a15610fd1565b600073ffffffffffffffffffffffffffffffffffffffff168173ffffffffffffffffffffffffffffffffffffffff1603610a84576040517f08c379a0000000000000000000000000000000000000000000000000000000008152600401610a7b9061270a565b60405180910390fd5b610a8d8161104f565b50565b60007f01ffc9a7000000000000000000000000000000000000000000000000000000007bffffffffffffffffffffffffffffffffffffffffffffffffffffffff1916827bffffffffffffffffffffffffffffffffffffffffffffffffffffffff1916149050919050565b610b038161149e565b610b42576040517f08c379a0000000000000000000000000000000000000000000000000000000008152600401610b39906125e6565b60405180910390fd5b50565b600033905090565b816004600083815260200190815260200160002060006101000a81548173ffffffffffffffffffffffffffffffffffffffff021916908373ffffffffffffffffffffffffffffffffffffffff160217905550808273ffffffffffffffffffffffffffffffffffffffff16610bc0836106a9565b73ffffffffffffffffffffffffffffffffffffffff167f8c5be1e5ebec7d5bd14f71427d1e84f3dd0314c0f7b2291e5b200ac8c7c3b92560405160405180910390a45050565b600080610c12836106a9565b90508073ffffffffffffffffffffffffffffffffffffffff168473ffffffffffffffffffffffffffffffffffffffff161480610c545750610c538185610979565b5b80610c9257508373ffffffffffffffffffffffffffffffffffffffff16610c7a846104cc565b73ffffffffffffffffffffffffffffffffffffffff16145b91505092915050565b8273ffffffffffffffffffffffffffffffffffffffff16610cbb826106a9565b73ffffffffffffffffffffffffffffffffffffffff1614610d11576040517f08c379a0000000000000000000000000000000000000000000000000000000008152600401610d089061279c565b60405180910390fd5b600073ffffffffffffffffffffffffffffffffffffffff168273ffffffffffffffffffffffffffffffffffffffff1603610d80576040517f08c379a0000000000000000000000000000000000000000000000000000000008152600401610d779061282e565b60405180910390fd5b610d8d83838360016114df565b8273ffffffffffffffffffffffffffffffffffffffff16610dad826106a9565b73ffffffffffffffffffffffffffffffffffffffff1614610e03576040517f08c379a0000000000000000000000000000000000000000000000000000000008152600401610dfa9061279c565b60405180910390fd5b6004600082815260200190815260200160002060006101000a81549073ffffffffffffffffffffffffffffffffffffffff02191690556001600360008573ffffffffffffffffffffffffffffffffffffffff1673ffffffffffffffffffffffffffffffffffffffff168152602001908152602001600020600082825403925050819055506001600360008473ffffffffffffffffffffffffffffffffffffffff1673ffffffffffffffffffffffffffffffffffffffff16815260200190815260200160002060008282540192505081905550816002600083815260200190815260200160002060006101000a81548173ffffffffffffffffffffffffffffffffffffffff021916908373ffffffffffffffffffffffffffffffffffffffff160217905550808273ffffffffffffffffffffffffffffffffffffffff168473ffffffffffffffffffffffffffffffffffffffff167fddf252ad1be2c89b69c2b068fc378daa952ba7f163c4a11628f55a4df523b3ef60405160405180910390a4610f8f8383836001611605565b505050565b60006002600083815260200190815260200160002060009054906101000a900473ffffffffffffffffffffffffffffffffffffffff169050919050565b610fd9610b45565b73ffffffffffffffffffffffffffffffffffffffff16610ff76107fa565b73ffffffffffffffffffffffffffffffffffffffff161461104d576040517f08c379a00000000000000000000000000000000000000000000000000000000081526004016110449061289a565b60405180910390fd5b565b6000600760009054906101000a900473ffffffffffffffffffffffffffffffffffffffff16905081600760006101000a81548173ffffffffffffffffffffffffffffffffffffffff021916908373ffffffffffffffffffffffffffffffffffffffff1602179055508173ffffffffffffffffffffffffffffffffffffffff168173ffffffffffffffffffffffffffffffffffffffff167f8be0079c531659141344cd1fd0a4f28419497f9722a3daafe3b4186f6b6457e060405160405180910390a35050565b8173ffffffffffffffffffffffffffffffffffffffff168373ffffffffffffffffffffffffffffffffffffffff1603611183576040517f08c379a000000000000000000000000000000000000000000000000000000000815260040161117a90612906565b60405180910390fd5b80600560008573ffffffffffffffffffffffffffffffffffffffff1673ffffffffffffffffffffffffffffffffffffffff16815260200190815260200160002060008473ffffffffffffffffffffffffffffffffffffffff1673ffffffffffffffffffffffffffffffffffffffff16815260200190815260200160002060006101000a81548160ff0219169083151502179055508173ffffffffffffffffffffffffffffffffffffffff168373ffffffffffffffffffffffffffffffffffffffff167f17307eab39ab6107e8899845ad3d59bd9653f200f220920489ca2b5937696c31836040516112749190611d81565b60405180910390a3505050565b61128c848484610c9b565b6112988484848461160b565b6112d7576040517f08c379a00000000000000000000000000000000000000000000000000000000081526004016112ce90612998565b60405180910390fd5b50505050565b60606112e882610afa565b6000600660008481526020019081526020016000208054611308906123b3565b80601f0160208091040260200160405190810160405280929190818152602001828054611334906123b3565b80156113815780601f1061135657610100808354040283529160200191611381565b820191906000526020600020905b81548152906001019060200180831161136457829003601f168201915b505050505090506000611392611792565b905060008151036113a75781925050506113ea565b6000825111156113dc5780826040516020016113c49291906129f4565b604051602081830303815290604052925050506113ea565b6113e5846117a9565b925050505b919050565b600081600001549050919050565b6001816000016000828254019250508190555050565b61142d828260405180602001604052806000815250611811565b5050565b61143a8261149e565b611479576040517f08c379a000000000000000000000000000000000000000000000000000000000815260040161147090612a8a565b60405180910390fd5b806006600084815260200190815260200160002090816114999190612c56565b505050565b60008073ffffffffffffffffffffffffffffffffffffffff166114c083610f94565b73ffffffffffffffffffffffffffffffffffffffff1614159050919050565b60018111156115ff57600073ffffffffffffffffffffffffffffffffffffffff168473ffffffffffffffffffffffffffffffffffffffff16146115735780600360008673ffffffffffffffffffffffffffffffffffffffff1673ffffffffffffffffffffffffffffffffffffffff168152602001908152602001600020600082825461156b9190612d57565b925050819055505b600073ffffffffffffffffffffffffffffffffffffffff168373ffffffffffffffffffffffffffffffffffffffff16146115fe5780600360008573ffffffffffffffffffffffffffffffffffffffff1673ffffffffffffffffffffffffffffffffffffffff16815260200190815260200160002060008282546115f69190612d8b565b925050819055505b5b50505050565b50505050565b600061162c8473ffffffffffffffffffffffffffffffffffffffff1661186c565b15611785578373ffffffffffffffffffffffffffffffffffffffff1663150b7a02611655610b45565b8786866040518563ffffffff1660e01b81526004016116779493929190612e14565b6020604051808303816000875af19250505080156116b357506040513d601f19601f820116820180604052508101906116b09190612e75565b60015b611735573d80600081146116e3576040519150601f19603f3d011682016040523d82523d6000602084013e6116e8565b606091505b50600081510361172d576040517f08c379a000000000000000000000000000000000000000000000000000000000815260040161172490612998565b60405180910390fd5b805181602001fd5b63150b7a0260e01b7bffffffffffffffffffffffffffffffffffffffffffffffffffffffff1916817bffffffffffffffffffffffffffffffffffffffffffffffffffffffff19161491505061178a565b600190505b949350505050565b606060405180602001604052806000815250905090565b60606117b482610afa565b60006117be611792565b905060008151116117de5760405180602001604052806000815250611809565b806117e88461188f565b6040516020016117f99291906129f4565b6040516020818303038152906040525b915050919050565b61181b838361195d565b611828600084848461160b565b611867576040517f08c379a000000000000000000000000000000000000000000000000000000000815260040161185e90612998565b60405180910390fd5b505050565b6000808273ffffffffffffffffffffffffffffffffffffffff163b119050919050565b60606000600161189e84611b7a565b01905060008167ffffffffffffffff8111156118bd576118bc612099565b5b6040519080825280601f01601f1916602001820160405280156118ef5781602001600182028036833780820191505090505b509050600082602001820190505b600115611952578080600190039150507f3031323334353637383961626364656600000000000000000000000000000000600a86061a8153600a858161194657611945612ea2565b5b049450600085036118fd575b819350505050919050565b600073ffffffffffffffffffffffffffffffffffffffff168273ffffffffffffffffffffffffffffffffffffffff16036119cc576040517f08c379a00000000000000000000000000000000000000000000000000000000081526004016119c390612f1d565b60405180910390fd5b6119d58161149e565b15611a15576040517f08c379a0000000000000000000000000000000000000000000000000000000008152600401611a0c90612f89565b60405180910390fd5b611a236000838360016114df565b611a2c8161149e565b15611a6c576040517f08c379a0000000000000000000000000000000000000000000000000000000008152600401611a6390612f89565b60405180910390fd5b6001600360008473ffffffffffffffffffffffffffffffffffffffff1673ffffffffffffffffffffffffffffffffffffffff16815260200190815260200160002060008282540192505081905550816002600083815260200190815260200160002060006101000a81548173ffffffffffffffffffffffffffffffffffffffff021916908373ffffffffffffffffffffffffffffffffffffffff160217905550808273ffffffffffffffffffffffffffffffffffffffff16600073ffffffffffffffffffffffffffffffffffffffff167fddf252ad1be2c89b69c2b068fc378daa952ba7f163c4a11628f55a4df523b3ef60405160405180910390a4611b76600083836001611605565b5050565b600080600090507a184f03e93ff9f4daa797ed6e38ed64bf6a1f0100000000000000008310611bd8577a184f03e93ff9f4daa797ed6e38ed64bf6a1f0100000000000000008381611bce57611bcd612ea2565b5b0492506040810190505b6d04ee2d6d415b85acef81000000008310611c15576d04ee2d6d415b85acef81000000008381611c0b57611c0a612ea2565b5b0492506020810190505b662386f26fc100008310611c4457662386f26fc100008381611c3a57611c39612ea2565b5b0492506010810190505b6305f5e1008310611c6d576305f5e1008381611c6357611c62612ea2565b5b0492506008810190505b6127108310611c92576127108381611c8857611c87612ea2565b5b0492506004810190505b60648310611cb55760648381611cab57611caa612ea2565b5b0492506002810190505b600a8310611cc4576001810190505b80915050919050565b6000604051905090565b600080fd5b600080fd5b60007fffffffff0000000000000000000000000000000000000000000000000000000082169050919050565b611d1681611ce1565b8114611d2157600080fd5b50565b600081359050611d3381611d0d565b92915050565b600060208284031215611d4f57611d4e611cd7565b5b6000611d5d84828501611d24565b91505092915050565b60008115159050919050565b611d7b81611d66565b82525050565b6000602082019050611d966000830184611d72565b92915050565b600081519050919050565b600082825260208201905092915050565b60005b83811015611dd6578082015181840152602081019050611dbb565b60008484015250505050565b6000601f19601f8301169050919050565b6000611dfe82611d9c565b611e088185611da7565b9350611e18818560208601611db8565b611e2181611de2565b840191505092915050565b60006020820190508181036000830152611e468184611df3565b905092915050565b6000819050919050565b611e6181611e4e565b8114611e6c57600080fd5b50565b600081359050611e7e81611e58565b92915050565b600060208284031215611e9a57611e99611cd7565b5b6000611ea884828501611e6f565b91505092915050565b600073ffffffffffffffffffffffffffffffffffffffff82169050919050565b6000611edc82611eb1565b9050919050565b611eec81611ed1565b82525050565b6000602082019050611f076000830184611ee3565b92915050565b611f1681611ed1565b8114611f2157600080fd5b50565b600081359050611f3381611f0d565b92915050565b60008060408385031215611f5057611f4f611cd7565b5b6000611f5e85828601611f24565b9250506020611f6f85828601611e6f565b9150509250929050565b600080600060608486031215611f9257611f91611cd7565b5b6000611fa086828701611f24565b9350506020611fb186828701611f24565b9250506040611fc286828701611e6f565b9150509250925092565b600060208284031215611fe257611fe1611cd7565b5b6000611ff084828501611f24565b91505092915050565b61200281611e4e565b82525050565b600060208201905061201d6000830184611ff9565b92915050565b61202c81611d66565b811461203757600080fd5b50565b60008135905061204981612023565b92915050565b6000806040838503121561206657612065611cd7565b5b600061207485828601611f24565b92505060206120858582860161203a565b9150509250929050565b600080fd5b600080fd5b7f4e487b7100000000000000000000000000000000000000000000000000000000600052604160045260246000fd5b6120d182611de2565b810181811067ffffffffffffffff821117156120f0576120ef612099565b5b80604052505050565b6000612103611ccd565b905061210f82826120c8565b919050565b600067ffffffffffffffff82111561212f5761212e612099565b5b61213882611de2565b9050602081019050919050565b82818337600083830152505050565b600061216761216284612114565b6120f9565b90508281526020810184848401111561218357612182612094565b5b61218e848285612145565b509392505050565b600082601f8301126121ab576121aa61208f565b5b81356121bb848260208601612154565b91505092915050565b600080600080608085870312156121de576121dd611cd7565b5b60006121ec87828801611f24565b94505060206121fd87828801611f24565b935050604061220e87828801611e6f565b925050606085013567ffffffffffffffff81111561222f5761222e611cdc565b5b61223b87828801612196565b91505092959194509250565b600067ffffffffffffffff82111561226257612261612099565b5b61226b82611de2565b9050602081019050919050565b600061228b61228684612247565b6120f9565b9050828152602081018484840111156122a7576122a6612094565b5b6122b2848285612145565b509392505050565b600082601f8301126122cf576122ce61208f565b5b81356122df848260208601612278565b91505092915050565b600080604083850312156122ff576122fe611cd7565b5b600061230d85828601611f24565b925050602083013567ffffffffffffffff81111561232e5761232d611cdc565b5b61233a858286016122ba565b9150509250929050565b6000806040838503121561235b5761235a611cd7565b5b600061236985828601611f24565b925050602061237a85828601611f24565b9150509250929050565b7f4e487b7100000000000000000000000000000000000000000000000000000000600052602260045260246000fd5b600060028204905060018216806123cb57607f821691505b6020821081036123de576123dd612384565b5b50919050565b7f4552433732313a20617070726f76616c20746f2063757272656e74206f776e6560008201527f7200000000000000000000000000000000000000000000000000000000000000602082015250565b6000612440602183611da7565b915061244b826123e4565b604082019050919050565b6000602082019050818103600083015261246f81612433565b9050919050565b7f4552433732313a20617070726f76652063616c6c6572206973206e6f7420746f60008201527f6b656e206f776e6572206f7220617070726f76656420666f7220616c6c000000602082015250565b60006124d2603d83611da7565b91506124dd82612476565b604082019050919050565b60006020820190508181036000830152612501816124c5565b9050919050565b7f4552433732313a2063616c6c6572206973206e6f7420746f6b656e206f776e6560008201527f72206f7220617070726f76656400000000000000000000000000000000000000602082015250565b6000612564602d83611da7565b915061256f82612508565b604082019050919050565b6000602082019050818103600083015261259381612557565b9050919050565b7f4552433732313a20696e76616c696420746f6b656e2049440000000000000000600082015250565b60006125d0601883611da7565b91506125db8261259a565b602082019050919050565b600060208201905081810360008301526125ff816125c3565b9050919050565b7f4552433732313a2061646472657373207a65726f206973206e6f74206120766160008201527f6c6964206f776e65720000000000000000000000000000000000000000000000602082015250565b6000612662602983611da7565b915061266d82612606565b604082019050919050565b6000602082019050818103600083015261269181612655565b9050919050565b7f4f776e61626c653a206e6577206f776e657220697320746865207a65726f206160008201527f6464726573730000000000000000000000000000000000000000000000000000602082015250565b60006126f4602683611da7565b91506126ff82612698565b604082019050919050565b60006020820190508181036000830152612723816126e7565b9050919050565b7f4552433732313a207472616e736665722066726f6d20696e636f72726563742060008201527f6f776e6572000000000000000000000000000000000000000000000000000000602082015250565b6000612786602583611da7565b91506127918261272a565b604082019050919050565b600060208201905081810360008301526127b581612779565b9050919050565b7f4552433732313a207472616e7366657220746f20746865207a65726f2061646460008201527f7265737300000000000000000000000000000000000000000000000000000000602082015250565b6000612818602483611da7565b9150612823826127bc565b604082019050919050565b600060208201905081810360008301526128478161280b565b9050919050565b7f4f776e61626c653a2063616c6c6572206973206e6f7420746865206f776e6572600082015250565b6000612884602083611da7565b915061288f8261284e565b602082019050919050565b600060208201905081810360008301526128b381612877565b9050919050565b7f4552433732313a20617070726f766520746f2063616c6c657200000000000000600082015250565b60006128f0601983611da7565b91506128fb826128ba565b602082019050919050565b6000602082019050818103600083015261291f816128e3565b9050919050565b7f4552433732313a207472616e7366657220746f206e6f6e20455243373231526560008201527f63656976657220696d706c656d656e7465720000000000000000000000000000602082015250565b6000612982603283611da7565b915061298d82612926565b604082019050919050565b600060208201905081810360008301526129b181612975565b9050919050565b600081905092915050565b60006129ce82611d9c565b6129d881856129b8565b93506129e8818560208601611db8565b80840191505092915050565b6000612a0082856129c3565b9150612a0c82846129c3565b91508190509392505050565b7f45524337323155524953746f726167653a2055524920736574206f66206e6f6e60008201527f6578697374656e7420746f6b656e000000000000000000000000000000000000602082015250565b6000612a74602e83611da7565b9150612a7f82612a18565b604082019050919050565b60006020820190508181036000830152612aa381612a67565b9050919050565b60008190508160005260206000209050919050565b60006020601f8301049050919050565b600082821b905092915050565b600060088302612b0c7fffffffffffffffffffffffffffffffffffffffffffffffffffffffffffffffff82612acf565b612b168683612acf565b95508019841693508086168417925050509392505050565b6000819050919050565b6000612b53612b4e612b4984611e4e565b612b2e565b611e4e565b9050919050565b6000819050919050565b612b6d83612b38565b612b81612b7982612b5a565b848454612adc565b825550505050565b600090565b612b96612b89565b612ba1818484612b64565b505050565b5b81811015612bc557612bba600082612b8e565b600181019050612ba7565b5050565b601f821115612c0a57612bdb81612aaa565b612be484612abf565b81016020851015612bf3578190505b612c07612bff85612abf565b830182612ba6565b50505b505050565b600082821c905092915050565b6000612c2d60001984600802612c0f565b1980831691505092915050565b6000612c468383612c1c565b9150826002028217905092915050565b612c5f82611d9c565b67ffffffffffffffff811115612c7857612c77612099565b5b612c8282546123b3565b612c8d828285612bc9565b600060209050601f831160018114612cc05760008415612cae578287015190505b612cb88582612c3a565b865550612d20565b601f198416612cce86612aaa565b60005b82811015612cf657848901518255600182019150602085019450602081019050612cd1565b86831015612d135784890151612d0f601f891682612c1c565b8355505b6001600288020188555050505b505050505050565b7f4e487b7100000000000000000000000000000000000000000000000000000000600052601160045260246000fd5b6000612d6282611e4e565b9150612d6d83611e4e565b9250828203905081811115612d8557612d84612d28565b5b92915050565b6000612d9682611e4e565b9150612da183611e4e565b9250828201905080821115612db957612db8612d28565b5b92915050565b600081519050919050565b600082825260208201905092915050565b6000612de682612dbf565b612df08185612dca565b9350612e00818560208601611db8565b612e0981611de2565b840191505092915050565b6000608082019050612e296000830187611ee3565b612e366020830186611ee3565b612e436040830185611ff9565b8181036060830152612e558184612ddb565b905095945050505050565b600081519050612e6f81611d0d565b92915050565b600060208284031215612e8b57612e8a611cd7565b5b6000612e9984828501612e60565b91505092915050565b7f4e487b7100000000000000000000000000000000000000000000000000000000600052601260045260246000fd5b7f4552433732313a206d696e7420746f20746865207a65726f2061646472657373600082015250565b6000612f07602083611da7565b9150612f1282612ed1565b602082019050919050565b60006020820190508181036000830152612f3681612efa565b9050919050565b7f4552433732313a20746f6b656e20616c7265616479206d696e74656400000000600082015250565b6000612f73601c83611da7565b9150612f7e82612f3d565b602082019050919050565b60006020820190508181036000830152612fa281612f66565b905091905056fea26469706673582212200af9249dc282547d1cc7928be80d52e22776bbc17fc1a11221bf0862fbd6890264736f6c6343000810003360806040523480156200001157600080fd5b5060405162003f0738038062003f078339818101604052810190620000379190620004cb565b828281600090816200004a9190620007b0565b5080600190816200005c9190620007b0565b5050506000600760006101000a81548160ff0219169083151502179055506200009a6200008e620000b460201b60201c565b620000bc60201b60201c565b620000ab816200018260201b60201c565b505050620009b2565b600033905090565b6000600760019054906101000a900473ffffffffffffffffffffffffffffffffffffffff16905081600760016101000a81548173ffffffffffffffffffffffffffffffffffffffff021916908373ffffffffffffffffffffffffffffffffffffffff1602179055508173ffffffffffffffffffffffffffffffffffffffff168173ffffffffffffffffffffffffffffffffffffffff167f8be0079c531659141344cd1fd0a4f28419497f9722a3daafe3b4186f6b6457e060405160405180910390a35050565b620001926200021860201b60201c565b600073ffffffffffffffffffffffffffffffffffffffff168173ffffffffffffffffffffffffffffffffffffffff160362000204576040517f08c379a0000000000000000000000000000000000000000000000000000000008152600401620001fb906200091e565b60405180910390fd5b6200021581620000bc60201b60201c565b50565b62000228620000b460201b60201c565b73ffffffffffffffffffffffffffffffffffffffff166200024e620002a960201b60201c565b73ffffffffffffffffffffffffffffffffffffffff1614620002a7576040517f08c379a00000000000000000000000000000000000000000000000000000000081526004016200029e9062000990565b60405180910390fd5b565b6000600760019054906101000a900473ffffffffffffffffffffffffffffffffffffffff16905090565b6000604051905090565b600080fd5b600080fd5b600080fd5b600080fd5b6000601f19601f8301169050919050565b7f4e487b7100000000000000000000000000000000000000000000000000000000600052604160045260246000fd5b6200033c82620002f1565b810181811067ffffffffffffffff821117156200035e576200035d62000302565b5b80604052505050565b600062000373620002d3565b905062000381828262000331565b919050565b600067ffffffffffffffff821115620003a457620003a362000302565b5b620003af82620002f1565b9050602081019050919050565b60005b83811015620003dc578082015181840152602081019050620003bf565b60008484015250505050565b6000620003ff620003f98462000386565b62000367565b9050828152602081018484840111156200041e576200041d620002ec565b5b6200042b848285620003bc565b509392505050565b600082601f8301126200044b576200044a620002e7565b5b81516200045d848260208601620003e8565b91505092915050565b600073ffffffffffffffffffffffffffffffffffffffff82169050919050565b6000620004938262000466565b9050919050565b620004a58162000486565b8114620004b157600080fd5b50565b600081519050620004c5816200049a565b92915050565b600080600060608486031215620004e757620004e6620002dd565b5b600084015167ffffffffffffffff811115620005085762000507620002e2565b5b620005168682870162000433565b935050602084015167ffffffffffffffff8111156200053a5762000539620002e2565b5b620005488682870162000433565b92505060406200055b86828701620004b4565b9150509250925092565b600081519050919050565b7f4e487b7100000000000000000000000000000000000000000000000000000000600052602260045260246000fd5b60006002820490506001821680620005b857607f821691505b602082108103620005ce57620005cd62000570565b5b50919050565b60008190508160005260206000209050919050565b60006020601f8301049050919050565b600082821b905092915050565b600060088302620006387fffffffffffffffffffffffffffffffffffffffffffffffffffffffffffffffff82620005f9565b620006448683620005f9565b95508019841693508086168417925050509392505050565b6000819050919050565b6000819050919050565b6000620006916200068b62000685846200065c565b62000666565b6200065c565b9050919050565b6000819050919050565b620006ad8362000670565b620006c5620006bc8262000698565b84845462000606565b825550505050565b600090565b620006dc620006cd565b620006e9818484620006a2565b505050565b5b81811015620007115762000705600082620006d2565b600181019050620006ef565b5050565b601f82111562000760576200072a81620005d4565b6200073584620005e9565b8101602085101562000745578190505b6200075d6200075485620005e9565b830182620006ee565b50505b505050565b600082821c905092915050565b6000620007856000198460080262000765565b1980831691505092915050565b6000620007a0838362000772565b9150826002028217905092915050565b620007bb8262000565565b67ffffffffffffffff811115620007d757620007d662000302565b5b620007e382546200059f565b620007f082828562000715565b600060209050601f83116001811462000828576000841562000813578287015190505b6200081f858262000792565b8655506200088f565b601f1984166200083886620005d4565b60005b8281101562000862578489015182556001820191506020850194506020810190506200083b565b868310156200088257848901516200087e601f89168262000772565b8355505b6001600288020188555050505b505050505050565b600082825260208201905092915050565b7f4f776e61626c653a206e6577206f776e657220697320746865207a65726f206160008201527f6464726573730000000000000000000000000000000000000000000000000000602082015250565b60006200090660268362000897565b91506200091382620008a8565b604082019050919050565b600060208201905081810360008301526200093981620008f7565b9050919050565b7f4f776e61626c653a2063616c6c6572206973206e6f7420746865206f776e6572600082015250565b60006200097860208362000897565b9150620009858262000940565b602082019050919050565b60006020820190508181036000830152620009ab8162000969565b9050919050565b61354580620009c26000396000f3fe608060405234801561001057600080fd5b50600436106101375760003560e01c806370a08231116100b8578063a22cb4651161007c578063a22cb46514610302578063b88d4fde1461031e578063c87b56dd1461033a578063d204c45e1461036a578063e985e9c514610386578063f2fde38b146103b657610137565b806370a0823114610282578063715018a6146102b25780638456cb59146102bc5780638da5cb5b146102c657806395d89b41146102e457610137565b80633f4ba83a116100ff5780633f4ba83a146101f257806342842e0e146101fc57806342966c68146102185780635c975abb146102345780636352211e1461025257610137565b806301ffc9a71461013c57806306fdde031461016c578063081812fc1461018a578063095ea7b3146101ba57806323b872dd146101d6575b600080fd5b610156600480360381019061015191906121c7565b6103d2565b604051610163919061220f565b60405180910390f35b6101746104b4565b60405161018191906122ba565b60405180910390f35b6101a4600480360381019061019f9190612312565b610546565b6040516101b19190612380565b60405180910390f35b6101d460048036038101906101cf91906123c7565b61058c565b005b6101f060048036038101906101eb9190612407565b6106a3565b005b6101fa610703565b005b61021660048036038101906102119190612407565b610715565b005b610232600480360381019061022d9190612312565b610735565b005b61023c610791565b604051610249919061220f565b60405180910390f35b61026c60048036038101906102679190612312565b6107a8565b6040516102799190612380565b60405180910390f35b61029c6004803603810190610297919061245a565b61082e565b6040516102a99190612496565b60405180910390f35b6102ba6108e5565b005b6102c46108f9565b005b6102ce61090b565b6040516102db9190612380565b60405180910390f35b6102ec610935565b6040516102f991906122ba565b60405180910390f35b61031c600480360381019061031791906124dd565b6109c7565b005b61033860048036038101906103339190612652565b6109dd565b005b610354600480360381019061034f9190612312565b610a3f565b60405161036191906122ba565b60405180910390f35b610384600480360381019061037f9190612776565b610a51565b005b6103a0600480360381019061039b91906127d2565b610a8a565b6040516103ad919061220f565b60405180910390f35b6103d060048036038101906103cb919061245a565b610b1e565b005b60007f80ac58cd000000000000000000000000000000000000000000000000000000007bffffffffffffffffffffffffffffffffffffffffffffffffffffffff1916827bffffffffffffffffffffffffffffffffffffffffffffffffffffffff1916148061049d57507f5b5e139f000000000000000000000000000000000000000000000000000000007bffffffffffffffffffffffffffffffffffffffffffffffffffffffff1916827bffffffffffffffffffffffffffffffffffffffffffffffffffffffff1916145b806104ad57506104ac82610ba1565b5b9050919050565b6060600080546104c390612841565b80601f01602080910402602001604051908101604052809291908181526020018280546104ef90612841565b801561053c5780601f106105115761010080835404028352916020019161053c565b820191906000526020600020905b81548152906001019060200180831161051f57829003601f168201915b5050505050905090565b600061055182610c0b565b6004600083815260200190815260200160002060009054906101000a900473ffffffffffffffffffffffffffffffffffffffff169050919050565b6000610597826107a8565b90508073ffffffffffffffffffffffffffffffffffffffff168373ffffffffffffffffffffffffffffffffffffffff1603610607576040517f08c379a00000000000000000000000000000000000000000000000000000000081526004016105fe906128e4565b60405180910390fd5b8073ffffffffffffffffffffffffffffffffffffffff16610626610c56565b73ffffffffffffffffffffffffffffffffffffffff16148061065557506106548161064f610c56565b610a8a565b5b610694576040517f08c379a000000000000000000000000000000000000000000000000000000000815260040161068b90612976565b60405180910390fd5b61069e8383610c5e565b505050565b6106b46106ae610c56565b82610d17565b6106f3576040517f08c379a00000000000000000000000000000000000000000000000000000000081526004016106ea90612a08565b60405180910390fd5b6106fe838383610dac565b505050565b61070b6110a5565b610713611123565b565b610730838383604051806020016040528060008152506109dd565b505050565b610746610740610c56565b82610d17565b610785576040517f08c379a000000000000000000000000000000000000000000000000000000000815260040161077c90612a08565b60405180910390fd5b61078e81611186565b50565b6000600760009054906101000a900460ff16905090565b6000806107b483611192565b9050600073ffffffffffffffffffffffffffffffffffffffff168173ffffffffffffffffffffffffffffffffffffffff1603610825576040517f08c379a000000000000000000000000000000000000000000000000000000000815260040161081c90612a74565b60405180910390fd5b80915050919050565b60008073ffffffffffffffffffffffffffffffffffffffff168273ffffffffffffffffffffffffffffffffffffffff160361089e576040517f08c379a000000000000000000000000000000000000000000000000000000000815260040161089590612b06565b60405180910390fd5b600360008373ffffffffffffffffffffffffffffffffffffffff1673ffffffffffffffffffffffffffffffffffffffff168152602001908152602001600020549050919050565b6108ed6110a5565b6108f760006111cf565b565b6109016110a5565b610909611295565b565b6000600760019054906101000a900473ffffffffffffffffffffffffffffffffffffffff16905090565b60606001805461094490612841565b80601f016020809104026020016040519081016040528092919081815260200182805461097090612841565b80156109bd5780601f10610992576101008083540402835291602001916109bd565b820191906000526020600020905b8154815290600101906020018083116109a057829003601f168201915b5050505050905090565b6109d96109d2610c56565b83836112f8565b5050565b6109ee6109e8610c56565b83610d17565b610a2d576040517f08c379a0000000000000000000000000000000000000000000000000000000008152600401610a2490612a08565b60405180910390fd5b610a3984848484611464565b50505050565b6060610a4a826114c0565b9050919050565b610a596110a5565b6000610a6560086115d2565b9050610a7160086115e0565b610a7b83826115f6565b610a858183611614565b505050565b6000600560008473ffffffffffffffffffffffffffffffffffffffff1673ffffffffffffffffffffffffffffffffffffffff16815260200190815260200160002060008373ffffffffffffffffffffffffffffffffffffffff1673ffffffffffffffffffffffffffffffffffffffff16815260200190815260200160002060009054906101000a900460ff16905092915050565b610b266110a5565b600073ffffffffffffffffffffffffffffffffffffffff168173ffffffffffffffffffffffffffffffffffffffff1603610b95576040517f08c379a0000000000000000000000000000000000000000000000000000000008152600401610b8c90612b98565b60405180910390fd5b610b9e816111cf565b50565b60007f01ffc9a7000000000000000000000000000000000000000000000000000000007bffffffffffffffffffffffffffffffffffffffffffffffffffffffff1916827bffffffffffffffffffffffffffffffffffffffffffffffffffffffff1916149050919050565b610c1481611681565b610c53576040517f08c379a0000000000000000000000000000000000000000000000000000000008152600401610c4a90612a74565b60405180910390fd5b50565b600033905090565b816004600083815260200190815260200160002060006101000a81548173ffffffffffffffffffffffffffffffffffffffff021916908373ffffffffffffffffffffffffffffffffffffffff160217905550808273ffffffffffffffffffffffffffffffffffffffff16610cd1836107a8565b73ffffffffffffffffffffffffffffffffffffffff167f8c5be1e5ebec7d5bd14f71427d1e84f3dd0314c0f7b2291e5b200ac8c7c3b92560405160405180910390a45050565b600080610d23836107a8565b90508073ffffffffffffffffffffffffffffffffffffffff168473ffffffffffffffffffffffffffffffffffffffff161480610d655750610d648185610a8a565b5b80610da357508373ffffffffffffffffffffffffffffffffffffffff16610d8b84610546565b73ffffffffffffffffffffffffffffffffffffffff16145b91505092915050565b8273ffffffffffffffffffffffffffffffffffffffff16610dcc826107a8565b73ffffffffffffffffffffffffffffffffffffffff1614610e22576040517f08c379a0000000000000000000000000000000000000000000000000000000008152600401610e1990612c2a565b60405180910390fd5b600073ffffffffffffffffffffffffffffffffffffffff168273ffffffffffffffffffffffffffffffffffffffff1603610e91576040517f08c379a0000000000000000000000000000000000000000000000000000000008152600401610e8890612cbc565b60405180910390fd5b610e9e83838360016116c2565b8273ffffffffffffffffffffffffffffffffffffffff16610ebe826107a8565b73ffffffffffffffffffffffffffffffffffffffff1614610f14576040517f08c379a0000000000000000000000000000000000000000000000000000000008152600401610f0b90612c2a565b60405180910390fd5b6004600082815260200190815260200160002060006101000a81549073ffffffffffffffffffffffffffffffffffffffff02191690556001600360008573ffffffffffffffffffffffffffffffffffffffff1673ffffffffffffffffffffffffffffffffffffffff168152602001908152602001600020600082825403925050819055506001600360008473ffffffffffffffffffffffffffffffffffffffff1673ffffffffffffffffffffffffffffffffffffffff16815260200190815260200160002060008282540192505081905550816002600083815260200190815260200160002060006101000a81548173ffffffffffffffffffffffffffffffffffffffff021916908373ffffffffffffffffffffffffffffffffffffffff160217905550808273ffffffffffffffffffffffffffffffffffffffff168473ffffffffffffffffffffffffffffffffffffffff167fddf252ad1be2c89b69c2b068fc378daa952ba7f163c4a11628f55a4df523b3ef60405160405180910390a46110a083838360016116dc565b505050565b6110ad610c56565b73ffffffffffffffffffffffffffffffffffffffff166110cb61090b565b73ffffffffffffffffffffffffffffffffffffffff1614611121576040517f08c379a000000000000000000000000000000000000000000000000000000000815260040161111890612d28565b60405180910390fd5b565b61112b6116e2565b6000600760006101000a81548160ff0219169083151502179055507f5db9ee0a495bf2e6ff9c91a7834c1ba4fdd244a5e8aa4e537bd38aeae4b073aa61116f610c56565b60405161117c9190612380565b60405180910390a1565b61118f8161172b565b50565b60006002600083815260200190815260200160002060009054906101000a900473ffffffffffffffffffffffffffffffffffffffff169050919050565b6000600760019054906101000a900473ffffffffffffffffffffffffffffffffffffffff16905081600760016101000a81548173ffffffffffffffffffffffffffffffffffffffff021916908373ffffffffffffffffffffffffffffffffffffffff1602179055508173ffffffffffffffffffffffffffffffffffffffff168173ffffffffffffffffffffffffffffffffffffffff167f8be0079c531659141344cd1fd0a4f28419497f9722a3daafe3b4186f6b6457e060405160405180910390a35050565b61129d61177e565b6001600760006101000a81548160ff0219169083151502179055507f62e78cea01bee320cd4e420270b5ea74000d11b0c9f74754ebdbfc544b05a2586112e1610c56565b6040516112ee9190612380565b60405180910390a1565b8173ffffffffffffffffffffffffffffffffffffffff168373ffffffffffffffffffffffffffffffffffffffff1603611366576040517f08c379a000000000000000000000000000000000000000000000000000000000815260040161135d90612d94565b60405180910390fd5b80600560008573ffffffffffffffffffffffffffffffffffffffff1673ffffffffffffffffffffffffffffffffffffffff16815260200190815260200160002060008473ffffffffffffffffffffffffffffffffffffffff1673ffffffffffffffffffffffffffffffffffffffff16815260200190815260200160002060006101000a81548160ff0219169083151502179055508173ffffffffffffffffffffffffffffffffffffffff168373ffffffffffffffffffffffffffffffffffffffff167f17307eab39ab6107e8899845ad3d59bd9653f200f220920489ca2b5937696c3183604051611457919061220f565b60405180910390a3505050565b61146f848484610dac565b61147b848484846117c8565b6114ba576040517f08c379a00000000000000000000000000000000000000000000000000000000081526004016114b190612e26565b60405180910390fd5b50505050565b60606114cb82610c0b565b60006006600084815260200190815260200160002080546114eb90612841565b80601f016020809104026020016040519081016040528092919081815260200182805461151790612841565b80156115645780601f1061153957610100808354040283529160200191611564565b820191906000526020600020905b81548152906001019060200180831161154757829003601f168201915b50505050509050600061157561194f565b9050600081510361158a5781925050506115cd565b6000825111156115bf5780826040516020016115a7929190612e82565b604051602081830303815290604052925050506115cd565b6115c884611966565b925050505b919050565b600081600001549050919050565b6001816000016000828254019250508190555050565b6116108282604051806020016040528060008152506119ce565b5050565b61161d82611681565b61165c576040517f08c379a000000000000000000000000000000000000000000000000000000000815260040161165390612f18565b60405180910390fd5b8060066000848152602001908152602001600020908161167c91906130e4565b505050565b60008073ffffffffffffffffffffffffffffffffffffffff166116a383611192565b73ffffffffffffffffffffffffffffffffffffffff1614159050919050565b6116ca61177e565b6116d684848484611a29565b50505050565b50505050565b6116ea610791565b611729576040517f08c379a000000000000000000000000000000000000000000000000000000000815260040161172090613202565b60405180910390fd5b565b61173481611b4f565b600060066000838152602001908152602001600020805461175490612841565b90501461177b5760066000828152602001908152602001600020600061177a91906120fe565b5b50565b611786610791565b156117c6576040517f08c379a00000000000000000000000000000000000000000000000000000000081526004016117bd9061326e565b60405180910390fd5b565b60006117e98473ffffffffffffffffffffffffffffffffffffffff16611c9d565b15611942578373ffffffffffffffffffffffffffffffffffffffff1663150b7a02611812610c56565b8786866040518563ffffffff1660e01b815260040161183494939291906132e3565b6020604051808303816000875af192505050801561187057506040513d601f19601f8201168201806040525081019061186d9190613344565b60015b6118f2573d80600081146118a0576040519150601f19603f3d011682016040523d82523d6000602084013e6118a5565b606091505b5060008151036118ea576040517f08c379a00000000000000000000000000000000000000000000000000000000081526004016118e190612e26565b60405180910390fd5b805181602001fd5b63150b7a0260e01b7bffffffffffffffffffffffffffffffffffffffffffffffffffffffff1916817bffffffffffffffffffffffffffffffffffffffffffffffffffffffff191614915050611947565b600190505b949350505050565b606060405180602001604052806000815250905090565b606061197182610c0b565b600061197b61194f565b9050600081511161199b57604051806020016040528060008152506119c6565b806119a584611cc0565b6040516020016119b6929190612e82565b6040516020818303038152906040525b915050919050565b6119d88383611d8e565b6119e560008484846117c8565b611a24576040517f08c379a0000000000000000000000000000000000000000000000000000000008152600401611a1b90612e26565b60405180910390fd5b505050565b6001811115611b4957600073ffffffffffffffffffffffffffffffffffffffff168473ffffffffffffffffffffffffffffffffffffffff1614611abd5780600360008673ffffffffffffffffffffffffffffffffffffffff1673ffffffffffffffffffffffffffffffffffffffff1681526020019081526020016000206000828254611ab591906133a0565b925050819055505b600073ffffffffffffffffffffffffffffffffffffffff168373ffffffffffffffffffffffffffffffffffffffff1614611b485780600360008573ffffffffffffffffffffffffffffffffffffffff1673ffffffffffffffffffffffffffffffffffffffff1681526020019081526020016000206000828254611b4091906133d4565b925050819055505b5b50505050565b6000611b5a826107a8565b9050611b6a8160008460016116c2565b611b73826107a8565b90506004600083815260200190815260200160002060006101000a81549073ffffffffffffffffffffffffffffffffffffffff02191690556001600360008373ffffffffffffffffffffffffffffffffffffffff1673ffffffffffffffffffffffffffffffffffffffff168152602001908152602001600020600082825403925050819055506002600083815260200190815260200160002060006101000a81549073ffffffffffffffffffffffffffffffffffffffff021916905581600073ffffffffffffffffffffffffffffffffffffffff168273ffffffffffffffffffffffffffffffffffffffff167fddf252ad1be2c89b69c2b068fc378daa952ba7f163c4a11628f55a4df523b3ef60405160405180910390a4611c998160008460016116dc565b5050565b6000808273ffffffffffffffffffffffffffffffffffffffff163b119050919050565b606060006001611ccf84611fab565b01905060008167ffffffffffffffff811115611cee57611ced612527565b5b6040519080825280601f01601f191660200182016040528015611d205781602001600182028036833780820191505090505b509050600082602001820190505b600115611d83578080600190039150507f3031323334353637383961626364656600000000000000000000000000000000600a86061a8153600a8581611d7757611d76613408565b5b04945060008503611d2e575b819350505050919050565b600073ffffffffffffffffffffffffffffffffffffffff168273ffffffffffffffffffffffffffffffffffffffff1603611dfd576040517f08c379a0000000000000000000000000000000000000000000000000000000008152600401611df490613483565b60405180910390fd5b611e0681611681565b15611e46576040517f08c379a0000000000000000000000000000000000000000000000000000000008152600401611e3d906134ef565b60405180910390fd5b611e546000838360016116c2565b611e5d81611681565b15611e9d576040517f08c379a0000000000000000000000000000000000000000000000000000000008152600401611e94906134ef565b60405180910390fd5b6001600360008473ffffffffffffffffffffffffffffffffffffffff1673ffffffffffffffffffffffffffffffffffffffff16815260200190815260200160002060008282540192505081905550816002600083815260200190815260200160002060006101000a81548173ffffffffffffffffffffffffffffffffffffffff021916908373ffffffffffffffffffffffffffffffffffffffff160217905550808273ffffffffffffffffffffffffffffffffffffffff16600073ffffffffffffffffffffffffffffffffffffffff167fddf252ad1be2c89b69c2b068fc378daa952ba7f163c4a11628f55a4df523b3ef60405160405180910390a4611fa76000838360016116dc565b5050565b600080600090507a184f03e93ff9f4daa797ed6e38ed64bf6a1f0100000000000000008310612009577a184f03e93ff9f4daa797ed6e38ed64bf6a1f0100000000000000008381611fff57611ffe613408565b5b0492506040810190505b6d04ee2d6d415b85acef81000000008310612046576d04ee2d6d415b85acef8100000000838161203c5761203b613408565b5b0492506020810190505b662386f26fc10000831061207557662386f26fc10000838161206b5761206a613408565b5b0492506010810190505b6305f5e100831061209e576305f5e100838161209457612093613408565b5b0492506008810190505b61271083106120c35761271083816120b9576120b8613408565b5b0492506004810190505b606483106120e657606483816120dc576120db613408565b5b0492506002810190505b600a83106120f5576001810190505b80915050919050565b50805461210a90612841565b6000825580601f1061211c575061213b565b601f01602090049060005260206000209081019061213a919061213e565b5b50565b5b8082111561215757600081600090555060010161213f565b5090565b6000604051905090565b600080fd5b600080fd5b60007fffffffff0000000000000000000000000000000000000000000000000000000082169050919050565b6121a48161216f565b81146121af57600080fd5b50565b6000813590506121c18161219b565b92915050565b6000602082840312156121dd576121dc612165565b5b60006121eb848285016121b2565b91505092915050565b60008115159050919050565b612209816121f4565b82525050565b60006020820190506122246000830184612200565b92915050565b600081519050919050565b600082825260208201905092915050565b60005b83811015612264578082015181840152602081019050612249565b60008484015250505050565b6000601f19601f8301169050919050565b600061228c8261222a565b6122968185612235565b93506122a6818560208601612246565b6122af81612270565b840191505092915050565b600060208201905081810360008301526122d48184612281565b905092915050565b6000819050919050565b6122ef816122dc565b81146122fa57600080fd5b50565b60008135905061230c816122e6565b92915050565b60006020828403121561232857612327612165565b5b6000612336848285016122fd565b91505092915050565b600073ffffffffffffffffffffffffffffffffffffffff82169050919050565b600061236a8261233f565b9050919050565b61237a8161235f565b82525050565b60006020820190506123956000830184612371565b92915050565b6123a48161235f565b81146123af57600080fd5b50565b6000813590506123c18161239b565b92915050565b600080604083850312156123de576123dd612165565b5b60006123ec858286016123b2565b92505060206123fd858286016122fd565b9150509250929050565b6000806000606084860312156124205761241f612165565b5b600061242e868287016123b2565b935050602061243f868287016123b2565b9250506040612450868287016122fd565b9150509250925092565b6000602082840312156124705761246f612165565b5b600061247e848285016123b2565b91505092915050565b612490816122dc565b82525050565b60006020820190506124ab6000830184612487565b92915050565b6124ba816121f4565b81146124c557600080fd5b50565b6000813590506124d7816124b1565b92915050565b600080604083850312156124f4576124f3612165565b5b6000612502858286016123b2565b9250506020612513858286016124c8565b9150509250929050565b600080fd5b600080fd5b7f4e487b7100000000000000000000000000000000000000000000000000000000600052604160045260246000fd5b61255f82612270565b810181811067ffffffffffffffff8211171561257e5761257d612527565b5b80604052505050565b600061259161215b565b905061259d8282612556565b919050565b600067ffffffffffffffff8211156125bd576125bc612527565b5b6125c682612270565b9050602081019050919050565b82818337600083830152505050565b60006125f56125f0846125a2565b612587565b90508281526020810184848401111561261157612610612522565b5b61261c8482856125d3565b509392505050565b600082601f8301126126395761263861251d565b5b81356126498482602086016125e2565b91505092915050565b6000806000806080858703121561266c5761266b612165565b5b600061267a878288016123b2565b945050602061268b878288016123b2565b935050604061269c878288016122fd565b925050606085013567ffffffffffffffff8111156126bd576126bc61216a565b5b6126c987828801612624565b91505092959194509250565b600067ffffffffffffffff8211156126f0576126ef612527565b5b6126f982612270565b9050602081019050919050565b6000612719612714846126d5565b612587565b90508281526020810184848401111561273557612734612522565b5b6127408482856125d3565b509392505050565b600082601f83011261275d5761275c61251d565b5b813561276d848260208601612706565b91505092915050565b6000806040838503121561278d5761278c612165565b5b600061279b858286016123b2565b925050602083013567ffffffffffffffff8111156127bc576127bb61216a565b5b6127c885828601612748565b9150509250929050565b600080604083850312156127e9576127e8612165565b5b60006127f7858286016123b2565b9250506020612808858286016123b2565b9150509250929050565b7f4e487b7100000000000000000000000000000000000000000000000000000000600052602260045260246000fd5b6000600282049050600182168061285957607f821691505b60208210810361286c5761286b612812565b5b50919050565b7f4552433732313a20617070726f76616c20746f2063757272656e74206f776e6560008201527f7200000000000000000000000000000000000000000000000000000000000000602082015250565b60006128ce602183612235565b91506128d982612872565b604082019050919050565b600060208201905081810360008301526128fd816128c1565b9050919050565b7f4552433732313a20617070726f76652063616c6c6572206973206e6f7420746f60008201527f6b656e206f776e6572206f7220617070726f76656420666f7220616c6c000000602082015250565b6000612960603d83612235565b915061296b82612904565b604082019050919050565b6000602082019050818103600083015261298f81612953565b9050919050565b7f4552433732313a2063616c6c6572206973206e6f7420746f6b656e206f776e6560008201527f72206f7220617070726f76656400000000000000000000000000000000000000602082015250565b60006129f2602d83612235565b91506129fd82612996565b604082019050919050565b60006020820190508181036000830152612a21816129e5565b9050919050565b7f4552433732313a20696e76616c696420746f6b656e2049440000000000000000600082015250565b6000612a5e601883612235565b9150612a6982612a28565b602082019050919050565b60006020820190508181036000830152612a8d81612a51565b9050919050565b7f4552433732313a2061646472657373207a65726f206973206e6f74206120766160008201527f6c6964206f776e65720000000000000000000000000000000000000000000000602082015250565b6000612af0602983612235565b9150612afb82612a94565b604082019050919050565b60006020820190508181036000830152612b1f81612ae3565b9050919050565b7f4f776e61626c653a206e6577206f776e657220697320746865207a65726f206160008201527f6464726573730000000000000000000000000000000000000000000000000000602082015250565b6000612b82602683612235565b9150612b8d82612b26565b604082019050919050565b60006020820190508181036000830152612bb181612b75565b9050919050565b7f4552433732313a207472616e736665722066726f6d20696e636f72726563742060008201527f6f776e6572000000000000000000000000000000000000000000000000000000602082015250565b6000612c14602583612235565b9150612c1f82612bb8565b604082019050919050565b60006020820190508181036000830152612c4381612c07565b9050919050565b7f4552433732313a207472616e7366657220746f20746865207a65726f2061646460008201527f7265737300000000000000000000000000000000000000000000000000000000602082015250565b6000612ca6602483612235565b9150612cb182612c4a565b604082019050919050565b60006020820190508181036000830152612cd581612c99565b9050919050565b7f4f776e61626c653a2063616c6c6572206973206e6f7420746865206f776e6572600082015250565b6000612d12602083612235565b9150612d1d82612cdc565b602082019050919050565b60006020820190508181036000830152612d4181612d05565b9050919050565b7f4552433732313a20617070726f766520746f2063616c6c657200000000000000600082015250565b6000612d7e601983612235565b9150612d8982612d48565b602082019050919050565b60006020820190508181036000830152612dad81612d71565b9050919050565b7f4552433732313a207472616e7366657220746f206e6f6e20455243373231526560008201527f63656976657220696d706c656d656e7465720000000000000000000000000000602082015250565b6000612e10603283612235565b9150612e1b82612db4565b604082019050919050565b60006020820190508181036000830152612e3f81612e03565b9050919050565b600081905092915050565b6000612e5c8261222a565b612e668185612e46565b9350612e76818560208601612246565b80840191505092915050565b6000612e8e8285612e51565b9150612e9a8284612e51565b91508190509392505050565b7f45524337323155524953746f726167653a2055524920736574206f66206e6f6e60008201527f6578697374656e7420746f6b656e000000000000000000000000000000000000602082015250565b6000612f02602e83612235565b9150612f0d82612ea6565b604082019050919050565b60006020820190508181036000830152612f3181612ef5565b9050919050565b60008190508160005260206000209050919050565b60006020601f8301049050919050565b600082821b905092915050565b600060088302612f9a7fffffffffffffffffffffffffffffffffffffffffffffffffffffffffffffffff82612f5d565b612fa48683612f5d565b95508019841693508086168417925050509392505050565b6000819050919050565b6000612fe1612fdc612fd7846122dc565b612fbc565b6122dc565b9050919050565b6000819050919050565b612ffb83612fc6565b61300f61300782612fe8565b848454612f6a565b825550505050565b600090565b613024613017565b61302f818484612ff2565b505050565b5b818110156130535761304860008261301c565b600181019050613035565b5050565b601f8211156130985761306981612f38565b61307284612f4d565b81016020851015613081578190505b61309561308d85612f4d565b830182613034565b50505b505050565b600082821c905092915050565b60006130bb6000198460080261309d565b1980831691505092915050565b60006130d483836130aa565b9150826002028217905092915050565b6130ed8261222a565b67ffffffffffffffff81111561310657613105612527565b5b6131108254612841565b61311b828285613057565b600060209050601f83116001811461314e576000841561313c578287015190505b61314685826130c8565b8655506131ae565b601f19841661315c86612f38565b60005b828110156131845784890151825560018201915060208501945060208101905061315f565b868310156131a1578489015161319d601f8916826130aa565b8355505b6001600288020188555050505b505050505050565b7f5061757361626c653a206e6f7420706175736564000000000000000000000000600082015250565b60006131ec601483612235565b91506131f7826131b6565b602082019050919050565b6000602082019050818103600083015261321b816131df565b9050919050565b7f5061757361626c653a2070617573656400000000000000000000000000000000600082015250565b6000613258601083612235565b915061326382613222565b602082019050919050565b600060208201905081810360008301526132878161324b565b9050919050565b600081519050919050565b600082825260208201905092915050565b60006132b58261328e565b6132bf8185613299565b93506132cf818560208601612246565b6132d881612270565b840191505092915050565b60006080820190506132f86000830187612371565b6133056020830186612371565b6133126040830185612487565b818103606083015261332481846132aa565b905095945050505050565b60008151905061333e8161219b565b92915050565b60006020828403121561335a57613359612165565b5b60006133688482850161332f565b91505092915050565b7f4e487b7100000000000000000000000000000000000000000000000000000000600052601160045260246000fd5b60006133ab826122dc565b91506133b6836122dc565b92508282039050818111156133ce576133cd613371565b5b92915050565b60006133df826122dc565b91506133ea836122dc565b925082820190508082111561340257613401613371565b5b92915050565b7f4e487b7100000000000000000000000000000000000000000000000000000000600052601260045260246000fd5b7f4552433732313a206d696e7420746f20746865207a65726f2061646472657373600082015250565b600061346d602083612235565b915061347882613437565b602082019050919050565b6000602082019050818103600083015261349c81613460565b9050919050565b7f4552433732313a20746f6b656e20616c7265616479206d696e74656400000000600082015250565b60006134d9601c83612235565b91506134e4826134a3565b602082019050919050565b60006020820190508181036000830152613508816134cc565b905091905056fea2646970667358221220d2174a64ed5669feb96a9e86f43c72272ba407d6b4eb0b848feafac86b9007c664736f6c6343000810003360806040523480156200001157600080fd5b5060405162003c7a38038062003c7a8339818101604052810190620000379190620004cb565b828281600090816200004a9190620007b0565b5080600190816200005c9190620007b0565b5050506000600760006101000a81548160ff0219169083151502179055506200009a6200008e620000b460201b60201c565b620000bc60201b60201c565b620000ab816200018260201b60201c565b505050620009b2565b600033905090565b6000600760019054906101000a900473ffffffffffffffffffffffffffffffffffffffff16905081600760016101000a81548173ffffffffffffffffffffffffffffffffffffffff021916908373ffffffffffffffffffffffffffffffffffffffff1602179055508173ffffffffffffffffffffffffffffffffffffffff168173ffffffffffffffffffffffffffffffffffffffff167f8be0079c531659141344cd1fd0a4f28419497f9722a3daafe3b4186f6b6457e060405160405180910390a35050565b620001926200021860201b60201c565b600073ffffffffffffffffffffffffffffffffffffffff168173ffffffffffffffffffffffffffffffffffffffff160362000204576040517f08c379a0000000000000000000000000000000000000000000000000000000008152600401620001fb906200091e565b60405180910390fd5b6200021581620000bc60201b60201c565b50565b62000228620000b460201b60201c565b73ffffffffffffffffffffffffffffffffffffffff166200024e620002a960201b60201c565b73ffffffffffffffffffffffffffffffffffffffff1614620002a7576040517f08c379a00000000000000000000000000000000000000000000000000000000081526004016200029e9062000990565b60405180910390fd5b565b6000600760019054906101000a900473ffffffffffffffffffffffffffffffffffffffff16905090565b6000604051905090565b600080fd5b600080fd5b600080fd5b600080fd5b6000601f19601f8301169050919050565b7f4e487b7100000000000000000000000000000000000000000000000000000000600052604160045260246000fd5b6200033c82620002f1565b810181811067ffffffffffffffff821117156200035e576200035d62000302565b5b80604052505050565b600062000373620002d3565b905062000381828262000331565b919050565b600067ffffffffffffffff821115620003a457620003a362000302565b5b620003af82620002f1565b9050602081019050919050565b60005b83811015620003dc578082015181840152602081019050620003bf565b60008484015250505050565b6000620003ff620003f98462000386565b62000367565b9050828152602081018484840111156200041e576200041d620002ec565b5b6200042b848285620003bc565b509392505050565b600082601f8301126200044b576200044a620002e7565b5b81516200045d848260208601620003e8565b91505092915050565b600073ffffffffffffffffffffffffffffffffffffffff82169050919050565b6000620004938262000466565b9050919050565b620004a58162000486565b8114620004b157600080fd5b50565b600081519050620004c5816200049a565b92915050565b600080600060608486031215620004e757620004e6620002dd565b5b600084015167ffffffffffffffff811115620005085762000507620002e2565b5b620005168682870162000433565b935050602084015167ffffffffffffffff8111156200053a5762000539620002e2565b5b620005488682870162000433565b92505060406200055b86828701620004b4565b9150509250925092565b600081519050919050565b7f4e487b7100000000000000000000000000000000000000000000000000000000600052602260045260246000fd5b60006002820490506001821680620005b857607f821691505b602082108103620005ce57620005cd62000570565b5b50919050565b60008190508160005260206000209050919050565b60006020601f8301049050919050565b600082821b905092915050565b600060088302620006387fffffffffffffffffffffffffffffffffffffffffffffffffffffffffffffffff82620005f9565b620006448683620005f9565b95508019841693508086168417925050509392505050565b6000819050919050565b6000819050919050565b6000620006916200068b62000685846200065c565b62000666565b6200065c565b9050919050565b6000819050919050565b620006ad8362000670565b620006c5620006bc8262000698565b84845462000606565b825550505050565b600090565b620006dc620006cd565b620006e9818484620006a2565b505050565b5b81811015620007115762000705600082620006d2565b600181019050620006ef565b5050565b601f82111562000760576200072a81620005d4565b6200073584620005e9565b8101602085101562000745578190505b6200075d6200075485620005e9565b830182620006ee565b50505b505050565b600082821c905092915050565b6000620007856000198460080262000765565b1980831691505092915050565b6000620007a0838362000772565b9150826002028217905092915050565b620007bb8262000565565b67ffffffffffffffff811115620007d757620007d662000302565b5b620007e382546200059f565b620007f082828562000715565b600060209050601f83116001811462000828576000841562000813578287015190505b6200081f858262000792565b8655506200088f565b601f1984166200083886620005d4565b60005b8281101562000862578489015182556001820191506020850194506020810190506200083b565b868310156200088257848901516200087e601f89168262000772565b8355505b6001600288020188555050505b505050505050565b600082825260208201905092915050565b7f4f776e61626c653a206e6577206f776e657220697320746865207a65726f206160008201527f6464726573730000000000000000000000000000000000000000000000000000602082015250565b60006200090660268362000897565b91506200091382620008a8565b604082019050919050565b600060208201905081810360008301526200093981620008f7565b9050919050565b7f4f776e61626c653a2063616c6c6572206973206e6f7420746865206f776e6572600082015250565b60006200097860208362000897565b9150620009858262000940565b602082019050919050565b60006020820190508181036000830152620009ab8162000969565b9050919050565b6132b880620009c26000396000f3fe608060405234801561001057600080fd5b506004361061012c5760003560e01c8063715018a6116100ad578063b88d4fde11610071578063b88d4fde146102f7578063c87b56dd14610313578063d204c45e14610343578063e985e9c51461035f578063f2fde38b1461038f5761012c565b8063715018a61461028b5780638456cb59146102955780638da5cb5b1461029f57806395d89b41146102bd578063a22cb465146102db5761012c565b80633f4ba83a116100f45780633f4ba83a146101e757806342842e0e146101f15780635c975abb1461020d5780636352211e1461022b57806370a082311461025b5761012c565b806301ffc9a71461013157806306fdde0314610161578063081812fc1461017f578063095ea7b3146101af57806323b872dd146101cb575b600080fd5b61014b60048036038101906101469190611f3a565b6103ab565b6040516101589190611f82565b60405180910390f35b61016961048d565b604051610176919061202d565b60405180910390f35b61019960048036038101906101949190612085565b61051f565b6040516101a691906120f3565b60405180910390f35b6101c960048036038101906101c4919061213a565b610565565b005b6101e560048036038101906101e0919061217a565b61067c565b005b6101ef6106dc565b005b61020b6004803603810190610206919061217a565b6106ee565b005b61021561070e565b6040516102229190611f82565b60405180910390f35b61024560048036038101906102409190612085565b610725565b60405161025291906120f3565b60405180910390f35b610275600480360381019061027091906121cd565b6107ab565b6040516102829190612209565b60405180910390f35b610293610862565b005b61029d610876565b005b6102a7610888565b6040516102b491906120f3565b60405180910390f35b6102c56108b2565b6040516102d2919061202d565b60405180910390f35b6102f560048036038101906102f09190612250565b610944565b005b610311600480360381019061030c91906123c5565b61095a565b005b61032d60048036038101906103289190612085565b6109bc565b60405161033a919061202d565b60405180910390f35b61035d600480360381019061035891906124e9565b6109ce565b005b61037960048036038101906103749190612545565b610a07565b6040516103869190611f82565b60405180910390f35b6103a960048036038101906103a491906121cd565b610a9b565b005b60007f80ac58cd000000000000000000000000000000000000000000000000000000007bffffffffffffffffffffffffffffffffffffffffffffffffffffffff1916827bffffffffffffffffffffffffffffffffffffffffffffffffffffffff1916148061047657507f5b5e139f000000000000000000000000000000000000000000000000000000007bffffffffffffffffffffffffffffffffffffffffffffffffffffffff1916827bffffffffffffffffffffffffffffffffffffffffffffffffffffffff1916145b80610486575061048582610b1e565b5b9050919050565b60606000805461049c906125b4565b80601f01602080910402602001604051908101604052809291908181526020018280546104c8906125b4565b80156105155780601f106104ea57610100808354040283529160200191610515565b820191906000526020600020905b8154815290600101906020018083116104f857829003601f168201915b5050505050905090565b600061052a82610b88565b6004600083815260200190815260200160002060009054906101000a900473ffffffffffffffffffffffffffffffffffffffff169050919050565b600061057082610725565b90508073ffffffffffffffffffffffffffffffffffffffff168373ffffffffffffffffffffffffffffffffffffffff16036105e0576040517f08c379a00000000000000000000000000000000000000000000000000000000081526004016105d790612657565b60405180910390fd5b8073ffffffffffffffffffffffffffffffffffffffff166105ff610bd3565b73ffffffffffffffffffffffffffffffffffffffff16148061062e575061062d81610628610bd3565b610a07565b5b61066d576040517f08c379a0000000000000000000000000000000000000000000000000000000008152600401610664906126e9565b60405180910390fd5b6106778383610bdb565b505050565b61068d610687610bd3565b82610c94565b6106cc576040517f08c379a00000000000000000000000000000000000000000000000000000000081526004016106c39061277b565b60405180910390fd5b6106d7838383610d29565b505050565b6106e4611022565b6106ec6110a0565b565b6107098383836040518060200160405280600081525061095a565b505050565b6000600760009054906101000a900460ff16905090565b60008061073183611103565b9050600073ffffffffffffffffffffffffffffffffffffffff168173ffffffffffffffffffffffffffffffffffffffff16036107a2576040517f08c379a0000000000000000000000000000000000000000000000000000000008152600401610799906127e7565b60405180910390fd5b80915050919050565b60008073ffffffffffffffffffffffffffffffffffffffff168273ffffffffffffffffffffffffffffffffffffffff160361081b576040517f08c379a000000000000000000000000000000000000000000000000000000000815260040161081290612879565b60405180910390fd5b600360008373ffffffffffffffffffffffffffffffffffffffff1673ffffffffffffffffffffffffffffffffffffffff168152602001908152602001600020549050919050565b61086a611022565b6108746000611140565b565b61087e611022565b610886611206565b565b6000600760019054906101000a900473ffffffffffffffffffffffffffffffffffffffff16905090565b6060600180546108c1906125b4565b80601f01602080910402602001604051908101604052809291908181526020018280546108ed906125b4565b801561093a5780601f1061090f5761010080835404028352916020019161093a565b820191906000526020600020905b81548152906001019060200180831161091d57829003601f168201915b5050505050905090565b61095661094f610bd3565b8383611269565b5050565b61096b610965610bd3565b83610c94565b6109aa576040517f08c379a00000000000000000000000000000000000000000000000000000000081526004016109a19061277b565b60405180910390fd5b6109b6848484846113d5565b50505050565b60606109c782611431565b9050919050565b6109d6611022565b60006109e26008611543565b90506109ee6008611551565b6109f88382611567565b610a028183611585565b505050565b6000600560008473ffffffffffffffffffffffffffffffffffffffff1673ffffffffffffffffffffffffffffffffffffffff16815260200190815260200160002060008373ffffffffffffffffffffffffffffffffffffffff1673ffffffffffffffffffffffffffffffffffffffff16815260200190815260200160002060009054906101000a900460ff16905092915050565b610aa3611022565b600073ffffffffffffffffffffffffffffffffffffffff168173ffffffffffffffffffffffffffffffffffffffff1603610b12576040517f08c379a0000000000000000000000000000000000000000000000000000000008152600401610b099061290b565b60405180910390fd5b610b1b81611140565b50565b60007f01ffc9a7000000000000000000000000000000000000000000000000000000007bffffffffffffffffffffffffffffffffffffffffffffffffffffffff1916827bffffffffffffffffffffffffffffffffffffffffffffffffffffffff1916149050919050565b610b91816115f2565b610bd0576040517f08c379a0000000000000000000000000000000000000000000000000000000008152600401610bc7906127e7565b60405180910390fd5b50565b600033905090565b816004600083815260200190815260200160002060006101000a81548173ffffffffffffffffffffffffffffffffffffffff021916908373ffffffffffffffffffffffffffffffffffffffff160217905550808273ffffffffffffffffffffffffffffffffffffffff16610c4e83610725565b73ffffffffffffffffffffffffffffffffffffffff167f8c5be1e5ebec7d5bd14f71427d1e84f3dd0314c0f7b2291e5b200ac8c7c3b92560405160405180910390a45050565b600080610ca083610725565b90508073ffffffffffffffffffffffffffffffffffffffff168473ffffffffffffffffffffffffffffffffffffffff161480610ce25750610ce18185610a07565b5b80610d2057508373ffffffffffffffffffffffffffffffffffffffff16610d088461051f565b73ffffffffffffffffffffffffffffffffffffffff16145b91505092915050565b8273ffffffffffffffffffffffffffffffffffffffff16610d4982610725565b73ffffffffffffffffffffffffffffffffffffffff1614610d9f576040517f08c379a0000000000000000000000000000000000000000000000000000000008152600401610d969061299d565b60405180910390fd5b600073ffffffffffffffffffffffffffffffffffffffff168273ffffffffffffffffffffffffffffffffffffffff1603610e0e576040517f08c379a0000000000000000000000000000000000000000000000000000000008152600401610e0590612a2f565b60405180910390fd5b610e1b8383836001611633565b8273ffffffffffffffffffffffffffffffffffffffff16610e3b82610725565b73ffffffffffffffffffffffffffffffffffffffff1614610e91576040517f08c379a0000000000000000000000000000000000000000000000000000000008152600401610e889061299d565b60405180910390fd5b6004600082815260200190815260200160002060006101000a81549073ffffffffffffffffffffffffffffffffffffffff02191690556001600360008573ffffffffffffffffffffffffffffffffffffffff1673ffffffffffffffffffffffffffffffffffffffff168152602001908152602001600020600082825403925050819055506001600360008473ffffffffffffffffffffffffffffffffffffffff1673ffffffffffffffffffffffffffffffffffffffff16815260200190815260200160002060008282540192505081905550816002600083815260200190815260200160002060006101000a81548173ffffffffffffffffffffffffffffffffffffffff021916908373ffffffffffffffffffffffffffffffffffffffff160217905550808273ffffffffffffffffffffffffffffffffffffffff168473ffffffffffffffffffffffffffffffffffffffff167fddf252ad1be2c89b69c2b068fc378daa952ba7f163c4a11628f55a4df523b3ef60405160405180910390a461101d838383600161164d565b505050565b61102a610bd3565b73ffffffffffffffffffffffffffffffffffffffff16611048610888565b73ffffffffffffffffffffffffffffffffffffffff161461109e576040517f08c379a000000000000000000000000000000000000000000000000000000000815260040161109590612a9b565b60405180910390fd5b565b6110a8611653565b6000600760006101000a81548160ff0219169083151502179055507f5db9ee0a495bf2e6ff9c91a7834c1ba4fdd244a5e8aa4e537bd38aeae4b073aa6110ec610bd3565b6040516110f991906120f3565b60405180910390a1565b60006002600083815260200190815260200160002060009054906101000a900473ffffffffffffffffffffffffffffffffffffffff169050919050565b6000600760019054906101000a900473ffffffffffffffffffffffffffffffffffffffff16905081600760016101000a81548173ffffffffffffffffffffffffffffffffffffffff021916908373ffffffffffffffffffffffffffffffffffffffff1602179055508173ffffffffffffffffffffffffffffffffffffffff168173ffffffffffffffffffffffffffffffffffffffff167f8be0079c531659141344cd1fd0a4f28419497f9722a3daafe3b4186f6b6457e060405160405180910390a35050565b61120e61169c565b6001600760006101000a81548160ff0219169083151502179055507f62e78cea01bee320cd4e420270b5ea74000d11b0c9f74754ebdbfc544b05a258611252610bd3565b60405161125f91906120f3565b60405180910390a1565b8173ffffffffffffffffffffffffffffffffffffffff168373ffffffffffffffffffffffffffffffffffffffff16036112d7576040517f08c379a00000000000000000000000000000000000000000000000000000000081526004016112ce90612b07565b60405180910390fd5b80600560008573ffffffffffffffffffffffffffffffffffffffff1673ffffffffffffffffffffffffffffffffffffffff16815260200190815260200160002060008473ffffffffffffffffffffffffffffffffffffffff1673ffffffffffffffffffffffffffffffffffffffff16815260200190815260200160002060006101000a81548160ff0219169083151502179055508173ffffffffffffffffffffffffffffffffffffffff168373ffffffffffffffffffffffffffffffffffffffff167f17307eab39ab6107e8899845ad3d59bd9653f200f220920489ca2b5937696c31836040516113c89190611f82565b60405180910390a3505050565b6113e0848484610d29565b6113ec848484846116e6565b61142b576040517f08c379a000000000000000000000000000000000000000000000000000000000815260040161142290612b99565b60405180910390fd5b50505050565b606061143c82610b88565b600060066000848152602001908152602001600020805461145c906125b4565b80601f0160208091040260200160405190810160405280929190818152602001828054611488906125b4565b80156114d55780601f106114aa576101008083540402835291602001916114d5565b820191906000526020600020905b8154815290600101906020018083116114b857829003601f168201915b5050505050905060006114e661186d565b905060008151036114fb57819250505061153e565b600082511115611530578082604051602001611518929190612bf5565b6040516020818303038152906040529250505061153e565b61153984611884565b925050505b919050565b600081600001549050919050565b6001816000016000828254019250508190555050565b6115818282604051806020016040528060008152506118ec565b5050565b61158e826115f2565b6115cd576040517f08c379a00000000000000000000000000000000000000000000000000000000081526004016115c490612c8b565b60405180910390fd5b806006600084815260200190815260200160002090816115ed9190612e57565b505050565b60008073ffffffffffffffffffffffffffffffffffffffff1661161483611103565b73ffffffffffffffffffffffffffffffffffffffff1614159050919050565b61163b61169c565b61164784848484611947565b50505050565b50505050565b61165b61070e565b61169a576040517f08c379a000000000000000000000000000000000000000000000000000000000815260040161169190612f75565b60405180910390fd5b565b6116a461070e565b156116e4576040517f08c379a00000000000000000000000000000000000000000000000000000000081526004016116db90612fe1565b60405180910390fd5b565b60006117078473ffffffffffffffffffffffffffffffffffffffff16611a6d565b15611860578373ffffffffffffffffffffffffffffffffffffffff1663150b7a02611730610bd3565b8786866040518563ffffffff1660e01b81526004016117529493929190613056565b6020604051808303816000875af192505050801561178e57506040513d601f19601f8201168201806040525081019061178b91906130b7565b60015b611810573d80600081146117be576040519150601f19603f3d011682016040523d82523d6000602084013e6117c3565b606091505b506000815103611808576040517f08c379a00000000000000000000000000000000000000000000000000000000081526004016117ff90612b99565b60405180910390fd5b805181602001fd5b63150b7a0260e01b7bffffffffffffffffffffffffffffffffffffffffffffffffffffffff1916817bffffffffffffffffffffffffffffffffffffffffffffffffffffffff191614915050611865565b600190505b949350505050565b606060405180602001604052806000815250905090565b606061188f82610b88565b600061189961186d565b905060008151116118b957604051806020016040528060008152506118e4565b806118c384611a90565b6040516020016118d4929190612bf5565b6040516020818303038152906040525b915050919050565b6118f68383611b5e565b61190360008484846116e6565b611942576040517f08c379a000000000000000000000000000000000000000000000000000000000815260040161193990612b99565b60405180910390fd5b505050565b6001811115611a6757600073ffffffffffffffffffffffffffffffffffffffff168473ffffffffffffffffffffffffffffffffffffffff16146119db5780600360008673ffffffffffffffffffffffffffffffffffffffff1673ffffffffffffffffffffffffffffffffffffffff16815260200190815260200160002060008282546119d39190613113565b925050819055505b600073ffffffffffffffffffffffffffffffffffffffff168373ffffffffffffffffffffffffffffffffffffffff1614611a665780600360008573ffffffffffffffffffffffffffffffffffffffff1673ffffffffffffffffffffffffffffffffffffffff1681526020019081526020016000206000828254611a5e9190613147565b925050819055505b5b50505050565b6000808273ffffffffffffffffffffffffffffffffffffffff163b119050919050565b606060006001611a9f84611d7b565b01905060008167ffffffffffffffff811115611abe57611abd61229a565b5b6040519080825280601f01601f191660200182016040528015611af05781602001600182028036833780820191505090505b509050600082602001820190505b600115611b53578080600190039150507f3031323334353637383961626364656600000000000000000000000000000000600a86061a8153600a8581611b4757611b4661317b565b5b04945060008503611afe575b819350505050919050565b600073ffffffffffffffffffffffffffffffffffffffff168273ffffffffffffffffffffffffffffffffffffffff1603611bcd576040517f08c379a0000000000000000000000000000000000000000000000000000000008152600401611bc4906131f6565b60405180910390fd5b611bd6816115f2565b15611c16576040517f08c379a0000000000000000000000000000000000000000000000000000000008152600401611c0d90613262565b60405180910390fd5b611c24600083836001611633565b611c2d816115f2565b15611c6d576040517f08c379a0000000000000000000000000000000000000000000000000000000008152600401611c6490613262565b60405180910390fd5b6001600360008473ffffffffffffffffffffffffffffffffffffffff1673ffffffffffffffffffffffffffffffffffffffff16815260200190815260200160002060008282540192505081905550816002600083815260200190815260200160002060006101000a81548173ffffffffffffffffffffffffffffffffffffffff021916908373ffffffffffffffffffffffffffffffffffffffff160217905550808273ffffffffffffffffffffffffffffffffffffffff16600073ffffffffffffffffffffffffffffffffffffffff167fddf252ad1be2c89b69c2b068fc378daa952ba7f163c4a11628f55a4df523b3ef60405160405180910390a4611d7760008383600161164d565b5050565b600080600090507a184f03e93ff9f4daa797ed6e38ed64bf6a1f0100000000000000008310611dd9577a184f03e93ff9f4daa797ed6e38ed64bf6a1f0100000000000000008381611dcf57611dce61317b565b5b0492506040810190505b6d04ee2d6d415b85acef81000000008310611e16576d04ee2d6d415b85acef81000000008381611e0c57611e0b61317b565b5b0492506020810190505b662386f26fc100008310611e4557662386f26fc100008381611e3b57611e3a61317b565b5b0492506010810190505b6305f5e1008310611e6e576305f5e1008381611e6457611e6361317b565b5b0492506008810190505b6127108310611e93576127108381611e8957611e8861317b565b5b0492506004810190505b60648310611eb65760648381611eac57611eab61317b565b5b0492506002810190505b600a8310611ec5576001810190505b80915050919050565b6000604051905090565b600080fd5b600080fd5b60007fffffffff0000000000000000000000000000000000000000000000000000000082169050919050565b611f1781611ee2565b8114611f2257600080fd5b50565b600081359050611f3481611f0e565b92915050565b600060208284031215611f5057611f4f611ed8565b5b6000611f5e84828501611f25565b91505092915050565b60008115159050919050565b611f7c81611f67565b82525050565b6000602082019050611f976000830184611f73565b92915050565b600081519050919050565b600082825260208201905092915050565b60005b83811015611fd7578082015181840152602081019050611fbc565b60008484015250505050565b6000601f19601f8301169050919050565b6000611fff82611f9d565b6120098185611fa8565b9350612019818560208601611fb9565b61202281611fe3565b840191505092915050565b600060208201905081810360008301526120478184611ff4565b905092915050565b6000819050919050565b6120628161204f565b811461206d57600080fd5b50565b60008135905061207f81612059565b92915050565b60006020828403121561209b5761209a611ed8565b5b60006120a984828501612070565b91505092915050565b600073ffffffffffffffffffffffffffffffffffffffff82169050919050565b60006120dd826120b2565b9050919050565b6120ed816120d2565b82525050565b600060208201905061210860008301846120e4565b92915050565b612117816120d2565b811461212257600080fd5b50565b6000813590506121348161210e565b92915050565b6000806040838503121561215157612150611ed8565b5b600061215f85828601612125565b925050602061217085828601612070565b9150509250929050565b60008060006060848603121561219357612192611ed8565b5b60006121a186828701612125565b93505060206121b286828701612125565b92505060406121c386828701612070565b9150509250925092565b6000602082840312156121e3576121e2611ed8565b5b60006121f184828501612125565b91505092915050565b6122038161204f565b82525050565b600060208201905061221e60008301846121fa565b92915050565b61222d81611f67565b811461223857600080fd5b50565b60008135905061224a81612224565b92915050565b6000806040838503121561226757612266611ed8565b5b600061227585828601612125565b92505060206122868582860161223b565b9150509250929050565b600080fd5b600080fd5b7f4e487b7100000000000000000000000000000000000000000000000000000000600052604160045260246000fd5b6122d282611fe3565b810181811067ffffffffffffffff821117156122f1576122f061229a565b5b80604052505050565b6000612304611ece565b905061231082826122c9565b919050565b600067ffffffffffffffff8211156123305761232f61229a565b5b61233982611fe3565b9050602081019050919050565b82818337600083830152505050565b600061236861236384612315565b6122fa565b90508281526020810184848401111561238457612383612295565b5b61238f848285612346565b509392505050565b600082601f8301126123ac576123ab612290565b5b81356123bc848260208601612355565b91505092915050565b600080600080608085870312156123df576123de611ed8565b5b60006123ed87828801612125565b94505060206123fe87828801612125565b935050604061240f87828801612070565b925050606085013567ffffffffffffffff8111156124305761242f611edd565b5b61243c87828801612397565b91505092959194509250565b600067ffffffffffffffff8211156124635761246261229a565b5b61246c82611fe3565b9050602081019050919050565b600061248c61248784612448565b6122fa565b9050828152602081018484840111156124a8576124a7612295565b5b6124b3848285612346565b509392505050565b600082601f8301126124d0576124cf612290565b5b81356124e0848260208601612479565b91505092915050565b60008060408385031215612500576124ff611ed8565b5b600061250e85828601612125565b925050602083013567ffffffffffffffff81111561252f5761252e611edd565b5b61253b858286016124bb565b9150509250929050565b6000806040838503121561255c5761255b611ed8565b5b600061256a85828601612125565b925050602061257b85828601612125565b9150509250929050565b7f4e487b7100000000000000000000000000000000000000000000000000000000600052602260045260246000fd5b600060028204905060018216806125cc57607f821691505b6020821081036125df576125de612585565b5b50919050565b7f4552433732313a20617070726f76616c20746f2063757272656e74206f776e6560008201527f7200000000000000000000000000000000000000000000000000000000000000602082015250565b6000612641602183611fa8565b915061264c826125e5565b604082019050919050565b6000602082019050818103600083015261267081612634565b9050919050565b7f4552433732313a20617070726f76652063616c6c6572206973206e6f7420746f60008201527f6b656e206f776e6572206f7220617070726f76656420666f7220616c6c000000602082015250565b60006126d3603d83611fa8565b91506126de82612677565b604082019050919050565b60006020820190508181036000830152612702816126c6565b9050919050565b7f4552433732313a2063616c6c6572206973206e6f7420746f6b656e206f776e6560008201527f72206f7220617070726f76656400000000000000000000000000000000000000602082015250565b6000612765602d83611fa8565b915061277082612709565b604082019050919050565b6000602082019050818103600083015261279481612758565b9050919050565b7f4552433732313a20696e76616c696420746f6b656e2049440000000000000000600082015250565b60006127d1601883611fa8565b91506127dc8261279b565b602082019050919050565b60006020820190508181036000830152612800816127c4565b9050919050565b7f4552433732313a2061646472657373207a65726f206973206e6f74206120766160008201527f6c6964206f776e65720000000000000000000000000000000000000000000000602082015250565b6000612863602983611fa8565b915061286e82612807565b604082019050919050565b6000602082019050818103600083015261289281612856565b9050919050565b7f4f776e61626c653a206e6577206f776e657220697320746865207a65726f206160008201527f6464726573730000000000000000000000000000000000000000000000000000602082015250565b60006128f5602683611fa8565b915061290082612899565b604082019050919050565b60006020820190508181036000830152612924816128e8565b9050919050565b7f4552433732313a207472616e736665722066726f6d20696e636f72726563742060008201527f6f776e6572000000000000000000000000000000000000000000000000000000602082015250565b6000612987602583611fa8565b91506129928261292b565b604082019050919050565b600060208201905081810360008301526129b68161297a565b9050919050565b7f4552433732313a207472616e7366657220746f20746865207a65726f2061646460008201527f7265737300000000000000000000000000000000000000000000000000000000602082015250565b6000612a19602483611fa8565b9150612a24826129bd565b604082019050919050565b60006020820190508181036000830152612a4881612a0c565b9050919050565b7f4f776e61626c653a2063616c6c6572206973206e6f7420746865206f776e6572600082015250565b6000612a85602083611fa8565b9150612a9082612a4f565b602082019050919050565b60006020820190508181036000830152612ab481612a78565b9050919050565b7f4552433732313a20617070726f766520746f2063616c6c657200000000000000600082015250565b6000612af1601983611fa8565b9150612afc82612abb565b602082019050919050565b60006020820190508181036000830152612b2081612ae4565b9050919050565b7f4552433732313a207472616e7366657220746f206e6f6e20455243373231526560008201527f63656976657220696d706c656d656e7465720000000000000000000000000000602082015250565b6000612b83603283611fa8565b9150612b8e82612b27565b604082019050919050565b60006020820190508181036000830152612bb281612b76565b9050919050565b600081905092915050565b6000612bcf82611f9d565b612bd98185612bb9565b9350612be9818560208601611fb9565b80840191505092915050565b6000612c018285612bc4565b9150612c0d8284612bc4565b91508190509392505050565b7f45524337323155524953746f726167653a2055524920736574206f66206e6f6e60008201527f6578697374656e7420746f6b656e000000000000000000000000000000000000602082015250565b6000612c75602e83611fa8565b9150612c8082612c19565b604082019050919050565b60006020820190508181036000830152612ca481612c68565b9050919050565b60008190508160005260206000209050919050565b60006020601f8301049050919050565b600082821b905092915050565b600060088302612d0d7fffffffffffffffffffffffffffffffffffffffffffffffffffffffffffffffff82612cd0565b612d178683612cd0565b95508019841693508086168417925050509392505050565b6000819050919050565b6000612d54612d4f612d4a8461204f565b612d2f565b61204f565b9050919050565b6000819050919050565b612d6e83612d39565b612d82612d7a82612d5b565b848454612cdd565b825550505050565b600090565b612d97612d8a565b612da2818484612d65565b505050565b5b81811015612dc657612dbb600082612d8f565b600181019050612da8565b5050565b601f821115612e0b57612ddc81612cab565b612de584612cc0565b81016020851015612df4578190505b612e08612e0085612cc0565b830182612da7565b50505b505050565b600082821c905092915050565b6000612e2e60001984600802612e10565b1980831691505092915050565b6000612e478383612e1d565b9150826002028217905092915050565b612e6082611f9d565b67ffffffffffffffff811115612e7957612e7861229a565b5b612e8382546125b4565b612e8e828285612dca565b600060209050601f831160018114612ec15760008415612eaf578287015190505b612eb98582612e3b565b865550612f21565b601f198416612ecf86612cab565b60005b82811015612ef757848901518255600182019150602085019450602081019050612ed2565b86831015612f145784890151612f10601f891682612e1d565b8355505b6001600288020188555050505b505050505050565b7f5061757361626c653a206e6f7420706175736564000000000000000000000000600082015250565b6000612f5f601483611fa8565b9150612f6a82612f29565b602082019050919050565b60006020820190508181036000830152612f8e81612f52565b9050919050565b7f5061757361626c653a2070617573656400000000000000000000000000000000600082015250565b6000612fcb601083611fa8565b9150612fd682612f95565b602082019050919050565b60006020820190508181036000830152612ffa81612fbe565b9050919050565b600081519050919050565b600082825260208201905092915050565b600061302882613001565b613032818561300c565b9350613042818560208601611fb9565b61304b81611fe3565b840191505092915050565b600060808201905061306b60008301876120e4565b61307860208301866120e4565b61308560408301856121fa565b8181036060830152613097818461301d565b905095945050505050565b6000815190506130b181611f0e565b92915050565b6000602082840312156130cd576130cc611ed8565b5b60006130db848285016130a2565b91505092915050565b7f4e487b7100000000000000000000000000000000000000000000000000000000600052601160045260246000fd5b600061311e8261204f565b91506131298361204f565b9250828203905081811115613141576131406130e4565b5b92915050565b60006131528261204f565b915061315d8361204f565b9250828201905080821115613175576131746130e4565b5b92915050565b7f4e487b7100000000000000000000000000000000000000000000000000000000600052601260045260246000fd5b7f4552433732313a206d696e7420746f20746865207a65726f2061646472657373600082015250565b60006131e0602083611fa8565b91506131eb826131aa565b602082019050919050565b6000602082019050818103600083015261320f816131d3565b9050919050565b7f4552433732313a20746f6b656e20616c7265616479206d696e74656400000000600082015250565b600061324c601c83611fa8565b915061325782613216565b602082019050919050565b6000602082019050818103600083015261327b8161323f565b905091905056fea26469706673582212208e417f6503571cf73d382808ac05a181ecd8a57f4df35d6f4264a4ad2b2bb86464736f6c63430008100033a2646970667358221220603b12fa4681d73ef029750673c7c6c555e8e256cef24982d31f450f13a537e764736f6c63430008100033",
  "immutableReferences": {},
  "source": "// SPDX-License-Identifier: Leluk\npragma solidity ^0.8.7;\n\n\nimport './coreFunction.sol';\nimport \"./NFTSTandartURI.sol\";\nimport \"./NFTMintableProgressiveStorageURIpausable.sol\";\nimport \"./NFTMintableProgressiveStorageURIBurnablePausable.sol\";\nimport \"./NFTMintableProgressiveStorageURIBurnable.sol\";\nimport \"./NFTMintableProgressiveStorageURI.sol\";\n\ncontract creatorToken is creatorTokenCoreFunction {\n    uint256 private balance;\n\n    uint256 private feesNFT;\n\n    constructor(uint256 _feesNFT) {\n        feesNFT = _feesNFT;\n    }\n\n    event CreateNewNFT(address indexed user, address nft);\n\n    function setFees(uint256 _newFees) external onlyOwner {\n        _setFees(_newFees);\n        emit NewValueFee(_newFees);\n    }\n\n    function getFees() public view returns (uint256 Fees) {\n        Fees = feesNFT;\n    }\n\n    function createNFtStandardstring(\n        address _owner,\n        string memory _name,\n        string memory _ticker,\n        string memory _tokenURI\n    ) public payable nonReentrant whenNotPaused returns (address _NftAddress) {\n        require(msg.value == feesNFT, \"Payament fees is faill\");\n        balance += feesNFT;\n        _NftAddress = _createNFtStandard(_owner, _name, _ticker, _tokenURI);\n        emit CreateNewNFT(msg.sender, _NftAddress);\n        return _NftAddress;\n    }\n\n    function createNftProStoURIpausable(\n        address _owner,\n        string memory _name,\n        string memory _ticker\n    ) public payable nonReentrant whenNotPaused returns (address _NftAddress) {\n        require(msg.value == feesNFT, \"Payament fees is faill\");\n        balance += feesNFT;\n        _NftAddress = _createNftProStoURIpausable(_owner, _name, _ticker);\n        emit CreateNewNFT(msg.sender, _NftAddress);\n        return _NftAddress;\n    }\n\n    function createNftProStoURIburnalblePausable(\n        address _owner,\n        string memory _name,\n        string memory _ticker\n    ) public payable nonReentrant whenNotPaused returns (address _NftAddress) {\n        require(msg.value == feesNFT, \"Payament fees is faill\");\n        balance += feesNFT;\n        _NftAddress = _createNftProStoURIburnalblePausable(\n            _owner,\n            _name,\n            _ticker\n        );\n        emit CreateNewNFT(msg.sender, _NftAddress);\n        return _NftAddress;\n    }\n\n    function createNftProStoURIburnalble(\n        address _owner,\n        string memory _name,\n        string memory _ticker\n    ) public payable nonReentrant whenNotPaused returns (address _NftAddress) {\n        require(msg.value == feesNFT, \"Payament fees is faill\");\n        balance += feesNFT;\n        _NftAddress = _createNftProStoURIburnalble(_owner, _name, _ticker);\n        emit CreateNewNFT(msg.sender, _NftAddress);\n        return _NftAddress;\n    }\n\n    function createNftMintableProURI(\n        address _owner,\n        string memory _name,\n        string memory _ticker\n    ) public payable nonReentrant whenNotPaused returns (address _NftAddress) {\n        require(msg.value == feesNFT, \"Payament fees is faill\");\n        balance += feesNFT;\n        _NftAddress = _createNftMintableProURI(_owner, _name, _ticker);\n        emit CreateNewNFT(msg.sender, _NftAddress);\n        return _NftAddress;\n    }\n\n    function _setFees(uint256 _newFees) private {\n        feesNFT = _newFees;\n    }\n\n    function _createNFtStandard(\n        address _owner,\n        string memory _name,\n        string memory _ticker,\n        string memory _tokenURI\n    ) private returns (address _NftAddress) {\n        erc721Standard _erc721Standard = new erc721Standard(\n            _name,\n            _ticker,\n            _tokenURI,\n            _owner\n        );\n        return _NftAddress = address(_erc721Standard);\n    }\n\n    function _createNftProStoURIpausable(\n        address _owner,\n        string memory _name,\n        string memory _ticker\n    ) private returns (address _NftAddress) {\n        Erc721ProStoURIpausable _Erc721ProStoURIpausable = new Erc721ProStoURIpausable(\n                _name,\n                _ticker,\n                _owner\n            );\n        return _NftAddress = address(_Erc721ProStoURIpausable);\n    }\n\n    function _createNftProStoURIburnalblePausable(\n        address _owner,\n        string memory _name,\n        string memory _ticker\n    ) private returns (address _NftAddress) {\n        Erc721ProStoURIburnalblePausable _Erc721ProStoURIburnalblePausable = new Erc721ProStoURIburnalblePausable(\n                _name,\n                _ticker,\n                _owner\n            );\n        return _NftAddress = address(_Erc721ProStoURIburnalblePausable);\n    }\n\n    function _createNftProStoURIburnalble(\n        address _owner,\n        string memory _name,\n        string memory _ticker\n    ) private returns (address _NftAddress) {\n        Erc721ProStoURIburnalble _Erc721ProStoURIburnalble = new Erc721ProStoURIburnalble(\n                _name,\n                _ticker,\n                _owner\n            );\n        return _NftAddress = address(_Erc721ProStoURIburnalble);\n    }\n\n    function _createNftMintableProURI(\n        address _owner,\n        string memory _name,\n        string memory _ticker\n    ) private returns (address _NftAddress) {\n        erc721MintableProURI _erc721MintableProURI = new erc721MintableProURI(\n            _name,\n            _ticker,\n            _owner\n        );\n        return _NftAddress = address(_erc721MintableProURI);\n    }\n\n}\n",
  "sourcePath": "/run/media/luk/storage/Studio Dev/tutorial-react/corso next.js/esercizi/Contract personal-page/contracts/CreateNFT.sol",
  "compiler": {
    "name": "solc",
    "version": "0.8.16+commit.07a7930e.Emscripten.clang"
  },
  "schemaVersion": "3.4.9",
  "updatedAt": "2022-12-06T16:19:23.722Z",
  "devdoc": {
    "kind": "dev",
    "methods": {
      "owner()": {
        "details": "Returns the address of the current owner."
      },
      "paused()": {
        "details": "Returns true if the contract is paused, and false otherwise."
      },
      "renounceOwnership()": {
        "details": "Leaves the contract without owner. It will not be possible to call `onlyOwner` functions anymore. Can only be called by the current owner. NOTE: Renouncing ownership will leave the contract without an owner, thereby removing any functionality that is only available to the owner."
      },
      "transferOwnership(address)": {
        "details": "Transfers ownership of the contract to a new account (`newOwner`). Can only be called by the current owner."
      }
    },
    "version": 1
  },
  "userdoc": {
    "kind": "user",
    "methods": {},
    "version": 1
  }
}