{
  "contractName": "creatorToken",
  "abi": [
    {
      "inputs": [
        {
          "internalType": "uint256",
          "name": "_fees",
          "type": "uint256"
        }
      ],
      "stateMutability": "nonpayable",
      "type": "constructor"
    },
    {
      "anonymous": false,
      "inputs": [
        {
          "indexed": true,
          "internalType": "address",
          "name": "sender",
          "type": "address"
        },
        {
          "indexed": false,
          "internalType": "address",
          "name": "token",
          "type": "address"
        }
      ],
      "name": "CreateNewToken",
      "type": "event"
    },
    {
      "anonymous": false,
      "inputs": [
        {
          "indexed": true,
          "internalType": "address",
          "name": "previousOwner",
          "type": "address"
        },
        {
          "indexed": true,
          "internalType": "address",
          "name": "newOwner",
          "type": "address"
        }
      ],
      "name": "OwnershipTransferred",
      "type": "event"
    },
    {
      "anonymous": false,
      "inputs": [
        {
          "indexed": false,
          "internalType": "address",
          "name": "account",
          "type": "address"
        }
      ],
      "name": "Paused",
      "type": "event"
    },
    {
      "anonymous": false,
      "inputs": [
        {
          "indexed": false,
          "internalType": "address",
          "name": "account",
          "type": "address"
        }
      ],
      "name": "Unpaused",
      "type": "event"
    },
    {
      "stateMutability": "payable",
      "type": "fallback",
      "payable": true
    },
    {
      "inputs": [],
      "name": "owner",
      "outputs": [
        {
          "internalType": "address",
          "name": "",
          "type": "address"
        }
      ],
      "stateMutability": "view",
      "type": "function",
      "constant": true
    },
    {
      "inputs": [],
      "name": "paused",
      "outputs": [
        {
          "internalType": "bool",
          "name": "",
          "type": "bool"
        }
      ],
      "stateMutability": "view",
      "type": "function",
      "constant": true
    },
    {
      "inputs": [],
      "name": "renounceOwnership",
      "outputs": [],
      "stateMutability": "nonpayable",
      "type": "function"
    },
    {
      "inputs": [
        {
          "internalType": "address",
          "name": "newOwner",
          "type": "address"
        }
      ],
      "name": "transferOwnership",
      "outputs": [],
      "stateMutability": "nonpayable",
      "type": "function"
    },
    {
      "stateMutability": "payable",
      "type": "receive",
      "payable": true
    },
    {
      "inputs": [],
      "name": "setPause",
      "outputs": [],
      "stateMutability": "nonpayable",
      "type": "function"
    },
    {
      "inputs": [],
      "name": "setUnpause",
      "outputs": [],
      "stateMutability": "nonpayable",
      "type": "function"
    },
    {
      "inputs": [
        {
          "internalType": "string",
          "name": "_name",
          "type": "string"
        },
        {
          "internalType": "string",
          "name": "_ticker",
          "type": "string"
        },
        {
          "internalType": "uint256",
          "name": "_supply",
          "type": "uint256"
        },
        {
          "internalType": "address",
          "name": "_recipient",
          "type": "address"
        }
      ],
      "name": "createFixSupply",
      "outputs": [
        {
          "internalType": "address",
          "name": "_tokenAddress",
          "type": "address"
        }
      ],
      "stateMutability": "nonpayable",
      "type": "function"
    },
    {
      "inputs": [
        {
          "internalType": "string",
          "name": "_name",
          "type": "string"
        },
        {
          "internalType": "string",
          "name": "_ticker",
          "type": "string"
        },
        {
          "internalType": "uint256",
          "name": "_supply",
          "type": "uint256"
        },
        {
          "internalType": "address",
          "name": "_recipient",
          "type": "address"
        }
      ],
      "name": "createFixSupplyPausable",
      "outputs": [
        {
          "internalType": "address",
          "name": "_tokenAddress",
          "type": "address"
        }
      ],
      "stateMutability": "nonpayable",
      "type": "function"
    },
    {
      "inputs": [
        {
          "internalType": "string",
          "name": "_name",
          "type": "string"
        },
        {
          "internalType": "string",
          "name": "_ticker",
          "type": "string"
        },
        {
          "internalType": "uint256",
          "name": "_supply",
          "type": "uint256"
        },
        {
          "internalType": "address",
          "name": "_recipient",
          "type": "address"
        }
      ],
      "name": "createVariableSupply",
      "outputs": [
        {
          "internalType": "address",
          "name": "_tokenAddress",
          "type": "address"
        }
      ],
      "stateMutability": "nonpayable",
      "type": "function"
    },
    {
      "inputs": [
        {
          "internalType": "string",
          "name": "_name",
          "type": "string"
        },
        {
          "internalType": "string",
          "name": "_ticker",
          "type": "string"
        },
        {
          "internalType": "uint256",
          "name": "_supply",
          "type": "uint256"
        },
        {
          "internalType": "address",
          "name": "_recipient",
          "type": "address"
        }
      ],
      "name": "createVariableSupplyPausable",
      "outputs": [
        {
          "internalType": "address",
          "name": "_tokenAddress",
          "type": "address"
        }
      ],
      "stateMutability": "nonpayable",
      "type": "function"
    }
  ],
  "bytecode": "0x60806040523480156200001157600080fd5b50604051620033ff380380620033ff833981810160405281019062000037919062000193565b620000576200004b6200008760201b60201c565b6200008f60201b60201c565b600180819055506000600260006101000a81548160ff0219169083151502179055508060048190555050620001c5565b600033905090565b60008060009054906101000a900473ffffffffffffffffffffffffffffffffffffffff169050816000806101000a81548173ffffffffffffffffffffffffffffffffffffffff021916908373ffffffffffffffffffffffffffffffffffffffff1602179055508173ffffffffffffffffffffffffffffffffffffffff168173ffffffffffffffffffffffffffffffffffffffff167f8be0079c531659141344cd1fd0a4f28419497f9722a3daafe3b4186f6b6457e060405160405180910390a35050565b600080fd5b6000819050919050565b6200016d8162000158565b81146200017957600080fd5b50565b6000815190506200018d8162000162565b92915050565b600060208284031215620001ac57620001ab62000153565b5b6000620001bc848285016200017c565b91505092915050565b61322a80620001d56000396000f3fe608060405260043610620000a35760003560e01c8063715018a61162000061578063715018a61462000201578063848cb5c6146200021b5780638da5cb5b1462000235578063d431b1ac1462000265578063f2fde38b146200027f57620000b5565b8063067c587b14620000c157806326b239411462000105578063508ee9e3146200014957806355f6cf4f146200018d5780635c975abb14620001d157620000b5565b36620000b557620000b3620002ad565b005b620000bf620002ad565b005b348015620000ce57600080fd5b50620000ed6004803603810190620000e7919062000e90565b620002af565b604051620000fc919062000f51565b60405180910390f35b3480156200011257600080fd5b506200013160048036038101906200012b919062000e90565b62000400565b60405162000140919062000f51565b60405180910390f35b3480156200015657600080fd5b506200017560048036038101906200016f919062000e90565b62000551565b60405162000184919062000f51565b60405180910390f35b3480156200019a57600080fd5b50620001b96004803603810190620001b3919062000e90565b620006a2565b604051620001c8919062000f51565b60405180910390f35b348015620001de57600080fd5b50620001e9620007f3565b604051620001f8919062000f8b565b60405180910390f35b3480156200020e57600080fd5b50620002196200080a565b005b3480156200022857600080fd5b506200023362000822565b005b3480156200024257600080fd5b506200024d62000838565b6040516200025c919062000f51565b60405180910390f35b3480156200027257600080fd5b506200027d62000861565b005b3480156200028c57600080fd5b50620002ab6004803603810190620002a5919062000fa8565b62000877565b005b565b6000620002bb62000901565b60003073ffffffffffffffffffffffffffffffffffffffff16600454604051620002e5906200100f565b60006040518083038185875af1925050503d806000811462000324576040519150601f19603f3d011682016040523d82523d6000602084013e62000329565b606091505b505090508062000370576040517f08c379a0000000000000000000000000000000000000000000000000000000008152600401620003679062001087565b60405180910390fd5b60045460036000828254620003869190620010d8565b925050819055506200039b8686868662000953565b91503373ffffffffffffffffffffffffffffffffffffffff167f8912a674b22f9fd1ed789817e948b74d3007ae436a6e4fcdd80322a3973bfda583604051620003e5919062000f51565b60405180910390a250620003f8620009a3565b949350505050565b60006200040c62000901565b60003073ffffffffffffffffffffffffffffffffffffffff1660045460405162000436906200100f565b60006040518083038185875af1925050503d806000811462000475576040519150601f19603f3d011682016040523d82523d6000602084013e6200047a565b606091505b5050905080620004c1576040517f08c379a0000000000000000000000000000000000000000000000000000000008152600401620004b89062001087565b60405180910390fd5b60045460036000828254620004d79190620010d8565b92505081905550620004ec8686868662000953565b91503373ffffffffffffffffffffffffffffffffffffffff167f8912a674b22f9fd1ed789817e948b74d3007ae436a6e4fcdd80322a3973bfda58360405162000536919062000f51565b60405180910390a25062000549620009a3565b949350505050565b60006200055d62000901565b60003073ffffffffffffffffffffffffffffffffffffffff1660045460405162000587906200100f565b60006040518083038185875af1925050503d8060008114620005c6576040519150601f19603f3d011682016040523d82523d6000602084013e620005cb565b606091505b505090508062000612576040517f08c379a0000000000000000000000000000000000000000000000000000000008152600401620006099062001087565b60405180910390fd5b60045460036000828254620006289190620010d8565b925050819055506200063d8686868662000953565b91503373ffffffffffffffffffffffffffffffffffffffff167f8912a674b22f9fd1ed789817e948b74d3007ae436a6e4fcdd80322a3973bfda58360405162000687919062000f51565b60405180910390a2506200069a620009a3565b949350505050565b6000620006ae62000901565b60003073ffffffffffffffffffffffffffffffffffffffff16600454604051620006d8906200100f565b60006040518083038185875af1925050503d806000811462000717576040519150601f19603f3d011682016040523d82523d6000602084013e6200071c565b606091505b505090508062000763576040517f08c379a00000000000000000000000000000000000000000000000000000000081526004016200075a9062001087565b60405180910390fd5b60045460036000828254620007799190620010d8565b925050819055506200078e8686868662000953565b91503373ffffffffffffffffffffffffffffffffffffffff167f8912a674b22f9fd1ed789817e948b74d3007ae436a6e4fcdd80322a3973bfda583604051620007d8919062000f51565b60405180910390a250620007eb620009a3565b949350505050565b6000600260009054906101000a900460ff16905090565b62000814620009ac565b62000820600062000a31565b565b6200082c620009ac565b6200083662000af5565b565b60008060009054906101000a900473ffffffffffffffffffffffffffffffffffffffff16905090565b6200086b620009ac565b6200087562000b5e565b565b62000881620009ac565b600073ffffffffffffffffffffffffffffffffffffffff168173ffffffffffffffffffffffffffffffffffffffff1603620008f3576040517f08c379a0000000000000000000000000000000000000000000000000000000008152600401620008ea9062001189565b60405180910390fd5b620008fe8162000a31565b50565b60026001540362000949576040517f08c379a00000000000000000000000000000000000000000000000000000000081526004016200094090620011fb565b60405180910390fd5b6002600181905550565b60008085858585604051620009689062000c6c565b620009779493929190620012a6565b604051809103906000f08015801562000994573d6000803e3d6000fd5b50905080915050949350505050565b60018081905550565b620009b662000bc7565b73ffffffffffffffffffffffffffffffffffffffff16620009d662000838565b73ffffffffffffffffffffffffffffffffffffffff161462000a2f576040517f08c379a000000000000000000000000000000000000000000000000000000000815260040162000a269062001351565b60405180910390fd5b565b60008060009054906101000a900473ffffffffffffffffffffffffffffffffffffffff169050816000806101000a81548173ffffffffffffffffffffffffffffffffffffffff021916908373ffffffffffffffffffffffffffffffffffffffff1602179055508173ffffffffffffffffffffffffffffffffffffffff168173ffffffffffffffffffffffffffffffffffffffff167f8be0079c531659141344cd1fd0a4f28419497f9722a3daafe3b4186f6b6457e060405160405180910390a35050565b62000aff62000bcf565b6000600260006101000a81548160ff0219169083151502179055507f5db9ee0a495bf2e6ff9c91a7834c1ba4fdd244a5e8aa4e537bd38aeae4b073aa62000b4562000bc7565b60405162000b54919062000f51565b60405180910390a1565b62000b6862000c1d565b6001600260006101000a81548160ff0219169083151502179055507f62e78cea01bee320cd4e420270b5ea74000d11b0c9f74754ebdbfc544b05a25862000bae62000bc7565b60405162000bbd919062000f51565b60405180910390a1565b600033905090565b62000bd9620007f3565b62000c1b576040517f08c379a000000000000000000000000000000000000000000000000000000000815260040162000c1290620013c3565b60405180910390fd5b565b62000c27620007f3565b1562000c6a576040517f08c379a000000000000000000000000000000000000000000000000000000000815260040162000c619062001435565b60405180910390fd5b565b611d9d806200145883390190565b6000604051905090565b600080fd5b600080fd5b600080fd5b600080fd5b6000601f19601f8301169050919050565b7f4e487b7100000000000000000000000000000000000000000000000000000000600052604160045260246000fd5b62000ce38262000c98565b810181811067ffffffffffffffff8211171562000d055762000d0462000ca9565b5b80604052505050565b600062000d1a62000c7a565b905062000d28828262000cd8565b919050565b600067ffffffffffffffff82111562000d4b5762000d4a62000ca9565b5b62000d568262000c98565b9050602081019050919050565b82818337600083830152505050565b600062000d8962000d838462000d2d565b62000d0e565b90508281526020810184848401111562000da85762000da762000c93565b5b62000db584828562000d63565b509392505050565b600082601f83011262000dd55762000dd462000c8e565b5b813562000de784826020860162000d72565b91505092915050565b6000819050919050565b62000e058162000df0565b811462000e1157600080fd5b50565b60008135905062000e258162000dfa565b92915050565b600073ffffffffffffffffffffffffffffffffffffffff82169050919050565b600062000e588262000e2b565b9050919050565b62000e6a8162000e4b565b811462000e7657600080fd5b50565b60008135905062000e8a8162000e5f565b92915050565b6000806000806080858703121562000ead5762000eac62000c84565b5b600085013567ffffffffffffffff81111562000ece5762000ecd62000c89565b5b62000edc8782880162000dbd565b945050602085013567ffffffffffffffff81111562000f005762000eff62000c89565b5b62000f0e8782880162000dbd565b935050604062000f218782880162000e14565b925050606062000f348782880162000e79565b91505092959194509250565b62000f4b8162000e4b565b82525050565b600060208201905062000f68600083018462000f40565b92915050565b60008115159050919050565b62000f858162000f6e565b82525050565b600060208201905062000fa2600083018462000f7a565b92915050565b60006020828403121562000fc15762000fc062000c84565b5b600062000fd18482850162000e79565b91505092915050565b600081905092915050565b50565b600062000ff760008362000fda565b9150620010048262000fe5565b600082019050919050565b60006200101c8262000fe8565b9150819050919050565b600082825260208201905092915050565b7f506179616d656e742066656573206973206661696c6c00000000000000000000600082015250565b60006200106f60168362001026565b91506200107c8262001037565b602082019050919050565b60006020820190508181036000830152620010a28162001060565b9050919050565b7f4e487b7100000000000000000000000000000000000000000000000000000000600052601160045260246000fd5b6000620010e58262000df0565b9150620010f28362000df0565b92508282019050808211156200110d576200110c620010a9565b5b92915050565b7f4f776e61626c653a206e6577206f776e657220697320746865207a65726f206160008201527f6464726573730000000000000000000000000000000000000000000000000000602082015250565b60006200117160268362001026565b91506200117e8262001113565b604082019050919050565b60006020820190508181036000830152620011a48162001162565b9050919050565b7f5265656e7472616e637947756172643a207265656e7472616e742063616c6c00600082015250565b6000620011e3601f8362001026565b9150620011f082620011ab565b602082019050919050565b600060208201905081810360008301526200121681620011d4565b9050919050565b600081519050919050565b60005b83811015620012485780820151818401526020810190506200122b565b60008484015250505050565b600062001261826200121d565b6200126d818562001026565b93506200127f81856020860162001228565b6200128a8162000c98565b840191505092915050565b620012a08162000df0565b82525050565b60006080820190508181036000830152620012c2818762001254565b90508181036020830152620012d8818662001254565b9050620012e9604083018562001295565b620012f8606083018462000f40565b95945050505050565b7f4f776e61626c653a2063616c6c6572206973206e6f7420746865206f776e6572600082015250565b60006200133960208362001026565b9150620013468262001301565b602082019050919050565b600060208201905081810360008301526200136c816200132a565b9050919050565b7f5061757361626c653a206e6f7420706175736564000000000000000000000000600082015250565b6000620013ab60148362001026565b9150620013b88262001373565b602082019050919050565b60006020820190508181036000830152620013de816200139c565b9050919050565b7f5061757361626c653a2070617573656400000000000000000000000000000000600082015250565b60006200141d60108362001026565b91506200142a82620013e5565b602082019050919050565b6000602082019050818103600083015262001450816200140e565b905091905056fe60806040523480156200001157600080fd5b5060405162001d9d38038062001d9d833981810160405281019062000037919062000458565b838381600390816200004a919062000749565b5080600490816200005c919062000749565b5050506200009b8162000074620000a560201b60201c565b600a620000829190620009c0565b846200008f919062000a11565b620000ae60201b60201c565b5050505062000b5e565b60006012905090565b600073ffffffffffffffffffffffffffffffffffffffff168273ffffffffffffffffffffffffffffffffffffffff160362000120576040517f08c379a0000000000000000000000000000000000000000000000000000000008152600401620001179062000ad3565b60405180910390fd5b62000134600083836200021b60201b60201c565b806002600082825462000148919062000af5565b92505081905550806000808473ffffffffffffffffffffffffffffffffffffffff1673ffffffffffffffffffffffffffffffffffffffff168152602001908152602001600020600082825401925050819055508173ffffffffffffffffffffffffffffffffffffffff16600073ffffffffffffffffffffffffffffffffffffffff167fddf252ad1be2c89b69c2b068fc378daa952ba7f163c4a11628f55a4df523b3ef83604051620001fb919062000b41565b60405180910390a362000217600083836200022060201b60201c565b5050565b505050565b505050565b6000604051905090565b600080fd5b600080fd5b600080fd5b600080fd5b6000601f19601f8301169050919050565b7f4e487b7100000000000000000000000000000000000000000000000000000000600052604160045260246000fd5b6200028e8262000243565b810181811067ffffffffffffffff82111715620002b057620002af62000254565b5b80604052505050565b6000620002c562000225565b9050620002d3828262000283565b919050565b600067ffffffffffffffff821115620002f657620002f562000254565b5b620003018262000243565b9050602081019050919050565b60005b838110156200032e57808201518184015260208101905062000311565b60008484015250505050565b6000620003516200034b84620002d8565b620002b9565b90508281526020810184848401111562000370576200036f6200023e565b5b6200037d8482856200030e565b509392505050565b600082601f8301126200039d576200039c62000239565b5b8151620003af8482602086016200033a565b91505092915050565b6000819050919050565b620003cd81620003b8565b8114620003d957600080fd5b50565b600081519050620003ed81620003c2565b92915050565b600073ffffffffffffffffffffffffffffffffffffffff82169050919050565b60006200042082620003f3565b9050919050565b620004328162000413565b81146200043e57600080fd5b50565b600081519050620004528162000427565b92915050565b600080600080608085870312156200047557620004746200022f565b5b600085015167ffffffffffffffff81111562000496576200049562000234565b5b620004a48782880162000385565b945050602085015167ffffffffffffffff811115620004c857620004c762000234565b5b620004d68782880162000385565b9350506040620004e987828801620003dc565b9250506060620004fc8782880162000441565b91505092959194509250565b600081519050919050565b7f4e487b7100000000000000000000000000000000000000000000000000000000600052602260045260246000fd5b600060028204905060018216806200055b57607f821691505b60208210810362000571576200057062000513565b5b50919050565b60008190508160005260206000209050919050565b60006020601f8301049050919050565b600082821b905092915050565b600060088302620005db7fffffffffffffffffffffffffffffffffffffffffffffffffffffffffffffffff826200059c565b620005e786836200059c565b95508019841693508086168417925050509392505050565b6000819050919050565b60006200062a620006246200061e84620003b8565b620005ff565b620003b8565b9050919050565b6000819050919050565b620006468362000609565b6200065e620006558262000631565b848454620005a9565b825550505050565b600090565b6200067562000666565b620006828184846200063b565b505050565b5b81811015620006aa576200069e6000826200066b565b60018101905062000688565b5050565b601f821115620006f957620006c38162000577565b620006ce846200058c565b81016020851015620006de578190505b620006f6620006ed856200058c565b83018262000687565b50505b505050565b600082821c905092915050565b60006200071e60001984600802620006fe565b1980831691505092915050565b60006200073983836200070b565b9150826002028217905092915050565b620007548262000508565b67ffffffffffffffff81111562000770576200076f62000254565b5b6200077c825462000542565b62000789828285620006ae565b600060209050601f831160018114620007c15760008415620007ac578287015190505b620007b885826200072b565b86555062000828565b601f198416620007d18662000577565b60005b82811015620007fb57848901518255600182019150602085019450602081019050620007d4565b868310156200081b578489015162000817601f8916826200070b565b8355505b6001600288020188555050505b505050505050565b7f4e487b7100000000000000000000000000000000000000000000000000000000600052601160045260246000fd5b60008160011c9050919050565b6000808291508390505b6001851115620008be5780860481111562000896576200089562000830565b5b6001851615620008a65780820291505b8081029050620008b6856200085f565b945062000876565b94509492505050565b600082620008d95760019050620009ac565b81620008e95760009050620009ac565b81600181146200090257600281146200090d5762000943565b6001915050620009ac565b60ff84111562000922576200092162000830565b5b8360020a9150848211156200093c576200093b62000830565b5b50620009ac565b5060208310610133831016604e8410600b84101617156200097d5782820a90508381111562000977576200097662000830565b5b620009ac565b6200098c84848460016200086c565b92509050818404811115620009a657620009a562000830565b5b81810290505b9392505050565b600060ff82169050919050565b6000620009cd82620003b8565b9150620009da83620009b3565b925062000a097fffffffffffffffffffffffffffffffffffffffffffffffffffffffffffffffff8484620008c7565b905092915050565b600062000a1e82620003b8565b915062000a2b83620003b8565b9250817fffffffffffffffffffffffffffffffffffffffffffffffffffffffffffffffff048311821515161562000a675762000a6662000830565b5b828202905092915050565b600082825260208201905092915050565b7f45524332303a206d696e7420746f20746865207a65726f206164647265737300600082015250565b600062000abb601f8362000a72565b915062000ac88262000a83565b602082019050919050565b6000602082019050818103600083015262000aee8162000aac565b9050919050565b600062000b0282620003b8565b915062000b0f83620003b8565b925082820190508082111562000b2a5762000b2962000830565b5b92915050565b62000b3b81620003b8565b82525050565b600060208201905062000b58600083018462000b30565b92915050565b61122f8062000b6e6000396000f3fe608060405234801561001057600080fd5b50600436106100a95760003560e01c80633950935111610071578063395093511461016857806370a082311461019857806395d89b41146101c8578063a457c2d7146101e6578063a9059cbb14610216578063dd62ed3e14610246576100a9565b806306fdde03146100ae578063095ea7b3146100cc57806318160ddd146100fc57806323b872dd1461011a578063313ce5671461014a575b600080fd5b6100b6610276565b6040516100c39190610b0c565b60405180910390f35b6100e660048036038101906100e19190610bc7565b610308565b6040516100f39190610c22565b60405180910390f35b61010461032b565b6040516101119190610c4c565b60405180910390f35b610134600480360381019061012f9190610c67565b610335565b6040516101419190610c22565b60405180910390f35b610152610364565b60405161015f9190610cd6565b60405180910390f35b610182600480360381019061017d9190610bc7565b61036d565b60405161018f9190610c22565b60405180910390f35b6101b260048036038101906101ad9190610cf1565b6103a4565b6040516101bf9190610c4c565b60405180910390f35b6101d06103ec565b6040516101dd9190610b0c565b60405180910390f35b61020060048036038101906101fb9190610bc7565b61047e565b60405161020d9190610c22565b60405180910390f35b610230600480360381019061022b9190610bc7565b6104f5565b60405161023d9190610c22565b60405180910390f35b610260600480360381019061025b9190610d1e565b610518565b60405161026d9190610c4c565b60405180910390f35b60606003805461028590610d8d565b80601f01602080910402602001604051908101604052809291908181526020018280546102b190610d8d565b80156102fe5780601f106102d3576101008083540402835291602001916102fe565b820191906000526020600020905b8154815290600101906020018083116102e157829003601f168201915b5050505050905090565b60008061031361059f565b90506103208185856105a7565b600191505092915050565b6000600254905090565b60008061034061059f565b905061034d858285610770565b6103588585856107fc565b60019150509392505050565b60006012905090565b60008061037861059f565b905061039981858561038a8589610518565b6103949190610ded565b6105a7565b600191505092915050565b60008060008373ffffffffffffffffffffffffffffffffffffffff1673ffffffffffffffffffffffffffffffffffffffff168152602001908152602001600020549050919050565b6060600480546103fb90610d8d565b80601f016020809104026020016040519081016040528092919081815260200182805461042790610d8d565b80156104745780601f1061044957610100808354040283529160200191610474565b820191906000526020600020905b81548152906001019060200180831161045757829003601f168201915b5050505050905090565b60008061048961059f565b905060006104978286610518565b9050838110156104dc576040517f08c379a00000000000000000000000000000000000000000000000000000000081526004016104d390610e93565b60405180910390fd5b6104e982868684036105a7565b60019250505092915050565b60008061050061059f565b905061050d8185856107fc565b600191505092915050565b6000600160008473ffffffffffffffffffffffffffffffffffffffff1673ffffffffffffffffffffffffffffffffffffffff16815260200190815260200160002060008373ffffffffffffffffffffffffffffffffffffffff1673ffffffffffffffffffffffffffffffffffffffff16815260200190815260200160002054905092915050565b600033905090565b600073ffffffffffffffffffffffffffffffffffffffff168373ffffffffffffffffffffffffffffffffffffffff1603610616576040517f08c379a000000000000000000000000000000000000000000000000000000000815260040161060d90610f25565b60405180910390fd5b600073ffffffffffffffffffffffffffffffffffffffff168273ffffffffffffffffffffffffffffffffffffffff1603610685576040517f08c379a000000000000000000000000000000000000000000000000000000000815260040161067c90610fb7565b60405180910390fd5b80600160008573ffffffffffffffffffffffffffffffffffffffff1673ffffffffffffffffffffffffffffffffffffffff16815260200190815260200160002060008473ffffffffffffffffffffffffffffffffffffffff1673ffffffffffffffffffffffffffffffffffffffff168152602001908152602001600020819055508173ffffffffffffffffffffffffffffffffffffffff168373ffffffffffffffffffffffffffffffffffffffff167f8c5be1e5ebec7d5bd14f71427d1e84f3dd0314c0f7b2291e5b200ac8c7c3b925836040516107639190610c4c565b60405180910390a3505050565b600061077c8484610518565b90507fffffffffffffffffffffffffffffffffffffffffffffffffffffffffffffffff81146107f657818110156107e8576040517f08c379a00000000000000000000000000000000000000000000000000000000081526004016107df90611023565b60405180910390fd5b6107f584848484036105a7565b5b50505050565b600073ffffffffffffffffffffffffffffffffffffffff168373ffffffffffffffffffffffffffffffffffffffff160361086b576040517f08c379a0000000000000000000000000000000000000000000000000000000008152600401610862906110b5565b60405180910390fd5b600073ffffffffffffffffffffffffffffffffffffffff168273ffffffffffffffffffffffffffffffffffffffff16036108da576040517f08c379a00000000000000000000000000000000000000000000000000000000081526004016108d190611147565b60405180910390fd5b6108e5838383610a72565b60008060008573ffffffffffffffffffffffffffffffffffffffff1673ffffffffffffffffffffffffffffffffffffffff1681526020019081526020016000205490508181101561096b576040517f08c379a0000000000000000000000000000000000000000000000000000000008152600401610962906111d9565b60405180910390fd5b8181036000808673ffffffffffffffffffffffffffffffffffffffff1673ffffffffffffffffffffffffffffffffffffffff16815260200190815260200160002081905550816000808573ffffffffffffffffffffffffffffffffffffffff1673ffffffffffffffffffffffffffffffffffffffff168152602001908152602001600020600082825401925050819055508273ffffffffffffffffffffffffffffffffffffffff168473ffffffffffffffffffffffffffffffffffffffff167fddf252ad1be2c89b69c2b068fc378daa952ba7f163c4a11628f55a4df523b3ef84604051610a599190610c4c565b60405180910390a3610a6c848484610a77565b50505050565b505050565b505050565b600081519050919050565b600082825260208201905092915050565b60005b83811015610ab6578082015181840152602081019050610a9b565b60008484015250505050565b6000601f19601f8301169050919050565b6000610ade82610a7c565b610ae88185610a87565b9350610af8818560208601610a98565b610b0181610ac2565b840191505092915050565b60006020820190508181036000830152610b268184610ad3565b905092915050565b600080fd5b600073ffffffffffffffffffffffffffffffffffffffff82169050919050565b6000610b5e82610b33565b9050919050565b610b6e81610b53565b8114610b7957600080fd5b50565b600081359050610b8b81610b65565b92915050565b6000819050919050565b610ba481610b91565b8114610baf57600080fd5b50565b600081359050610bc181610b9b565b92915050565b60008060408385031215610bde57610bdd610b2e565b5b6000610bec85828601610b7c565b9250506020610bfd85828601610bb2565b9150509250929050565b60008115159050919050565b610c1c81610c07565b82525050565b6000602082019050610c376000830184610c13565b92915050565b610c4681610b91565b82525050565b6000602082019050610c616000830184610c3d565b92915050565b600080600060608486031215610c8057610c7f610b2e565b5b6000610c8e86828701610b7c565b9350506020610c9f86828701610b7c565b9250506040610cb086828701610bb2565b9150509250925092565b600060ff82169050919050565b610cd081610cba565b82525050565b6000602082019050610ceb6000830184610cc7565b92915050565b600060208284031215610d0757610d06610b2e565b5b6000610d1584828501610b7c565b91505092915050565b60008060408385031215610d3557610d34610b2e565b5b6000610d4385828601610b7c565b9250506020610d5485828601610b7c565b9150509250929050565b7f4e487b7100000000000000000000000000000000000000000000000000000000600052602260045260246000fd5b60006002820490506001821680610da557607f821691505b602082108103610db857610db7610d5e565b5b50919050565b7f4e487b7100000000000000000000000000000000000000000000000000000000600052601160045260246000fd5b6000610df882610b91565b9150610e0383610b91565b9250828201905080821115610e1b57610e1a610dbe565b5b92915050565b7f45524332303a2064656372656173656420616c6c6f77616e63652062656c6f7760008201527f207a65726f000000000000000000000000000000000000000000000000000000602082015250565b6000610e7d602583610a87565b9150610e8882610e21565b604082019050919050565b60006020820190508181036000830152610eac81610e70565b9050919050565b7f45524332303a20617070726f76652066726f6d20746865207a65726f2061646460008201527f7265737300000000000000000000000000000000000000000000000000000000602082015250565b6000610f0f602483610a87565b9150610f1a82610eb3565b604082019050919050565b60006020820190508181036000830152610f3e81610f02565b9050919050565b7f45524332303a20617070726f766520746f20746865207a65726f20616464726560008201527f7373000000000000000000000000000000000000000000000000000000000000602082015250565b6000610fa1602283610a87565b9150610fac82610f45565b604082019050919050565b60006020820190508181036000830152610fd081610f94565b9050919050565b7f45524332303a20696e73756666696369656e7420616c6c6f77616e6365000000600082015250565b600061100d601d83610a87565b915061101882610fd7565b602082019050919050565b6000602082019050818103600083015261103c81611000565b9050919050565b7f45524332303a207472616e736665722066726f6d20746865207a65726f20616460008201527f6472657373000000000000000000000000000000000000000000000000000000602082015250565b600061109f602583610a87565b91506110aa82611043565b604082019050919050565b600060208201905081810360008301526110ce81611092565b9050919050565b7f45524332303a207472616e7366657220746f20746865207a65726f206164647260008201527f6573730000000000000000000000000000000000000000000000000000000000602082015250565b6000611131602383610a87565b915061113c826110d5565b604082019050919050565b6000602082019050818103600083015261116081611124565b9050919050565b7f45524332303a207472616e7366657220616d6f756e742065786365656473206260008201527f616c616e63650000000000000000000000000000000000000000000000000000602082015250565b60006111c3602683610a87565b91506111ce82611167565b604082019050919050565b600060208201905081810360008301526111f2816111b6565b905091905056fea2646970667358221220d6b6d8b5900bb94717908820f1c4161c1365b4d5e2b7665b197c69e3812a3a7464736f6c63430008100033a26469706673582212206be7369bb57d5a495a22a197c81d79bee5e4c2077f1f68eee3580bcff6c5e77964736f6c63430008100033",
  "immutableReferences": {},
  "source": "// SPDX-License-Identifier: Leluk\npragma solidity ^0.8.7;\n\nimport \"./erc20FixSupply.sol\";\nimport \"./erc20VariableSupply.sol\";\nimport \"./erc20FixSupplyPausable.sol\";\nimport \"./erc20VariableSupplyPausable.sol\";\nimport \"@openzeppelin/contracts/access/Ownable.sol\";\nimport \"@openzeppelin/contracts/security/ReentrancyGuard.sol\";\nimport \"@openzeppelin/contracts/security/Pausable.sol\";\n\ncontract creatorToken is Ownable, ReentrancyGuard, Pausable {\n    uint256 private balance;\n    uint256 private fees;\n\n    receive() external payable {\n        _fallback();\n    }\n\n    fallback() external payable {\n        _fallback();\n    }\n\n    constructor(uint256 _fees) {\n        fees = _fees;\n    }\n\n    function _fallback() private pure {\n        return;\n    }\n\n    function setPause() external onlyOwner {\n        _pause();\n    }\n\n    function setUnpause() external onlyOwner {\n        _unpause();\n    }\n\n    event CreateNewToken(address indexed sender, address token);\n\n    function createFixSupply(\n        string memory _name,\n        string memory _ticker,\n        uint256 _supply,\n        address _recipient\n    ) public nonReentrant returns (address _tokenAddress) {\n        (bool success, ) = address(this).call{value: fees}(\"\");\n        require(success, \"Payament fees is faill\");\n        balance += fees;\n        _tokenAddress = _createFixSupply(_name, _ticker, _supply, _recipient);\n        emit CreateNewToken(msg.sender, _tokenAddress);\n        return _tokenAddress;\n    }\n\n    function createFixSupplyPausable(\n        string memory _name,\n        string memory _ticker,\n        uint256 _supply,\n        address _recipient\n    ) public nonReentrant returns (address _tokenAddress) {\n        (bool success, ) = address(this).call{value: fees}(\"\");\n        require(success, \"Payament fees is faill\");\n        balance += fees;\n        _tokenAddress = _createFixSupply(_name, _ticker, _supply, _recipient);\n        emit CreateNewToken(msg.sender, _tokenAddress);\n        return _tokenAddress;\n    }\n\n    function createVariableSupply(\n        string memory _name,\n        string memory _ticker,\n        uint256 _supply,\n        address _recipient\n    ) public nonReentrant returns (address _tokenAddress) {\n        (bool success, ) = address(this).call{value: fees}(\"\");\n        require(success, \"Payament fees is faill\");\n        balance += fees;\n        _tokenAddress = _createFixSupply(_name, _ticker, _supply, _recipient);\n        emit CreateNewToken(msg.sender, _tokenAddress);\n        return _tokenAddress;\n    }\n\n    function createVariableSupplyPausable(\n        string memory _name,\n        string memory _ticker,\n        uint256 _supply,\n        address _recipient\n    ) public nonReentrant returns (address _tokenAddress) {\n        (bool success, ) = address(this).call{value: fees}(\"\");\n        require(success, \"Payament fees is faill\");\n        balance += fees;\n        _tokenAddress = _createFixSupply(_name, _ticker, _supply, _recipient);\n        emit CreateNewToken(msg.sender, _tokenAddress);\n        return _tokenAddress;\n    }\n\n    function _createFixSupply(\n        string memory _name,\n        string memory _ticker,\n        uint256 _supply,\n        address _recipient\n    ) private returns (address _tokenAddress) {\n        Erc20FixSupply _erc20FixSupply = new Erc20FixSupply(\n            _name,\n            _ticker,\n            _supply,\n            _recipient\n        );\n        return _tokenAddress = address(_erc20FixSupply);\n    }\n\n    function _createFixSupplyPausable(\n        string memory _name,\n        string memory _ticker,\n        uint256 _supply,\n        address _recipient\n    ) private returns (address _tokenAddress) {\n        Erc20FixSupplyPausable _erc20FixSupplyPausable = new Erc20FixSupplyPausable(\n                _name,\n                _ticker,\n                _supply,\n                _recipient\n            );\n        return _tokenAddress = address(_erc20FixSupplyPausable);\n    }\n\n    function _createVariableSupply(\n        string memory _name,\n        string memory _ticker,\n        uint256 _supply,\n        address _recipient\n    ) private returns (address _tokenAddress) {\n        Erc20VariableSupply _erc20VariableSupply = new Erc20VariableSupply(\n            _name,\n            _ticker,\n            _supply,\n            _recipient\n        );\n        return _tokenAddress = address(_erc20VariableSupply);\n    }\n\n    function _createVariableSupplyPausable(\n        string memory _name,\n        string memory _ticker,\n        uint256 _supply,\n        address _recipient\n    ) private returns (address _tokenAddress) {\n        Erc20VariableSupplyPausable _erc20VariableSupplyPausable = new Erc20VariableSupplyPausable(\n                _name,\n                _ticker,\n                _supply,\n                _recipient\n            );\n        return _tokenAddress = address(_erc20VariableSupplyPausable);\n    }\n\n    function _withdrow() private onlyOwner {\n        uint256 withdrow_ = balance;\n        balance = 0;\n        (bool result, ) = owner().call{value: withdrow_}(\"\");\n        require(result, \"Withdrow faill\");\n    }\n}\n",
  "sourcePath": "/run/media/luk/storage/Studio Dev/tutorial-react/corso next.js/esercizi/Contract personal-page/contracts/tokenCreator.sol",
  "compiler": {
    "name": "solc",
    "version": "0.8.16+commit.07a7930e.Emscripten.clang"
  },
  "schemaVersion": "3.4.9",
  "updatedAt": "2022-12-01T20:46:53.053Z",
  "networkType": "ethereum",
  "devdoc": {
    "kind": "dev",
    "methods": {
      "owner()": {
        "details": "Returns the address of the current owner."
      },
      "paused()": {
        "details": "Returns true if the contract is paused, and false otherwise."
      },
      "renounceOwnership()": {
        "details": "Leaves the contract without owner. It will not be possible to call `onlyOwner` functions anymore. Can only be called by the current owner. NOTE: Renouncing ownership will leave the contract without an owner, thereby removing any functionality that is only available to the owner."
      },
      "transferOwnership(address)": {
        "details": "Transfers ownership of the contract to a new account (`newOwner`). Can only be called by the current owner."
      }
    },
    "version": 1
  },
  "userdoc": {
    "kind": "user",
    "methods": {},
    "version": 1
  }
}